{
  "contractName": "GoldenAnanasScore",
  "abi": [
    {
      "inputs": [
        {
          "internalType": "uint256",
          "name": "_countLevels",
          "type": "uint256"
        },
        {
          "internalType": "uint256",
          "name": "_scoreBase",
          "type": "uint256"
        }
      ],
      "stateMutability": "nonpayable",
      "type": "constructor"
    },
    {
      "anonymous": false,
      "inputs": [
        {
          "indexed": true,
          "internalType": "bytes32",
          "name": "role",
          "type": "bytes32"
        },
        {
          "indexed": true,
          "internalType": "bytes32",
          "name": "previousAdminRole",
          "type": "bytes32"
        },
        {
          "indexed": true,
          "internalType": "bytes32",
          "name": "newAdminRole",
          "type": "bytes32"
        }
      ],
      "name": "RoleAdminChanged",
      "type": "event"
    },
    {
      "anonymous": false,
      "inputs": [
        {
          "indexed": true,
          "internalType": "bytes32",
          "name": "role",
          "type": "bytes32"
        },
        {
          "indexed": true,
          "internalType": "address",
          "name": "account",
          "type": "address"
        },
        {
          "indexed": true,
          "internalType": "address",
          "name": "sender",
          "type": "address"
        }
      ],
      "name": "RoleGranted",
      "type": "event"
    },
    {
      "anonymous": false,
      "inputs": [
        {
          "indexed": true,
          "internalType": "bytes32",
          "name": "role",
          "type": "bytes32"
        },
        {
          "indexed": true,
          "internalType": "address",
          "name": "account",
          "type": "address"
        },
        {
          "indexed": true,
          "internalType": "address",
          "name": "sender",
          "type": "address"
        }
      ],
      "name": "RoleRevoked",
      "type": "event"
    },
    {
      "inputs": [],
      "name": "DEFAULT_ADMIN_ROLE",
      "outputs": [
        {
          "internalType": "bytes32",
          "name": "",
          "type": "bytes32"
        }
      ],
      "stateMutability": "view",
      "type": "function",
      "constant": true
    },
    {
      "inputs": [],
      "name": "EXECUTOR_ROLE",
      "outputs": [
        {
          "internalType": "bytes32",
          "name": "",
          "type": "bytes32"
        }
      ],
      "stateMutability": "view",
      "type": "function",
      "constant": true
    },
    {
      "inputs": [],
      "name": "countLevels",
      "outputs": [
        {
          "internalType": "uint256",
          "name": "",
          "type": "uint256"
        }
      ],
      "stateMutability": "view",
      "type": "function",
      "constant": true
    },
    {
      "inputs": [
        {
          "internalType": "bytes32",
          "name": "role",
          "type": "bytes32"
        }
      ],
      "name": "getRoleAdmin",
      "outputs": [
        {
          "internalType": "bytes32",
          "name": "",
          "type": "bytes32"
        }
      ],
      "stateMutability": "view",
      "type": "function",
      "constant": true
    },
    {
      "inputs": [
        {
          "internalType": "bytes32",
          "name": "role",
          "type": "bytes32"
        },
        {
          "internalType": "uint256",
          "name": "index",
          "type": "uint256"
        }
      ],
      "name": "getRoleMember",
      "outputs": [
        {
          "internalType": "address",
          "name": "",
          "type": "address"
        }
      ],
      "stateMutability": "view",
      "type": "function",
      "constant": true
    },
    {
      "inputs": [
        {
          "internalType": "bytes32",
          "name": "role",
          "type": "bytes32"
        }
      ],
      "name": "getRoleMemberCount",
      "outputs": [
        {
          "internalType": "uint256",
          "name": "",
          "type": "uint256"
        }
      ],
      "stateMutability": "view",
      "type": "function",
      "constant": true
    },
    {
      "inputs": [
        {
          "internalType": "bytes32",
          "name": "role",
          "type": "bytes32"
        },
        {
          "internalType": "address",
          "name": "account",
          "type": "address"
        }
      ],
      "name": "grantRole",
      "outputs": [],
      "stateMutability": "nonpayable",
      "type": "function"
    },
    {
      "inputs": [
        {
          "internalType": "bytes32",
          "name": "role",
          "type": "bytes32"
        },
        {
          "internalType": "address",
          "name": "account",
          "type": "address"
        }
      ],
      "name": "hasRole",
      "outputs": [
        {
          "internalType": "bool",
          "name": "",
          "type": "bool"
        }
      ],
      "stateMutability": "view",
      "type": "function",
      "constant": true
    },
    {
      "inputs": [
        {
          "internalType": "bytes32",
          "name": "role",
          "type": "bytes32"
        },
        {
          "internalType": "address",
          "name": "account",
          "type": "address"
        }
      ],
      "name": "renounceRole",
      "outputs": [],
      "stateMutability": "nonpayable",
      "type": "function"
    },
    {
      "inputs": [
        {
          "internalType": "bytes32",
          "name": "role",
          "type": "bytes32"
        },
        {
          "internalType": "address",
          "name": "account",
          "type": "address"
        }
      ],
      "name": "revokeRole",
      "outputs": [],
      "stateMutability": "nonpayable",
      "type": "function"
    },
    {
      "inputs": [
        {
          "internalType": "address",
          "name": "",
          "type": "address"
        }
      ],
      "name": "score",
      "outputs": [
        {
          "internalType": "uint256",
          "name": "",
          "type": "uint256"
        }
      ],
      "stateMutability": "view",
      "type": "function",
      "constant": true
    },
    {
      "inputs": [],
      "name": "scoreBase",
      "outputs": [
        {
          "internalType": "uint256",
          "name": "",
          "type": "uint256"
        }
      ],
      "stateMutability": "view",
      "type": "function",
      "constant": true
    },
    {
      "inputs": [
        {
          "internalType": "uint256",
          "name": "",
          "type": "uint256"
        },
        {
          "internalType": "address",
          "name": "",
          "type": "address"
        }
      ],
      "name": "scoreByLevel",
      "outputs": [
        {
          "internalType": "uint256",
          "name": "",
          "type": "uint256"
        }
      ],
      "stateMutability": "view",
      "type": "function",
      "constant": true
    },
    {
      "inputs": [],
      "name": "addLevel",
      "outputs": [
        {
          "internalType": "bool",
          "name": "",
          "type": "bool"
        }
      ],
      "stateMutability": "nonpayable",
      "type": "function"
    },
    {
      "inputs": [
        {
          "internalType": "uint256",
          "name": "_level",
          "type": "uint256"
        },
        {
          "internalType": "uint256",
          "name": "_score",
          "type": "uint256"
        },
        {
          "internalType": "address",
          "name": "_player",
          "type": "address"
        }
      ],
      "name": "setScore",
      "outputs": [],
      "stateMutability": "nonpayable",
      "type": "function"
    },
    {
      "inputs": [
        {
          "internalType": "uint256",
          "name": "_level",
          "type": "uint256"
        },
        {
          "internalType": "address",
          "name": "_player",
          "type": "address"
        }
      ],
      "name": "getScoreByLevel",
      "outputs": [
        {
          "internalType": "uint256",
          "name": "",
          "type": "uint256"
        }
      ],
      "stateMutability": "view",
      "type": "function",
      "constant": true
    },
    {
      "inputs": [
        {
          "internalType": "address",
          "name": "_player",
          "type": "address"
        }
      ],
      "name": "getScore",
      "outputs": [
        {
          "internalType": "uint256",
          "name": "",
          "type": "uint256"
        }
      ],
      "stateMutability": "view",
      "type": "function",
      "constant": true
    }
  ],
  "bytecode": "0x60806040523480156200001157600080fd5b5060405162000f0538038062000f05833981016040819052620000349162000193565b600482905560038190556200004b6000336200007f565b620000777fd8aa0f3194971a2a116679f7c2090f6939c8d4e01a2a8d7e41d55e5351469e63336200007f565b5050620001b7565b6200008b82826200008f565b5050565b600082815260208181526040909120620000b4918390620005f362000108821b17901c565b156200008b57620000c462000128565b6001600160a01b0316816001600160a01b0316837f2f8788117e7eff1d82e926ec794901d17c78024a50270940304540a733656f0d60405160405180910390a45050565b60006200011f836001600160a01b0384166200012c565b90505b92915050565b3390565b60006200013a83836200017b565b620001725750815460018181018455600084815260208082209093018490558454848252828601909352604090209190915562000122565b50600062000122565b60009081526001919091016020526040902054151590565b60008060408385031215620001a6578182fd5b505080516020909101519092909150565b610d3e80620001c76000396000f3fe608060405234801561001057600080fd5b506004361061010b5760003560e01c8063776f3843116100a25780639e493199116100715780639e493199146101fa578063a217fddf1461020d578063ca15c87314610215578063d47875d014610228578063d547741f1461023b5761010b565b8063776f3843146101a1578063797752e3146101b45780639010d07c146101c757806391d14854146101e75761010b565b806336568abe116100de57806336568abe1461015e5780634fe39b41146101715780634fead19a14610184578063631dd3531461018c5761010b565b806301fb06e51461011057806307bd02651461012e578063248a9ca3146101365780632f2ff15d14610149575b600080fd5b61011861024e565b6040516101259190610a40565b60405180910390f35b610118610254565b610118610144366004610955565b610278565b61015c61015736600461096d565b61028d565b005b61015c61016c36600461096d565b6102de565b61011861017f3660046109bd565b610320565b61011861033d565b610194610343565b6040516101259190610a35565b6101186101af36600461093a565b610382565b61015c6101c23660046109e9565b610394565b6101da6101d536600461099c565b610521565b6040516101259190610a21565b6101946101f536600461096d565b610542565b6101186102083660046109bd565b61055a565b610118610582565b610118610223366004610955565b610587565b61011861023636600461093a565b61059e565b61015c61024936600461096d565b6105b9565b60035481565b7fd8aa0f3194971a2a116679f7c2090f6939c8d4e01a2a8d7e41d55e5351469e6381565b60009081526020819052604090206002015490565b6000828152602081905260409020600201546102ab906101f5610608565b6102d05760405162461bcd60e51b81526004016102c790610ade565b60405180910390fd5b6102da828261060c565b5050565b6102e6610608565b6001600160a01b0316816001600160a01b0316146103165760405162461bcd60e51b81526004016102c790610ca1565b6102da8282610675565b600160209081526000928352604080842090915290825290205481565b60045481565b600061034f8133610542565b61036b5760405162461bcd60e51b81526004016102c790610b2d565b6004546103799060016106de565b60045550600190565b60026020526000908152604090205481565b6103be7fd8aa0f3194971a2a116679f7c2090f6939c8d4e01a2a8d7e41d55e5351469e6333610542565b6103da5760405162461bcd60e51b81526004016102c790610c02565b81158015906103ea575060035482105b6104065760405162461bcd60e51b81526004016102c790610c53565b60045483106104275760405162461bcd60e51b81526004016102c790610c7a565b60008381526001602090815260408083206001600160a01b0385168452909152902054156104bc5760008381526001602090815260408083206001600160a01b03851684529091529020546003546104a2916104839190610703565b6001600160a01b03831660009081526002602052604090205490610703565b6001600160a01b0382166000908152600260205260409020555b6003546104ec906104cd9084610703565b6001600160a01b038316600090815260026020526040902054906106de565b6001600160a01b0390911660008181526002602090815260408083209490945594815260018552828120918152935290912055565b60008281526020819052604081206105399083610745565b90505b92915050565b60008281526020819052604081206105399083610751565b60009182526001602090815260408084206001600160a01b0393909316845291905290205490565b600081565b600081815260208190526040812061053c90610766565b6001600160a01b031660009081526002602052604090205490565b6000828152602081905260409020600201546105d7906101f5610608565b6103165760405162461bcd60e51b81526004016102c790610bb2565b6000610539836001600160a01b038416610771565b3390565b600082815260208190526040902061062490826105f3565b156102da57610631610608565b6001600160a01b0316816001600160a01b0316837f2f8788117e7eff1d82e926ec794901d17c78024a50270940304540a733656f0d60405160405180910390a45050565b600082815260208190526040902061068d90826107bb565b156102da5761069a610608565b6001600160a01b0316816001600160a01b0316837ff6391f5c32d9c69d2a47ea670b442974b53935d1edc7fd64eb21e047a839171b60405160405180910390a45050565b6000828201838110156105395760405162461bcd60e51b81526004016102c790610b7b565b600061053983836040518060400160405280601e81526020017f536166654d6174683a207375627472616374696f6e206f766572666c6f7700008152506107d0565b600061053983836107fc565b6000610539836001600160a01b038416610841565b600061053c82610859565b600061077d8383610841565b6107b35750815460018181018455600084815260208082209093018490558454848252828601909352604090209190915561053c565b50600061053c565b6000610539836001600160a01b03841661085d565b600081848411156107f45760405162461bcd60e51b81526004016102c79190610a49565b505050900390565b8154600090821061081f5760405162461bcd60e51b81526004016102c790610a9c565b82600001828154811061082e57fe5b9060005260206000200154905092915050565b60009081526001919091016020526040902054151590565b5490565b60008181526001830160205260408120548015610919578354600019808301919081019060009087908390811061089057fe5b90600052602060002001549050808760000184815481106108ad57fe5b6000918252602080832090910192909255828152600189810190925260409020908401905586548790806108dd57fe5b6001900381819060005260206000200160009055905586600101600087815260200190815260200160002060009055600194505050505061053c565b600091505061053c565b80356001600160a01b038116811461053c57600080fd5b60006020828403121561094b578081fd5b6105398383610923565b600060208284031215610966578081fd5b5035919050565b6000806040838503121561097f578081fd5b82359150602083013561099181610cf0565b809150509250929050565b600080604083850312156109ae578182fd5b50508035926020909101359150565b600080604083850312156109cf578182fd5b823591506109e08460208501610923565b90509250929050565b6000806000606084860312156109fd578081fd5b83359250602084013591506040840135610a1681610cf0565b809150509250925092565b6001600160a01b0391909116815260200190565b901515815260200190565b90815260200190565b6000602080835283518082850152825b81811015610a7557858101830151858201604001528201610a59565b81811115610a865783604083870101525b50601f01601f1916929092016040019392505050565b60208082526022908201527f456e756d657261626c655365743a20696e646578206f7574206f6620626f756e604082015261647360f01b606082015260800190565b6020808252602f908201527f416363657373436f6e74726f6c3a2073656e646572206d75737420626520616e60408201526e0818591b5a5b881d1bc819dc985b9d608a1b606082015260800190565b6020808252602e908201527f476f6c64656e416e616e617353636f72653a2053656e646572206d757374206860408201526d6176652061646d696e20726f6c6560901b606082015260800190565b6020808252601b908201527f536166654d6174683a206164646974696f6e206f766572666c6f770000000000604082015260600190565b60208082526030908201527f416363657373436f6e74726f6c3a2073656e646572206d75737420626520616e60408201526f2061646d696e20746f207265766f6b6560801b606082015260800190565b60208082526031908201527f476f6c64656e416e616e617353636f72653a2053656e646572206d7573742068604082015270617665206578656375746f7220726f6c6560781b606082015260800190565b6020808252600d908201526c696e76616c69645f73636f726560981b604082015260600190565b6020808252600d908201526c1a5b9d985b1a5917db195d995b609a1b604082015260600190565b6020808252602f908201527f416363657373436f6e74726f6c3a2063616e206f6e6c792072656e6f756e636560408201526e103937b632b9903337b91039b2b63360891b606082015260800190565b6001600160a01b0381168114610d0557600080fd5b5056fea2646970667358221220d3e53068c2d7eccd8e028b46cb8eab50a057fd5c9cb31c63aacb77fd900fb31864736f6c634300060c0033",
  "immutableReferences": {},
  "source": "// SPDX-License-Identifier: MIT\npragma solidity ^0.6.12;\npragma experimental ABIEncoderV2;\n\nimport \"./openzeppelin/SafeMath.sol\";\nimport \"./openzeppelin/IERC20.sol\";\nimport \"./openzeppelin/AccessControl.sol\";\n\ncontract GoldenAnanasScore is AccessControl {\n\n  using SafeMath for uint;\n  bytes32 public constant EXECUTOR_ROLE = keccak256(\"EXECUTOR_ROLE\");\n\n  mapping(uint256 => mapping(address => uint256) ) public scoreByLevel;\n  mapping(address => uint256) public score;\n  uint256 public scoreBase;\n\n  uint256 public countLevels;\n\n  constructor(\n    uint256 _countLevels,\n    uint256 _scoreBase\n  ) public {\n\n    countLevels = _countLevels;\n    scoreBase = _scoreBase;\n    _setupRole(DEFAULT_ADMIN_ROLE, msg.sender);\n    _setupRole(EXECUTOR_ROLE, msg.sender);\n\n  }\n\n  function addLevel() public returns(bool){\n\n    require(hasRole(DEFAULT_ADMIN_ROLE, msg.sender), \"GoldenAnanasScore: Sender must have admin role\");\n    countLevels = countLevels.add(1);\n\n    return true;\n\n  }\n\n  function setScore(uint256 _level, uint256 _score, address _player) public {\n\n    require(hasRole(EXECUTOR_ROLE, msg.sender), \"GoldenAnanasScore: Sender must have executor role\");\n    require(_score != 0 && _score < scoreBase, \"invalid_score\");\n    require(_level < countLevels, \"invalid_level\");\n\n    if(scoreByLevel[_level][_player] != 0){\n\n      score[_player] = score[_player].sub(scoreBase.sub(scoreByLevel[_level][_player]) );\n\n    }\n\n    score[_player] = score[_player].add(scoreBase.sub(_score) );\n    scoreByLevel[_level][_player] = _score;\n\n  }\n\n  function getScoreByLevel(uint256 _level, address _player) public view returns (uint256){\n\n    return scoreByLevel[_level][_player];\n\n  }\n\n  function getScore(address _player) public view returns (uint256){\n\n    return score[_player];\n\n  }\n\n}\n",
  "sourcePath": "/Users/jules/WebstormProjects/decentraland/golden-ananas-contract/contracts/GoldenAnanasScore.sol",
  "compiler": {
    "name": "solc",
    "version": "0.6.12+commit.27d51765.Emscripten.clang"
  },
  "schemaVersion": "3.2.4",
  "updatedAt": "2020-09-08T05:04:35.170Z",
  "networkType": "ethereum",
  "devdoc": {
    "kind": "dev",
    "methods": {
      "getRoleAdmin(bytes32)": {
        "details": "Returns the admin role that controls `role`. See {grantRole} and {revokeRole}. To change a role's admin, use {_setRoleAdmin}."
      },
      "getRoleMember(bytes32,uint256)": {
        "details": "Returns one of the accounts that have `role`. `index` must be a value between 0 and {getRoleMemberCount}, non-inclusive. Role bearers are not sorted in any particular way, and their ordering may change at any point. WARNING: When using {getRoleMember} and {getRoleMemberCount}, make sure you perform all queries on the same block. See the following https://forum.openzeppelin.com/t/iterating-over-elements-on-enumerableset-in-openzeppelin-contracts/2296[forum post] for more information."
      },
      "getRoleMemberCount(bytes32)": {
        "details": "Returns the number of accounts that have `role`. Can be used together with {getRoleMember} to enumerate all bearers of a role."
      },
      "grantRole(bytes32,address)": {
        "details": "Grants `role` to `account`. If `account` had not been already granted `role`, emits a {RoleGranted} event. Requirements: - the caller must have ``role``'s admin role."
      },
      "hasRole(bytes32,address)": {
        "details": "Returns `true` if `account` has been granted `role`."
      },
      "renounceRole(bytes32,address)": {
        "details": "Revokes `role` from the calling account. Roles are often managed via {grantRole} and {revokeRole}: this function's purpose is to provide a mechanism for accounts to lose their privileges if they are compromised (such as when a trusted device is misplaced). If the calling account had been granted `role`, emits a {RoleRevoked} event. Requirements: - the caller must be `account`."
      },
      "revokeRole(bytes32,address)": {
        "details": "Revokes `role` from `account`. If `account` had been granted `role`, emits a {RoleRevoked} event. Requirements: - the caller must have ``role``'s admin role."
      }
    },
    "version": 1
  },
  "userdoc": {
    "kind": "user",
    "methods": {},
    "version": 1
  }
}