{
  "contractName": "GoldenAnanas",
  "abi": [
    {
      "inputs": [
        {
          "internalType": "contract GoldenAnanasScore",
          "name": "_goldenAnanasScore",
          "type": "address"
        },
        {
          "internalType": "contract GoldenAnanasRank",
          "name": "_goldenAnanasRank",
          "type": "address"
        },
        {
          "internalType": "uint256",
          "name": "_minContrib",
          "type": "uint256"
        }
      ],
      "stateMutability": "nonpayable",
      "type": "constructor"
    },
    {
      "anonymous": false,
      "inputs": [
        {
          "indexed": true,
          "internalType": "address",
          "name": "account",
          "type": "address"
        }
      ],
      "name": "AdminAdded",
      "type": "event"
    },
    {
      "anonymous": false,
      "inputs": [
        {
          "indexed": true,
          "internalType": "address",
          "name": "account",
          "type": "address"
        }
      ],
      "name": "AdminRemoved",
      "type": "event"
    },
    {
      "stateMutability": "payable",
      "type": "fallback",
      "payable": true
    },
    {
      "inputs": [
        {
          "internalType": "address",
          "name": "account",
          "type": "address"
        }
      ],
      "name": "addAdmin",
      "outputs": [],
      "stateMutability": "nonpayable",
      "type": "function"
    },
    {
      "inputs": [],
      "name": "goldenAnanasRank",
      "outputs": [
        {
          "internalType": "contract GoldenAnanasRank",
          "name": "",
          "type": "address"
        }
      ],
      "stateMutability": "view",
      "type": "function",
      "constant": true
    },
    {
      "inputs": [],
      "name": "goldenAnanasScore",
      "outputs": [
        {
          "internalType": "contract GoldenAnanasScore",
          "name": "",
          "type": "address"
        }
      ],
      "stateMutability": "view",
      "type": "function",
      "constant": true
    },
    {
      "inputs": [
        {
          "internalType": "address",
          "name": "account",
          "type": "address"
        }
      ],
      "name": "isAdmin",
      "outputs": [
        {
          "internalType": "bool",
          "name": "",
          "type": "bool"
        }
      ],
      "stateMutability": "view",
      "type": "function",
      "constant": true
    },
    {
      "inputs": [],
      "name": "minContrib",
      "outputs": [
        {
          "internalType": "uint256",
          "name": "",
          "type": "uint256"
        }
      ],
      "stateMutability": "view",
      "type": "function",
      "constant": true
    },
    {
      "inputs": [],
      "name": "renounceAdmin",
      "outputs": [],
      "stateMutability": "nonpayable",
      "type": "function"
    },
    {
      "stateMutability": "payable",
      "type": "receive",
      "payable": true
    },
    {
      "inputs": [
        {
          "internalType": "uint256",
          "name": "_minContrib",
          "type": "uint256"
        }
      ],
      "name": "setMinContrib",
      "outputs": [],
      "stateMutability": "nonpayable",
      "type": "function"
    },
    {
      "inputs": [
        {
          "internalType": "contract GoldenAnanasScore",
          "name": "_goldenAnanasScore",
          "type": "address"
        }
      ],
      "name": "setGoldenAnanasScore",
      "outputs": [],
      "stateMutability": "nonpayable",
      "type": "function"
    },
    {
      "inputs": [
        {
          "internalType": "contract GoldenAnanasRank",
          "name": "_goldenAnanasRank",
          "type": "address"
        }
      ],
      "name": "setGoldenAnanasRank",
      "outputs": [],
      "stateMutability": "nonpayable",
      "type": "function"
    },
    {
      "inputs": [
        {
          "internalType": "uint256",
          "name": "_level",
          "type": "uint256"
        },
        {
          "internalType": "uint256",
          "name": "_scoreLevel",
          "type": "uint256"
        },
        {
          "internalType": "address",
          "name": "_player",
          "type": "address"
        }
      ],
      "name": "setScoreFor",
      "outputs": [],
      "stateMutability": "nonpayable",
      "type": "function"
    },
    {
      "inputs": [
        {
          "internalType": "uint256",
          "name": "_level",
          "type": "uint256"
        },
        {
          "internalType": "uint256",
          "name": "_scoreLevel",
          "type": "uint256"
        }
      ],
      "name": "setScore",
      "outputs": [],
      "stateMutability": "payable",
      "type": "function",
      "payable": true
    },
    {
      "inputs": [],
      "name": "getScore",
      "outputs": [
        {
          "internalType": "uint256",
          "name": "",
          "type": "uint256"
        }
      ],
      "stateMutability": "view",
      "type": "function",
      "constant": true
    },
    {
      "inputs": [
        {
          "internalType": "uint256",
          "name": "_level",
          "type": "uint256"
        }
      ],
      "name": "getScoreByLevel",
      "outputs": [
        {
          "internalType": "uint256",
          "name": "",
          "type": "uint256"
        }
      ],
      "stateMutability": "view",
      "type": "function",
      "constant": true
    },
    {
      "inputs": [],
      "name": "getRanks",
      "outputs": [
        {
          "internalType": "address[]",
          "name": "",
          "type": "address[]"
        },
        {
          "internalType": "uint256[]",
          "name": "",
          "type": "uint256[]"
        }
      ],
      "stateMutability": "view",
      "type": "function",
      "constant": true
    },
    {
      "inputs": [
        {
          "internalType": "uint256",
          "name": "_level",
          "type": "uint256"
        }
      ],
      "name": "getRanksByLevel",
      "outputs": [
        {
          "internalType": "address[]",
          "name": "",
          "type": "address[]"
        },
        {
          "internalType": "uint256[]",
          "name": "",
          "type": "uint256[]"
        }
      ],
      "stateMutability": "view",
      "type": "function",
      "constant": true
    },
    {
      "inputs": [
        {
          "internalType": "contract IERC20",
          "name": "_token",
          "type": "address"
        },
        {
          "internalType": "uint256",
          "name": "_value",
          "type": "uint256"
        }
      ],
      "name": "withdrawToken",
      "outputs": [],
      "stateMutability": "nonpayable",
      "type": "function"
    },
    {
      "inputs": [
        {
          "internalType": "uint256",
          "name": "_value",
          "type": "uint256"
        }
      ],
      "name": "withdrawEth",
      "outputs": [],
      "stateMutability": "nonpayable",
      "type": "function"
    }
  ],
  "bytecode": "0x60806040523480156200001157600080fd5b50604051620013ae380380620013ae83398101604081905262000034916200016f565b6200003f3362000078565b600180546001600160a01b039485166001600160a01b031991821617909155600280549390941692169190911790915560035562000248565b62000093816000620000ca60201b620008691790919060201c565b6040516001600160a01b038216907f44d6d25963f097ad14f29f06854a01f575648a1ef82f30e562ccd3889717e33990600090a250565b620000d6828262000124565b15620000ff5760405162461bcd60e51b8152600401620000f690620001b6565b60405180910390fd5b6001600160a01b0316600090815260209190915260409020805460ff19166001179055565b60006001600160a01b0382166200014f5760405162461bcd60e51b8152600401620000f690620001ed565b506001600160a01b03166000908152602091909152604090205460ff1690565b60008060006060848603121562000184578283fd5b835162000191816200022f565b6020850151909350620001a4816200022f565b80925050604084015190509250925092565b6020808252601f908201527f526f6c65733a206163636f756e7420616c72656164792068617320726f6c6500604082015260600190565b60208082526022908201527f526f6c65733a206163636f756e7420697320746865207a65726f206164647265604082015261737360f01b606082015260800190565b6001600160a01b03811681146200024557600080fd5b50565b61115680620002586000396000f3fe6080604052600436106101025760003560e01c80638c0ae54711610095578063b276fa0a11610064578063b276fa0a14610292578063c311d049146102a5578063ce958ba2146102c5578063e3c10714146102e5578063ebc33c511461030557610109565b80638c0ae5471461021b5780639e281a9814610230578063aafa5a0714610250578063afd820671461027057610109565b806348e4af08116100d157806348e4af08146101a65780636173fb38146101c657806370480275146101e65780638bad0c0a1461020657610109565b806304867ecc1461010b57806324d7806c14610137578063285450c8146101645780632e65e8b41461018457610109565b3661010957005b005b34801561011757600080fd5b5061012061031a565b60405161012e929190610e64565b60405180910390f35b34801561014357600080fd5b50610157610152366004610c69565b6103af565b60405161012e9190610ef2565b34801561017057600080fd5b5061010961017f366004610c69565b6103c1565b34801561019057600080fd5b50610199610411565b60405161012e9190610e37565b3480156101b257600080fd5b506101096101c1366004610dea565b610420565b3480156101d257600080fd5b506101206101e1366004610d99565b610455565b3480156101f257600080fd5b50610109610201366004610c69565b6104e7565b34801561021257600080fd5b50610109610518565b34801561022757600080fd5b50610199610523565b34801561023c57600080fd5b5061010961024b366004610d6e565b610532565b34801561025c57600080fd5b5061010961026b366004610c69565b6105d7565b34801561027c57600080fd5b5061028561061e565b60405161012e9190611085565b6101096102a0366004610dc9565b6106a4565b3480156102b157600080fd5b506101096102c0366004610d99565b610764565b3480156102d157600080fd5b506102856102e0366004610d99565b6107b6565b3480156102f157600080fd5b50610109610300366004610d99565b610839565b34801561031157600080fd5b50610285610863565b606080600260009054906101000a90046001600160a01b03166001600160a01b03166304867ecc6040518163ffffffff1660e01b815260040160006040518083038186803b15801561036b57600080fd5b505afa15801561037f573d6000803e3d6000fd5b505050506040513d6000823e601f3d908101601f191682016040526103a79190810190610c8c565b915091509091565b60006103bb81836108b5565b92915050565b6103ca336103af565b6103ef5760405162461bcd60e51b81526004016103e69061100a565b60405180910390fd5b600280546001600160a01b0319166001600160a01b0392909216919091179055565b6002546001600160a01b031681565b610429336103af565b6104455760405162461bcd60e51b81526004016103e69061100a565b6104508383836108fd565b505050565b600254604051630c2e7f6760e31b815260609182916001600160a01b0390911690636173fb389061048a908690600401611085565b60006040518083038186803b1580156104a257600080fd5b505afa1580156104b6573d6000803e3d6000fd5b505050506040513d6000823e601f3d908101601f191682016040526104de9190810190610c8c565b91509150915091565b6104f0336103af565b61050c5760405162461bcd60e51b81526004016103e69061100a565b61051581610b24565b50565b61052133610b66565b565b6001546001600160a01b031681565b61053b336103af565b6105575760405162461bcd60e51b81526004016103e69061100a565b60405163a9059cbb60e01b81526001600160a01b0383169063a9059cbb906105859033908590600401610e4b565b602060405180830381600087803b15801561059f57600080fd5b505af11580156105b3573d6000803e3d6000fd5b505050506040513d601f19601f820116820180604052508101906104509190610d4e565b6105e0336103af565b6105fc5760405162461bcd60e51b81526004016103e69061100a565b600180546001600160a01b0319166001600160a01b0392909216919091179055565b600154604051630d47875d60e41b81526000916001600160a01b03169063d47875d09061064f903390600401610e37565b60206040518083038186803b15801561066757600080fd5b505afa15801561067b573d6000803e3d6000fd5b505050506040513d601f19601f8201168201806040525081019061069f9190610db1565b905090565b60018060009054906101000a90046001600160a01b03166001600160a01b0316634fead19a6040518163ffffffff1660e01b815260040160206040518083038186803b1580156106f357600080fd5b505afa158015610707573d6000803e3d6000fd5b505050506040513d601f19601f8201168201806040525081019061072b9190610db1565b03821415610755576003543410156107555760405162461bcd60e51b81526004016103e690610f34565b6107608282336108fd565b5050565b61076d336103af565b6107895760405162461bcd60e51b81526004016103e69061100a565b604051339082156108fc029083906000818181858888f19350505050158015610760573d6000803e3d6000fd5b600154604051639e49319960e01b81526000916001600160a01b031690639e493199906107e9908590339060040161108e565b60206040518083038186803b15801561080157600080fd5b505afa158015610815573d6000803e3d6000fd5b505050506040513d601f19601f820116820180604052508101906103bb9190610db1565b610842336103af565b61085e5760405162461bcd60e51b81526004016103e69061100a565b600355565b60035481565b61087382826108b5565b156108905760405162461bcd60e51b81526004016103e690610efd565b6001600160a01b0316600090815260209190915260409020805460ff19166001179055565b60006001600160a01b0382166108dd5760405162461bcd60e51b81526004016103e690610fc8565b506001600160a01b03166000908152602091909152604090205460ff1690565b82158061098e5750600154604051634fe39b4160e01b81526001600160a01b0390911690634fe39b419061093b90600019870190859060040161108e565b60206040518083038186803b15801561095357600080fd5b505afa158015610967573d6000803e3d6000fd5b505050506040513d601f19601f8201168201806040525081019061098b9190610db1565b15155b6109aa5760405162461bcd60e51b81526004016103e690611058565b600154604051639e49319960e01b81526000916001600160a01b031690639e493199906109dd908790869060040161108e565b60206040518083038186803b1580156109f557600080fd5b505afa158015610a09573d6000803e3d6000fd5b505050506040513d601f19601f82011682018060405250810190610a2d9190610db1565b90508015610a5457828111610a545760405162461bcd60e51b81526004016103e690610fa3565b60015460405163797752e360e01b81526001600160a01b039091169063797752e390610a88908790879087906004016110a5565b600060405180830381600087803b158015610aa257600080fd5b505af1158015610ab6573d6000803e3d6000fd5b5050600254604051637ce2bc4960e01b81526001600160a01b039091169250637ce2bc499150610aec908790869060040161108e565b600060405180830381600087803b158015610b0657600080fd5b505af1158015610b1a573d6000803e3d6000fd5b5050505050505050565b610b2f600082610869565b6040516001600160a01b038216907f44d6d25963f097ad14f29f06854a01f575648a1ef82f30e562ccd3889717e33990600090a250565b610b71600082610ba8565b6040516001600160a01b038216907fa3b62bc36326052d97ea62d63c3d60308ed4c3ea8ac079dd8499f1e9c4f80c0f90600090a250565b610bb282826108b5565b610bce5760405162461bcd60e51b81526004016103e690610f62565b6001600160a01b0316600090815260209190915260409020805460ff19169055565b80516103bb8161110b565b600082601f830112610c0b578081fd5b8151610c1e610c19826110eb565b6110c4565b818152915060208083019084810181840286018201871015610c3f57600080fd5b60005b84811015610c5e57815184529282019290820190600101610c42565b505050505092915050565b600060208284031215610c7a578081fd5b8135610c858161110b565b9392505050565b60008060408385031215610c9e578081fd5b825167ffffffffffffffff80821115610cb5578283fd5b818501915085601f830112610cc8578283fd5b8151610cd6610c19826110eb565b80828252602080830192508086018a828387028901011115610cf6578788fd5b8796505b84871015610d2057610d0c8b82610bf0565b845260019690960195928101928101610cfa565b508801519096509350505080821115610d37578283fd5b50610d4485828601610bfb565b9150509250929050565b600060208284031215610d5f578081fd5b81518015158114610c85578182fd5b60008060408385031215610d80578182fd5b8235610d8b8161110b565b946020939093013593505050565b600060208284031215610daa578081fd5b5035919050565b600060208284031215610dc2578081fd5b5051919050565b60008060408385031215610ddb578182fd5b50508035926020909101359150565b600080600060608486031215610dfe578081fd5b83359250602084013591506040840135610e178161110b565b809150509250925092565b815260200190565b6001600160a01b03169052565b6001600160a01b0391909116815260200190565b6001600160a01b03929092168252602082015260400190565b604080825283519082018190526000906020906060840190828701845b82811015610ea457610e94848351610e2a565b9284019290840190600101610e81565b50505083810382850152808551610ebb8184611085565b91508387019250845b81811015610ee557610ed7838551610e22565b938501939250600101610ec4565b5090979650505050505050565b901515815260200190565b6020808252601f908201527f526f6c65733a206163636f756e7420616c72656164792068617320726f6c6500604082015260600190565b602080825260149082015273636f6e747269627574696f6e5f746f6f5f6c6f7760601b604082015260600190565b60208082526021908201527f526f6c65733a206163636f756e7420646f6573206e6f74206861766520726f6c6040820152606560f81b606082015260800190565b6020808252600b908201526a39b1b7b932afb637bbb2b960a91b604082015260600190565b60208082526022908201527f526f6c65733a206163636f756e7420697320746865207a65726f206164647265604082015261737360f01b606082015260800190565b6020808252602e908201527f41646d696e526f6c653a2063616c6c657220646f6573206e6f7420686176652060408201526d7468652041646d696e20726f6c6560901b606082015260800190565b602080825260139082015272696e76616c69645f706c617965725f6461746160681b604082015260600190565b90815260200190565b9182526001600160a01b0316602082015260400190565b92835260208301919091526001600160a01b0316604082015260600190565b60405181810167ffffffffffffffff811182821017156110e357600080fd5b604052919050565b600067ffffffffffffffff821115611101578081fd5b5060209081020190565b6001600160a01b038116811461051557600080fdfea2646970667358221220d54ba2c71c4543226f94bbdeb8191c279b0163dbffe6d191af7f16e4c49f4f6d64736f6c634300060c0033",
  "immutableReferences": {},
  "source": "// SPDX-License-Identifier: UNLICENSED\npragma solidity ^0.6.12;\npragma experimental ABIEncoderV2;\n\nimport \"./openzeppelin/SafeMath.sol\";\nimport \"./openzeppelin/IERC20.sol\";\n\nimport \"./AdminRole.sol\";\nimport \"./GoldenAnanasScore.sol\";\nimport \"./GoldenAnanasRank.sol\";\n\ncontract GoldenAnanas is AdminRole {\n\n  using SafeMath for uint;\n\n  GoldenAnanasScore public goldenAnanasScore;\n  GoldenAnanasRank public goldenAnanasRank;\n  uint256 public minContrib;\n\n  constructor(\n    GoldenAnanasScore _goldenAnanasScore,\n    GoldenAnanasRank _goldenAnanasRank,\n    uint256 _minContrib\n  ) public {\n\n    goldenAnanasScore = _goldenAnanasScore;\n    goldenAnanasRank = _goldenAnanasRank;\n    minContrib = _minContrib;\n\n  }\n\n  function setMinContrib(uint256 _minContrib) public onlyAdmin {\n\n    minContrib = _minContrib;\n\n  }\n\n  function setGoldenAnanasScore(GoldenAnanasScore _goldenAnanasScore) public onlyAdmin {\n\n    goldenAnanasScore = _goldenAnanasScore;\n\n  }\n\n  function setGoldenAnanasRank(GoldenAnanasRank _goldenAnanasRank) public onlyAdmin {\n\n    goldenAnanasRank = _goldenAnanasRank;\n\n  }\n\n  function _setScoreFor(uint256 _level, uint256 _scoreLevel, address _player) private {\n\n    require(_level == 0 || goldenAnanasScore.scoreByLevel(_level -1, _player) != 0, \"invalid_player_data\");\n\n    uint256 prevScore = goldenAnanasScore.getScoreByLevel(_level, _player);\n\n    if(prevScore != 0){\n\n      require(prevScore > _scoreLevel, \"score_lower\");\n\n    }\n\n    goldenAnanasScore.setScore(_level, _scoreLevel, _player);\n    goldenAnanasRank.updateAllRanks(_level, _player);\n\n  }\n\n  function setScoreFor(uint256 _level, uint256 _scoreLevel, address _player) public onlyAdmin {\n\n    _setScoreFor(_level, _scoreLevel, _player);\n\n  }\n\n  function setScore(uint256 _level, uint256 _scoreLevel) public payable {\n\n    if(_level == goldenAnanasScore.countLevels() - 1){\n\n      require(msg.value >= minContrib, \"contribution_too_low\");\n\n    }\n\n    _setScoreFor(_level, _scoreLevel, msg.sender);\n\n  }\n\n  function getScore() public view returns (uint256){\n\n    return goldenAnanasScore.getScore(msg.sender);\n\n  }\n\n  function getScoreByLevel(uint256 _level) public view returns (uint256){\n\n    return goldenAnanasScore.getScoreByLevel(_level, msg.sender);\n\n  }\n\n  function getRanks() public view returns (address[] memory, uint256[] memory){\n\n    return goldenAnanasRank.getRanks();\n\n  }\n\n  function getRanksByLevel(uint256 _level) public view returns (address[] memory, uint256[] memory){\n\n    return goldenAnanasRank.getRanksByLevel(_level);\n\n  }\n\n  function withdrawToken(IERC20 _token, uint256 _value) onlyAdmin public {\n\n    _token.transfer(msg.sender, _value);\n\n  }\n\n  function withdrawEth(uint256 _value) onlyAdmin public {\n\n    msg.sender.transfer(_value);\n\n  }\n\n  fallback() external payable {}\n\n  receive() external payable {}\n\n}\n",
  "sourcePath": "/Users/jules/WebstormProjects/decentraland/goldananasContract/contracts/GoldenAnanas.sol",
  "compiler": {
    "name": "solc",
    "version": "0.6.12+commit.27d51765.Emscripten.clang"
  },
  "schemaVersion": "3.2.4",
  "updatedAt": "2020-08-31T09:31:47.429Z",
  "networkType": "ethereum",
  "devdoc": {
    "kind": "dev",
    "methods": {},
    "version": 1
  },
  "userdoc": {
    "kind": "user",
    "methods": {},
    "version": 1
  }
}