{
  "contractName": "GoldenAnanasScore",
  "abi": [
    {
      "inputs": [
        {
          "internalType": "uint256",
          "name": "_countLevels",
          "type": "uint256"
        },
        {
          "internalType": "uint256",
          "name": "_scoreBase",
          "type": "uint256"
        }
      ],
      "stateMutability": "nonpayable",
      "type": "constructor"
    },
    {
      "anonymous": false,
      "inputs": [
        {
          "indexed": true,
          "internalType": "address",
          "name": "account",
          "type": "address"
        }
      ],
      "name": "AdminAdded",
      "type": "event"
    },
    {
      "anonymous": false,
      "inputs": [
        {
          "indexed": true,
          "internalType": "address",
          "name": "account",
          "type": "address"
        }
      ],
      "name": "AdminRemoved",
      "type": "event"
    },
    {
      "anonymous": false,
      "inputs": [
        {
          "indexed": true,
          "internalType": "address",
          "name": "account",
          "type": "address"
        }
      ],
      "name": "ExecutorAdded",
      "type": "event"
    },
    {
      "anonymous": false,
      "inputs": [
        {
          "indexed": true,
          "internalType": "address",
          "name": "account",
          "type": "address"
        }
      ],
      "name": "ExecutorRemoved",
      "type": "event"
    },
    {
      "inputs": [
        {
          "internalType": "address",
          "name": "account",
          "type": "address"
        }
      ],
      "name": "addAdmin",
      "outputs": [],
      "stateMutability": "nonpayable",
      "type": "function"
    },
    {
      "inputs": [
        {
          "internalType": "address",
          "name": "account",
          "type": "address"
        }
      ],
      "name": "addExecutor",
      "outputs": [],
      "stateMutability": "nonpayable",
      "type": "function"
    },
    {
      "inputs": [],
      "name": "countLevels",
      "outputs": [
        {
          "internalType": "uint256",
          "name": "",
          "type": "uint256"
        }
      ],
      "stateMutability": "view",
      "type": "function",
      "constant": true
    },
    {
      "inputs": [
        {
          "internalType": "address",
          "name": "account",
          "type": "address"
        }
      ],
      "name": "isAdmin",
      "outputs": [
        {
          "internalType": "bool",
          "name": "",
          "type": "bool"
        }
      ],
      "stateMutability": "view",
      "type": "function",
      "constant": true
    },
    {
      "inputs": [
        {
          "internalType": "address",
          "name": "account",
          "type": "address"
        }
      ],
      "name": "isExecutor",
      "outputs": [
        {
          "internalType": "bool",
          "name": "",
          "type": "bool"
        }
      ],
      "stateMutability": "view",
      "type": "function",
      "constant": true
    },
    {
      "inputs": [],
      "name": "renounceAdmin",
      "outputs": [],
      "stateMutability": "nonpayable",
      "type": "function"
    },
    {
      "inputs": [],
      "name": "renounceExecutor",
      "outputs": [],
      "stateMutability": "nonpayable",
      "type": "function"
    },
    {
      "inputs": [
        {
          "internalType": "address",
          "name": "",
          "type": "address"
        }
      ],
      "name": "score",
      "outputs": [
        {
          "internalType": "uint256",
          "name": "",
          "type": "uint256"
        }
      ],
      "stateMutability": "view",
      "type": "function",
      "constant": true
    },
    {
      "inputs": [],
      "name": "scoreBase",
      "outputs": [
        {
          "internalType": "uint256",
          "name": "",
          "type": "uint256"
        }
      ],
      "stateMutability": "view",
      "type": "function",
      "constant": true
    },
    {
      "inputs": [
        {
          "internalType": "uint256",
          "name": "",
          "type": "uint256"
        },
        {
          "internalType": "address",
          "name": "",
          "type": "address"
        }
      ],
      "name": "scoreByLevel",
      "outputs": [
        {
          "internalType": "uint256",
          "name": "",
          "type": "uint256"
        }
      ],
      "stateMutability": "view",
      "type": "function",
      "constant": true
    },
    {
      "inputs": [],
      "name": "addLevel",
      "outputs": [
        {
          "internalType": "bool",
          "name": "",
          "type": "bool"
        }
      ],
      "stateMutability": "nonpayable",
      "type": "function"
    },
    {
      "inputs": [
        {
          "internalType": "uint256",
          "name": "_level",
          "type": "uint256"
        },
        {
          "internalType": "uint256",
          "name": "_score",
          "type": "uint256"
        },
        {
          "internalType": "address",
          "name": "_player",
          "type": "address"
        }
      ],
      "name": "setScore",
      "outputs": [],
      "stateMutability": "nonpayable",
      "type": "function"
    },
    {
      "inputs": [
        {
          "internalType": "uint256",
          "name": "_level",
          "type": "uint256"
        },
        {
          "internalType": "address",
          "name": "_player",
          "type": "address"
        }
      ],
      "name": "getScoreByLevel",
      "outputs": [
        {
          "internalType": "uint256",
          "name": "",
          "type": "uint256"
        }
      ],
      "stateMutability": "view",
      "type": "function",
      "constant": true
    },
    {
      "inputs": [
        {
          "internalType": "address",
          "name": "_player",
          "type": "address"
        }
      ],
      "name": "getScore",
      "outputs": [
        {
          "internalType": "uint256",
          "name": "",
          "type": "uint256"
        }
      ],
      "stateMutability": "view",
      "type": "function",
      "constant": true
    }
  ],
  "bytecode": "0x608060405234801561001057600080fd5b50604051610c7c380380610c7c83398101604081905261002f9161018a565b6100383361004f565b6100413361009e565b600591909155600455610226565b6100678160006100ed60201b6104aa1790919060201c565b6040516001600160a01b038216907fae5b7c3b000f575c241001dc9bcb3d8778376889353b07121115574eceff78c590600090a250565b6100b68160016100ed60201b6104aa1790919060201c565b6040516001600160a01b038216907f44d6d25963f097ad14f29f06854a01f575648a1ef82f30e562ccd3889717e33990600090a250565b6100f78282610142565b1561011d5760405162461bcd60e51b8152600401610114906101ad565b60405180910390fd5b6001600160a01b0316600090815260209190915260409020805460ff19166001179055565b60006001600160a01b03821661016a5760405162461bcd60e51b8152600401610114906101e4565b506001600160a01b03166000908152602091909152604090205460ff1690565b6000806040838503121561019c578182fd5b505080516020909101519092909150565b6020808252601f908201527f526f6c65733a206163636f756e7420616c72656164792068617320726f6c6500604082015260600190565b60208082526022908201527f526f6c65733a206163636f756e7420697320746865207a65726f206164647265604082015261737360f01b606082015260800190565b610a47806102356000396000f3fe608060405234801561001057600080fd5b50600436106100ea5760003560e01c8063704802751161008c5780638bad0c0a116100665780638bad0c0a146101a65780639e493199146101ae578063d47875d0146101c1578063debfda30146101d4576100ea565b8063704802751461016d578063776f384314610180578063797752e314610193576100ea565b80634fe39b41116100c85780634fe39b41146101425780634fead19a14610155578063631dd3531461015d5780636cc9aad014610165576100ea565b806301fb06e5146100ef5780631f5a0bbe1461010d57806324d7806c14610122575b600080fd5b6100f76101e7565b6040516101049190610a08565b60405180910390f35b61012061011b36600461073f565b6101ed565b005b61013561013036600461073f565b610227565b60405161010491906107c9565b6100f761015036600461075a565b61023a565b6100f7610257565b61013561025d565b61012061029b565b61012061017b36600461073f565b6102a6565b6100f761018e36600461073f565b6102d4565b6101206101a1366004610786565b6102e6565b610120610452565b6100f76101bc36600461075a565b61045b565b6100f76101cf36600461073f565b610483565b6101356101e236600461073f565b61049e565b60045481565b6101f63361049e565b61021b5760405162461bcd60e51b8152600401610212906108d6565b60405180910390fd5b610224816104f6565b50565b6000610234600183610538565b92915050565b600260209081526000928352604080842090915290825290205481565b60055481565b600061026833610227565b6102845760405162461bcd60e51b81526004016102129061096c565b600554610292906001610580565b60055550600190565b6102a4336105ac565b565b6102af33610227565b6102cb5760405162461bcd60e51b81526004016102129061096c565b610224816105ee565b60036020526000908152604090205481565b6102ef3361049e565b61030b5760405162461bcd60e51b8152600401610212906108d6565b811580159061031b575060045482105b6103375760405162461bcd60e51b8152600401610212906109ba565b60055483106103585760405162461bcd60e51b8152600401610212906109e1565b60008381526002602090815260408083206001600160a01b0385168452909152902054156103ed5760008381526002602090815260408083206001600160a01b03851684529091529020546004546103d3916103b49190610630565b6001600160a01b03831660009081526003602052604090205490610630565b6001600160a01b0382166000908152600360205260409020555b60045461041d906103fe9084610630565b6001600160a01b03831660009081526003602052604090205490610580565b6001600160a01b0390911660008181526003602090815260408083209490945594815260028552828120918152935290912055565b6102a433610672565b60009182526002602090815260408084206001600160a01b0393909316845291905290205490565b6001600160a01b031660009081526003602052604090205490565b60006102348183610538565b6104b48282610538565b156104d15760405162461bcd60e51b815260040161021290610827565b6001600160a01b0316600090815260209190915260409020805460ff19166001179055565b6105016000826104aa565b6040516001600160a01b038216907fae5b7c3b000f575c241001dc9bcb3d8778376889353b07121115574eceff78c590600090a250565b60006001600160a01b0382166105605760405162461bcd60e51b81526004016102129061092a565b506001600160a01b03166000908152602091909152604090205460ff1690565b6000828201838110156105a55760405162461bcd60e51b81526004016102129061085e565b9392505050565b6105b76000826106b4565b6040516001600160a01b038216907f4a2cf608bfb427f53279ec7f0eadf48913b9346ccefc3af138dbdec14ea0907d90600090a250565b6105f96001826104aa565b6040516001600160a01b038216907f44d6d25963f097ad14f29f06854a01f575648a1ef82f30e562ccd3889717e33990600090a250565b60006105a583836040518060400160405280601e81526020017f536166654d6174683a207375627472616374696f6e206f766572666c6f7700008152506106fc565b61067d6001826106b4565b6040516001600160a01b038216907fa3b62bc36326052d97ea62d63c3d60308ed4c3ea8ac079dd8499f1e9c4f80c0f90600090a250565b6106be8282610538565b6106da5760405162461bcd60e51b815260040161021290610895565b6001600160a01b0316600090815260209190915260409020805460ff19169055565b600081848411156107205760405162461bcd60e51b815260040161021291906107d4565b505050900390565b80356001600160a01b038116811461023457600080fd5b600060208284031215610750578081fd5b6105a58383610728565b6000806040838503121561076c578081fd5b8235915061077d8460208501610728565b90509250929050565b60008060006060848603121561079a578081fd5b833592506020840135915060408401356001600160a01b03811681146107be578182fd5b809150509250925092565b901515815260200190565b6000602080835283518082850152825b81811015610800578581018301518582016040015282016107e4565b818111156108115783604083870101525b50601f01601f1916929092016040019392505050565b6020808252601f908201527f526f6c65733a206163636f756e7420616c72656164792068617320726f6c6500604082015260600190565b6020808252601b908201527f536166654d6174683a206164646974696f6e206f766572666c6f770000000000604082015260600190565b60208082526021908201527f526f6c65733a206163636f756e7420646f6573206e6f74206861766520726f6c6040820152606560f81b606082015260800190565b60208082526034908201527f4578656375746f72526f6c653a2063616c6c657220646f6573206e6f74206861604082015273766520746865204578656375746f7220726f6c6560601b606082015260800190565b60208082526022908201527f526f6c65733a206163636f756e7420697320746865207a65726f206164647265604082015261737360f01b606082015260800190565b6020808252602e908201527f41646d696e526f6c653a2063616c6c657220646f6573206e6f7420686176652060408201526d7468652041646d696e20726f6c6560901b606082015260800190565b6020808252600d908201526c696e76616c69645f73636f726560981b604082015260600190565b6020808252600d908201526c1a5b9d985b1a5917db195d995b609a1b604082015260600190565b9081526020019056fea2646970667358221220a5e83b75c97d5edb10766194c582b045ef1331eda970319221e445034990463064736f6c634300060c0033",
  "immutableReferences": {},
  "source": "// SPDX-License-Identifier: UNLICENSED\npragma solidity ^0.6.12;\npragma experimental ABIEncoderV2;\n\nimport \"./openzeppelin/SafeMath.sol\";\nimport \"./openzeppelin/IERC20.sol\";\nimport \"./Executor.sol\";\nimport \"./AdminRole.sol\";\n\ncontract GoldenAnanasScore is ExecutorRole, AdminRole {\n\n  using SafeMath for uint;\n\n  mapping(uint256 => mapping(address => uint256) ) public scoreByLevel;\n  mapping(address => uint256) public score;\n  uint256 public scoreBase;\n\n  uint256 public countLevels;\n\n  constructor(\n    uint256 _countLevels,\n    uint256 _scoreBase\n  ) public {\n\n    countLevels = _countLevels;\n    scoreBase = _scoreBase;\n\n  }\n\n  function addLevel() public onlyAdmin returns(bool){\n\n    countLevels = countLevels.add(1);\n\n    return true;\n\n  }\n\n  function setScore(uint256 _level, uint256 _score, address _player) public onlyExecutor {\n\n    require(_score != 0 && _score < scoreBase, \"invalid_score\");\n    require(_level < countLevels, \"invalid_level\");\n\n    if(scoreByLevel[_level][_player] != 0){\n\n      score[_player] = score[_player].sub(scoreBase.sub(scoreByLevel[_level][_player]) );\n\n    }\n\n    score[_player] = score[_player].add(scoreBase.sub(_score) );\n    scoreByLevel[_level][_player] = _score;\n\n  }\n\n  function getScoreByLevel(uint256 _level, address _player) public view returns (uint256){\n\n    return scoreByLevel[_level][_player];\n\n  }\n\n  function getScore(address _player) public view returns (uint256){\n\n    return score[_player];\n\n  }\n\n}\n",
  "sourcePath": "/Users/jules/WebstormProjects/decentraland/goldananasContract/contracts/GoldenAnanasScore.sol",
  "compiler": {
    "name": "solc",
    "version": "0.6.12+commit.27d51765.Emscripten.clang"
  },
  "schemaVersion": "3.2.4",
  "updatedAt": "2020-08-31T09:31:47.415Z",
  "networkType": "ethereum",
  "devdoc": {
    "kind": "dev",
    "methods": {},
    "version": 1
  },
  "userdoc": {
    "kind": "user",
    "methods": {},
    "version": 1
  }
}