{
  "contractName": "GoldenAnanas",
  "abi": [
    {
      "inputs": [
        {
          "internalType": "contract GoldenAnanasScore",
          "name": "_goldenAnanasScore",
          "type": "address"
        },
        {
          "internalType": "contract GoldenAnanasRank",
          "name": "_goldenAnanasRank",
          "type": "address"
        },
        {
          "internalType": "contract TrophyToken",
          "name": "_trophyToken",
          "type": "address"
        }
      ],
      "stateMutability": "nonpayable",
      "type": "constructor"
    },
    {
      "anonymous": false,
      "inputs": [
        {
          "indexed": true,
          "internalType": "bytes32",
          "name": "role",
          "type": "bytes32"
        },
        {
          "indexed": true,
          "internalType": "bytes32",
          "name": "previousAdminRole",
          "type": "bytes32"
        },
        {
          "indexed": true,
          "internalType": "bytes32",
          "name": "newAdminRole",
          "type": "bytes32"
        }
      ],
      "name": "RoleAdminChanged",
      "type": "event"
    },
    {
      "anonymous": false,
      "inputs": [
        {
          "indexed": true,
          "internalType": "bytes32",
          "name": "role",
          "type": "bytes32"
        },
        {
          "indexed": true,
          "internalType": "address",
          "name": "account",
          "type": "address"
        },
        {
          "indexed": true,
          "internalType": "address",
          "name": "sender",
          "type": "address"
        }
      ],
      "name": "RoleGranted",
      "type": "event"
    },
    {
      "anonymous": false,
      "inputs": [
        {
          "indexed": true,
          "internalType": "bytes32",
          "name": "role",
          "type": "bytes32"
        },
        {
          "indexed": true,
          "internalType": "address",
          "name": "account",
          "type": "address"
        },
        {
          "indexed": true,
          "internalType": "address",
          "name": "sender",
          "type": "address"
        }
      ],
      "name": "RoleRevoked",
      "type": "event"
    },
    {
      "inputs": [],
      "name": "DEFAULT_ADMIN_ROLE",
      "outputs": [
        {
          "internalType": "bytes32",
          "name": "",
          "type": "bytes32"
        }
      ],
      "stateMutability": "view",
      "type": "function",
      "constant": true
    },
    {
      "inputs": [
        {
          "internalType": "bytes32",
          "name": "role",
          "type": "bytes32"
        }
      ],
      "name": "getRoleAdmin",
      "outputs": [
        {
          "internalType": "bytes32",
          "name": "",
          "type": "bytes32"
        }
      ],
      "stateMutability": "view",
      "type": "function",
      "constant": true
    },
    {
      "inputs": [
        {
          "internalType": "bytes32",
          "name": "role",
          "type": "bytes32"
        },
        {
          "internalType": "uint256",
          "name": "index",
          "type": "uint256"
        }
      ],
      "name": "getRoleMember",
      "outputs": [
        {
          "internalType": "address",
          "name": "",
          "type": "address"
        }
      ],
      "stateMutability": "view",
      "type": "function",
      "constant": true
    },
    {
      "inputs": [
        {
          "internalType": "bytes32",
          "name": "role",
          "type": "bytes32"
        }
      ],
      "name": "getRoleMemberCount",
      "outputs": [
        {
          "internalType": "uint256",
          "name": "",
          "type": "uint256"
        }
      ],
      "stateMutability": "view",
      "type": "function",
      "constant": true
    },
    {
      "inputs": [],
      "name": "goldenAnanasRank",
      "outputs": [
        {
          "internalType": "contract GoldenAnanasRank",
          "name": "",
          "type": "address"
        }
      ],
      "stateMutability": "view",
      "type": "function",
      "constant": true
    },
    {
      "inputs": [],
      "name": "goldenAnanasScore",
      "outputs": [
        {
          "internalType": "contract GoldenAnanasScore",
          "name": "",
          "type": "address"
        }
      ],
      "stateMutability": "view",
      "type": "function",
      "constant": true
    },
    {
      "inputs": [
        {
          "internalType": "bytes32",
          "name": "role",
          "type": "bytes32"
        },
        {
          "internalType": "address",
          "name": "account",
          "type": "address"
        }
      ],
      "name": "grantRole",
      "outputs": [],
      "stateMutability": "nonpayable",
      "type": "function"
    },
    {
      "inputs": [
        {
          "internalType": "bytes32",
          "name": "role",
          "type": "bytes32"
        },
        {
          "internalType": "address",
          "name": "account",
          "type": "address"
        }
      ],
      "name": "hasRole",
      "outputs": [
        {
          "internalType": "bool",
          "name": "",
          "type": "bool"
        }
      ],
      "stateMutability": "view",
      "type": "function",
      "constant": true
    },
    {
      "inputs": [
        {
          "internalType": "bytes32",
          "name": "role",
          "type": "bytes32"
        },
        {
          "internalType": "address",
          "name": "account",
          "type": "address"
        }
      ],
      "name": "renounceRole",
      "outputs": [],
      "stateMutability": "nonpayable",
      "type": "function"
    },
    {
      "inputs": [
        {
          "internalType": "bytes32",
          "name": "role",
          "type": "bytes32"
        },
        {
          "internalType": "address",
          "name": "account",
          "type": "address"
        }
      ],
      "name": "revokeRole",
      "outputs": [],
      "stateMutability": "nonpayable",
      "type": "function"
    },
    {
      "inputs": [],
      "name": "trophyToken",
      "outputs": [
        {
          "internalType": "contract TrophyToken",
          "name": "",
          "type": "address"
        }
      ],
      "stateMutability": "view",
      "type": "function",
      "constant": true
    },
    {
      "stateMutability": "payable",
      "type": "receive",
      "payable": true
    },
    {
      "inputs": [],
      "name": "getScore",
      "outputs": [
        {
          "internalType": "uint256",
          "name": "",
          "type": "uint256"
        }
      ],
      "stateMutability": "view",
      "type": "function",
      "constant": true
    },
    {
      "inputs": [
        {
          "internalType": "uint256",
          "name": "_level",
          "type": "uint256"
        }
      ],
      "name": "getScoreByLevel",
      "outputs": [
        {
          "internalType": "uint256",
          "name": "",
          "type": "uint256"
        }
      ],
      "stateMutability": "view",
      "type": "function",
      "constant": true
    },
    {
      "inputs": [],
      "name": "getRanks",
      "outputs": [
        {
          "internalType": "address[]",
          "name": "",
          "type": "address[]"
        },
        {
          "internalType": "uint256[]",
          "name": "",
          "type": "uint256[]"
        }
      ],
      "stateMutability": "view",
      "type": "function",
      "constant": true
    },
    {
      "inputs": [
        {
          "internalType": "uint256",
          "name": "_level",
          "type": "uint256"
        }
      ],
      "name": "getRanksByLevel",
      "outputs": [
        {
          "internalType": "address[]",
          "name": "",
          "type": "address[]"
        },
        {
          "internalType": "uint256[]",
          "name": "",
          "type": "uint256[]"
        }
      ],
      "stateMutability": "view",
      "type": "function",
      "constant": true
    },
    {
      "inputs": [
        {
          "internalType": "uint256",
          "name": "_level",
          "type": "uint256"
        },
        {
          "internalType": "uint256",
          "name": "_scoreLevel",
          "type": "uint256"
        }
      ],
      "name": "setScore",
      "outputs": [],
      "stateMutability": "nonpayable",
      "type": "function"
    },
    {
      "inputs": [
        {
          "internalType": "uint256[]",
          "name": "_level",
          "type": "uint256[]"
        },
        {
          "internalType": "uint256[]",
          "name": "_scoreLevel",
          "type": "uint256[]"
        }
      ],
      "name": "batchSetScore",
      "outputs": [],
      "stateMutability": "nonpayable",
      "type": "function"
    },
    {
      "inputs": [
        {
          "internalType": "uint256",
          "name": "_level",
          "type": "uint256"
        },
        {
          "internalType": "uint256",
          "name": "_scoreLevel",
          "type": "uint256"
        },
        {
          "internalType": "address",
          "name": "_player",
          "type": "address"
        }
      ],
      "name": "setScoreFor",
      "outputs": [],
      "stateMutability": "nonpayable",
      "type": "function"
    },
    {
      "inputs": [
        {
          "internalType": "contract GoldenAnanasScore",
          "name": "_goldenAnanasScore",
          "type": "address"
        }
      ],
      "name": "setGoldenAnanasScore",
      "outputs": [],
      "stateMutability": "nonpayable",
      "type": "function"
    },
    {
      "inputs": [
        {
          "internalType": "contract GoldenAnanasRank",
          "name": "_goldenAnanasRank",
          "type": "address"
        }
      ],
      "name": "setGoldenAnanasRank",
      "outputs": [],
      "stateMutability": "nonpayable",
      "type": "function"
    },
    {
      "inputs": [
        {
          "internalType": "contract TrophyToken",
          "name": "_trophyToken",
          "type": "address"
        }
      ],
      "name": "setTrophyToken",
      "outputs": [],
      "stateMutability": "nonpayable",
      "type": "function"
    },
    {
      "inputs": [
        {
          "internalType": "contract IERC20",
          "name": "_token",
          "type": "address"
        },
        {
          "internalType": "uint256",
          "name": "_value",
          "type": "uint256"
        }
      ],
      "name": "withdrawToken",
      "outputs": [],
      "stateMutability": "nonpayable",
      "type": "function"
    }
  ],
  "bytecode": "0x60806040523480156200001157600080fd5b50604051620018593803806200185983398101604081905262000034916200019b565b600180546001600160a01b038086166001600160a01b0319928316179092556002805485841690831617905560038054928416929091169190911790556200007e60003362000087565b50505062000207565b62000093828262000097565b5050565b600082815260208181526040909120620000bc91839062000b5562000110821b17901c565b156200009357620000cc62000130565b6001600160a01b0316816001600160a01b0316837f2f8788117e7eff1d82e926ec794901d17c78024a50270940304540a733656f0d60405160405180910390a45050565b600062000127836001600160a01b03841662000134565b90505b92915050565b3390565b600062000142838362000183565b6200017a575081546001818101845560008481526020808220909301849055845484825282860190935260409020919091556200012a565b5060006200012a565b60009081526001919091016020526040902054151590565b600080600060608486031215620001b0578283fd5b8351620001bd81620001ee565b6020850151909350620001d081620001ee565b6040850151909250620001e381620001ee565b809150509250925092565b6001600160a01b03811681146200020457600080fd5b50565b61164280620002176000396000f3fe6080604052600436106101395760003560e01c80638c0ae547116100ab578063aafa5a071161006f578063aafa5a071461036d578063afd820671461038d578063b276fa0a146103a2578063ca15c873146103c2578063ce958ba2146103e2578063d547741f146104025761015f565b80638c0ae547146102d65780639010d07c146102eb57806391d148541461030b5780639e281a9814610338578063a217fddf146103585761015f565b806336568abe116100fd57806336568abe1461022157806348e4af0814610241578063598d632d146102615780636173fb381461027657806378eaaf18146102965780638662e8a1146102b65761015f565b806304867ecc14610164578063248a9ca314610190578063285450c8146101bd5780632e65e8b4146101df5780632f2ff15d146102015761015f565b3661015f5760405162461bcd60e51b8152600401610156906113d4565b60405180910390fd5b600080fd5b34801561017057600080fd5b50610179610422565b6040516101879291906112f0565b60405180910390f35b34801561019c57600080fd5b506101b06101ab36600461118b565b6104b7565b6040516101879190611389565b3480156101c957600080fd5b506101dd6101d83660046111f3565b6104cc565b005b3480156101eb57600080fd5b506101f4610515565b604051610187919061129f565b34801561020d57600080fd5b506101dd61021c3660046111a3565b610524565b34801561022d57600080fd5b506101dd61023c3660046111a3565b61056c565b34801561024d57600080fd5b506101dd61025c366004611252565b6105ae565b34801561026d57600080fd5b506101f4610649565b34801561028257600080fd5b5061017961029136600461118b565b610658565b3480156102a257600080fd5b506101dd6102b13660046111f3565b6106ea565b3480156102c257600080fd5b506101dd6102d136600461110d565b610733565b3480156102e257600080fd5b506101f461089b565b3480156102f757600080fd5b506101f46103063660046111d2565b6108aa565b34801561031757600080fd5b5061032b6103263660046111a3565b6108cb565b604051610187919061137e565b34801561034457600080fd5b506101dd61035336600461120f565b6108e3565b34801561036457600080fd5b506101b061093a565b34801561037957600080fd5b506101dd6103883660046111f3565b61093f565b34801561039957600080fd5b506101b0610988565b3480156103ae57600080fd5b506101dd6103bd3660046111d2565b610a0e565b3480156103ce57600080fd5b506101b06103dd36600461118b565b610a81565b3480156103ee57600080fd5b506101b06103fd36600461118b565b610a98565b34801561040e57600080fd5b506101dd61041d3660046111a3565b610b1b565b606080600260009054906101000a90046001600160a01b03166001600160a01b03166304867ecc6040518163ffffffff1660e01b815260040160006040518083038186803b15801561047357600080fd5b505afa158015610487573d6000803e3d6000fd5b505050506040513d6000823e601f3d908101601f191682016040526104af919081019061104b565b915091509091565b60009081526020819052604090206002015490565b6104d76000336108cb565b6104f35760405162461bcd60e51b815260040161015690611458565b600280546001600160a01b0319166001600160a01b0392909216919091179055565b6002546001600160a01b031681565b60008281526020819052604090206002015461054290610326610b6a565b61055e5760405162461bcd60e51b815260040161015690611409565b6105688282610b6e565b5050565b610574610b6a565b6001600160a01b0316816001600160a01b0316146105a45760405162461bcd60e51b815260040161015690611528565b6105688282610bd7565b6105b96000336108cb565b6105d55760405162461bcd60e51b815260040161015690611458565b6105e0838383610c40565b600254604051637ce2bc4960e01b81526001600160a01b0390911690637ce2bc49906106129086908590600401611577565b600060405180830381600087803b15801561062c57600080fd5b505af1158015610640573d6000803e3d6000fd5b50505050505050565b6003546001600160a01b031681565b600254604051630c2e7f6760e31b815260609182916001600160a01b0390911690636173fb389061068d908690600401611389565b60006040518083038186803b1580156106a557600080fd5b505afa1580156106b9573d6000803e3d6000fd5b505050506040513d6000823e601f3d908101601f191682016040526106e1919081019061104b565b91509150915091565b6106f56000336108cb565b6107115760405162461bcd60e51b815260040161015690611458565b600380546001600160a01b0319166001600160a01b0392909216919091179055565b60005b82518110156108145761077083828151811061074e57fe5b602002602001015183838151811061076257fe5b602002602001015133610c40565b60025483516001600160a01b0390911690639a0ae6e29085908490811061079357fe5b6020026020010151336040518363ffffffff1660e01b81526004016107b9929190611577565b602060405180830381600087803b1580156107d357600080fd5b505af11580156107e7573d6000803e3d6000fd5b505050506040513d601f19601f8201168201806040525081019061080b9190611164565b50600101610736565b5060025460405162a1b6e760e31b81526001600160a01b039091169063050db7389061084490339060040161129f565b602060405180830381600087803b15801561085e57600080fd5b505af1158015610872573d6000803e3d6000fd5b505050506040513d601f19601f820116820180604052508101906108969190611164565b505050565b6001546001600160a01b031681565b60008281526020819052604081206108c29083610dc2565b90505b92915050565b60008281526020819052604081206108c29083610dce565b6108ee6000336108cb565b61090a5760405162461bcd60e51b815260040161015690611458565b6040516323b872dd60e01b81526001600160a01b038316906323b872dd90610844903090339086906004016112b3565b600081565b61094a6000336108cb565b6109665760405162461bcd60e51b815260040161015690611458565b600180546001600160a01b0319166001600160a01b0392909216919091179055565b600154604051630d47875d60e41b81526000916001600160a01b03169063d47875d0906109b990339060040161129f565b60206040518083038186803b1580156109d157600080fd5b505afa1580156109e5573d6000803e3d6000fd5b505050506040513d601f19601f82011682018060405250810190610a09919061123a565b905090565b610a19828233610c40565b600254604051637ce2bc4960e01b81526001600160a01b0390911690637ce2bc4990610a4b9085903390600401611577565b600060405180830381600087803b158015610a6557600080fd5b505af1158015610a79573d6000803e3d6000fd5b505050505050565b60008181526020819052604081206108c590610de3565b600154604051639e49319960e01b81526000916001600160a01b031690639e49319990610acb9085903390600401611577565b60206040518083038186803b158015610ae357600080fd5b505afa158015610af7573d6000803e3d6000fd5b505050506040513d601f19601f820116820180604052508101906108c5919061123a565b600082815260208190526040902060020154610b3990610326610b6a565b6105a45760405162461bcd60e51b8152600401610156906114d8565b60006108c2836001600160a01b038416610dee565b3390565b6000828152602081905260409020610b869082610b55565b1561056857610b93610b6a565b6001600160a01b0316816001600160a01b0316837f2f8788117e7eff1d82e926ec794901d17c78024a50270940304540a733656f0d60405160405180910390a45050565b6000828152602081905260409020610bef9082610e38565b1561056857610bfc610b6a565b6001600160a01b0316816001600160a01b0316837ff6391f5c32d9c69d2a47ea670b442974b53935d1edc7fd64eb21e047a839171b60405160405180910390a45050565b600154604051639e49319960e01b81526000916001600160a01b031690639e49319990610c739087908690600401611577565b60206040518083038186803b158015610c8b57600080fd5b505afa158015610c9f573d6000803e3d6000fd5b505050506040513d601f19601f82011682018060405250810190610cc3919061123a565b905080610d37576003546040516340c10f1960e01b81526001600160a01b03918216916340c10f1991610d009186919082168901906004016112d7565b600060405180830381600087803b158015610d1a57600080fd5b505af1158015610d2e573d6000803e3d6000fd5b50505050610d56565b828111610d565760405162461bcd60e51b8152600401610156906114a1565b60015460405163797752e360e01b81526001600160a01b039091169063797752e390610d8a9087908790879060040161158e565b600060405180830381600087803b158015610da457600080fd5b505af1158015610db8573d6000803e3d6000fd5b5050505050505050565b60006108c28383610e4d565b60006108c2836001600160a01b038416610e92565b60006108c582610eaa565b6000610dfa8383610e92565b610e30575081546001818101845560008481526020808220909301849055845484825282860190935260409020919091556108c5565b5060006108c5565b60006108c2836001600160a01b038416610eae565b81546000908210610e705760405162461bcd60e51b815260040161015690611392565b826000018281548110610e7f57fe5b9060005260206000200154905092915050565b60009081526001919091016020526040902054151590565b5490565b60008181526001830160205260408120548015610f6a5783546000198083019190810190600090879083908110610ee157fe5b9060005260206000200154905080876000018481548110610efe57fe5b600091825260208083209091019290925582815260018981019092526040902090840190558654879080610f2e57fe5b600190038181906000526020600020016000905590558660010160008781526020019081526020016000206000905560019450505050506108c5565b60009150506108c5565b80516108c5816115f4565b600082601f830112610f8f578081fd5b8135610fa2610f9d826115d4565b6115ad565b818152915060208083019084810181840286018201871015610fc357600080fd5b60005b84811015610fe257813584529282019290820190600101610fc6565b505050505092915050565b600082601f830112610ffd578081fd5b815161100b610f9d826115d4565b81815291506020808301908481018184028601820187101561102c57600080fd5b60005b84811015610fe25781518452928201929082019060010161102f565b6000806040838503121561105d578182fd5b825167ffffffffffffffff80821115611074578384fd5b818501915085601f830112611087578384fd5b8151611095610f9d826115d4565b80828252602080830192508086018a8283870289010111156110b5578889fd5b8896505b848710156110df576110cb8b82610f74565b8452600196909601959281019281016110b9565b5088015190965093505050808211156110f6578283fd5b5061110385828601610fed565b9150509250929050565b6000806040838503121561111f578182fd5b823567ffffffffffffffff80821115611136578384fd5b61114286838701610f7f565b93506020850135915080821115611157578283fd5b5061110385828601610f7f565b600060208284031215611175578081fd5b81518015158114611184578182fd5b9392505050565b60006020828403121561119c578081fd5b5035919050565b600080604083850312156111b5578182fd5b8235915060208301356111c7816115f4565b809150509250929050565b600080604083850312156111e4578182fd5b50508035926020909101359150565b600060208284031215611204578081fd5b8135611184816115f4565b60008060408385031215611221578182fd5b823561122c816115f4565b946020939093013593505050565b60006020828403121561124b578081fd5b5051919050565b600080600060608486031215611266578081fd5b8335925060208401359150604084013561127f816115f4565b809150509250925092565b815260200190565b6001600160a01b03169052565b6001600160a01b0391909116815260200190565b6001600160a01b039384168152919092166020820152604081019190915260600190565b6001600160a01b03929092168252602082015260400190565b604080825283519082018190526000906020906060840190828701845b8281101561133057611320848351611292565b928401929084019060010161130d565b505050838103828501528085516113478184611389565b91508387019250845b818110156113715761136383855161128a565b938501939250600101611350565b5090979650505050505050565b901515815260200190565b90815260200190565b60208082526022908201527f456e756d657261626c655365743a20696e646578206f7574206f6620626f756e604082015261647360f01b606082015260800190565b6020808252818101527f476f6c64656e416e616e61733a206574686572206e6f74206163636570746564604082015260600190565b6020808252602f908201527f416363657373436f6e74726f6c3a2073656e646572206d75737420626520616e60408201526e0818591b5a5b881d1bc819dc985b9d608a1b606082015260800190565b60208082526029908201527f476f6c64656e416e616e61733a2053656e646572206d75737420686176652061604082015268646d696e20726f6c6560b81b606082015260800190565b60208082526019908201527f476f6c64656e416e616e61733a2073636f7265206c6f77657200000000000000604082015260600190565b60208082526030908201527f416363657373436f6e74726f6c3a2073656e646572206d75737420626520616e60408201526f2061646d696e20746f207265766f6b6560801b606082015260800190565b6020808252602f908201527f416363657373436f6e74726f6c3a2063616e206f6e6c792072656e6f756e636560408201526e103937b632b9903337b91039b2b63360891b606082015260800190565b9182526001600160a01b0316602082015260400190565b92835260208301919091526001600160a01b0316604082015260600190565b60405181810167ffffffffffffffff811182821017156115cc57600080fd5b604052919050565b600067ffffffffffffffff8211156115ea578081fd5b5060209081020190565b6001600160a01b038116811461160957600080fd5b5056fea26469706673582212208e62f01bc0f7319ef94c74c2a3f5bccaeb1f911bd16a7e4407c8e8530c6dac9a64736f6c634300060c0033",
  "immutableReferences": {},
  "source": "// SPDX-License-Identifier: MIT\npragma solidity ^0.6.12;\npragma experimental ABIEncoderV2;\n\nimport \"./openzeppelin/SafeMath.sol\";\nimport \"./openzeppelin/IERC20.sol\";\nimport \"./openzeppelin/AccessControl.sol\";\n\nimport \"./GoldenAnanasScore.sol\";\nimport \"./GoldenAnanasRank.sol\";\nimport \"./TrophyToken.sol\";\n\ncontract GoldenAnanas is AccessControl {\n\n  using SafeMath for uint;\n\n  GoldenAnanasScore public goldenAnanasScore;\n  GoldenAnanasRank public goldenAnanasRank;\n  TrophyToken public trophyToken;\n\n  constructor(\n    GoldenAnanasScore _goldenAnanasScore,\n    GoldenAnanasRank _goldenAnanasRank,\n    TrophyToken _trophyToken\n  ) public {\n\n    goldenAnanasScore = _goldenAnanasScore;\n    goldenAnanasRank = _goldenAnanasRank;\n    trophyToken = _trophyToken;\n    _setupRole(DEFAULT_ADMIN_ROLE, msg.sender);\n\n  }\n\n  // Public -- View\n\n  function getScore() public view returns (uint256){\n\n    return goldenAnanasScore.getScore(msg.sender);\n\n  }\n\n  function getScoreByLevel(uint256 _level) public view returns (uint256){\n\n    return goldenAnanasScore.getScoreByLevel(_level, msg.sender);\n\n  }\n\n  function getRanks() public view returns (address[] memory, uint256[] memory){\n\n    return goldenAnanasRank.getRanks();\n\n  }\n\n  function getRanksByLevel(uint256 _level) public view returns (address[] memory, uint256[] memory){\n\n    return goldenAnanasRank.getRanksByLevel(_level);\n\n  }\n\n  // Public -- Modifier\n\n  function setScore(uint256 _level, uint256 _scoreLevel) public {\n\n    _setScoreFor(_level, _scoreLevel, msg.sender);\n    goldenAnanasRank.updateAllRanks(_level, msg.sender);\n\n  }\n\n  function batchSetScore(uint256[] memory _level, uint256[] memory _scoreLevel) public {\n\n    for (uint i = 0; i < _level.length; i++) {\n\n      _setScoreFor(_level[i], _scoreLevel[i], msg.sender);\n      goldenAnanasRank.updateRanksByLevel(_level[i], msg.sender);\n\n    }\n\n    goldenAnanasRank.updateRanks(msg.sender);\n\n  }\n\n  // Public - Admin\n\n  function setScoreFor(uint256 _level, uint256 _scoreLevel, address _player) public {\n\n    require(hasRole(DEFAULT_ADMIN_ROLE, msg.sender), \"GoldenAnanas: Sender must have admin role\");\n    _setScoreFor(_level, _scoreLevel, _player);\n    goldenAnanasRank.updateAllRanks(_level, _player);\n\n  }\n\n  function setGoldenAnanasScore(GoldenAnanasScore _goldenAnanasScore) public {\n\n    require(hasRole(DEFAULT_ADMIN_ROLE, msg.sender), \"GoldenAnanas: Sender must have admin role\");\n    goldenAnanasScore = _goldenAnanasScore;\n\n  }\n\n  function setGoldenAnanasRank(GoldenAnanasRank _goldenAnanasRank) public {\n\n    require(hasRole(DEFAULT_ADMIN_ROLE, msg.sender), \"GoldenAnanas: Sender must have admin role\");\n    goldenAnanasRank = _goldenAnanasRank;\n\n  }\n\n  function setTrophyToken(TrophyToken _trophyToken) public {\n\n    require(hasRole(DEFAULT_ADMIN_ROLE, msg.sender), \"GoldenAnanas: Sender must have admin role\");\n    trophyToken = _trophyToken;\n\n  }\n\n  function withdrawToken(IERC20 _token, uint256 _value) public {\n\n    require(hasRole(DEFAULT_ADMIN_ROLE, msg.sender), \"GoldenAnanas: Sender must have admin role\");\n    _token.transferFrom(address(this), msg.sender, _value);\n\n  }\n\n  // Private\n  function _setScoreFor(uint256 _level, uint256 _scoreLevel, address _player) private {\n\n//    require(_level == 0 || goldenAnanasScore.scoreByLevel(_level -1, _player) != 0, \"GoldenAnanas: invalid player data\");\n\n    uint256 prevScore = goldenAnanasScore.getScoreByLevel(_level, _player);\n\n    if(prevScore == 0){\n\n      trophyToken.mint(_player, uint256(_player) + _level);\n\n    } else {\n\n      require(prevScore > _scoreLevel, \"GoldenAnanas: score lower\");\n\n    }\n\n    goldenAnanasScore.setScore(_level, _scoreLevel, _player);\n\n  }\n\n  receive() external payable {\n\n    revert(\"GoldenAnanas: ether not accepted\");\n\n  }\n\n}\n",
  "sourcePath": "/Users/jules/WebstormProjects/decentraland/golden-ananas-contract/contracts/GoldenAnanas.sol",
  "compiler": {
    "name": "solc",
    "version": "0.6.12+commit.27d51765.Emscripten.clang"
  },
  "schemaVersion": "3.2.4",
  "updatedAt": "2020-09-08T14:53:18.683Z",
  "networkType": "ethereum",
  "devdoc": {
    "kind": "dev",
    "methods": {
      "getRoleAdmin(bytes32)": {
        "details": "Returns the admin role that controls `role`. See {grantRole} and {revokeRole}. To change a role's admin, use {_setRoleAdmin}."
      },
      "getRoleMember(bytes32,uint256)": {
        "details": "Returns one of the accounts that have `role`. `index` must be a value between 0 and {getRoleMemberCount}, non-inclusive. Role bearers are not sorted in any particular way, and their ordering may change at any point. WARNING: When using {getRoleMember} and {getRoleMemberCount}, make sure you perform all queries on the same block. See the following https://forum.openzeppelin.com/t/iterating-over-elements-on-enumerableset-in-openzeppelin-contracts/2296[forum post] for more information."
      },
      "getRoleMemberCount(bytes32)": {
        "details": "Returns the number of accounts that have `role`. Can be used together with {getRoleMember} to enumerate all bearers of a role."
      },
      "grantRole(bytes32,address)": {
        "details": "Grants `role` to `account`. If `account` had not been already granted `role`, emits a {RoleGranted} event. Requirements: - the caller must have ``role``'s admin role."
      },
      "hasRole(bytes32,address)": {
        "details": "Returns `true` if `account` has been granted `role`."
      },
      "renounceRole(bytes32,address)": {
        "details": "Revokes `role` from the calling account. Roles are often managed via {grantRole} and {revokeRole}: this function's purpose is to provide a mechanism for accounts to lose their privileges if they are compromised (such as when a trusted device is misplaced). If the calling account had been granted `role`, emits a {RoleRevoked} event. Requirements: - the caller must be `account`."
      },
      "revokeRole(bytes32,address)": {
        "details": "Revokes `role` from `account`. If `account` had been granted `role`, emits a {RoleRevoked} event. Requirements: - the caller must have ``role``'s admin role."
      }
    },
    "version": 1
  },
  "userdoc": {
    "kind": "user",
    "methods": {},
    "version": 1
  }
}