{
  "contractName": "GoldenAnanas",
  "abi": [
    {
      "inputs": [
        {
          "internalType": "contract GoldenAnanasScore",
          "name": "_goldenAnanasScore",
          "type": "address"
        },
        {
          "internalType": "contract GoldenAnanasRank",
          "name": "_goldenAnanasRank",
          "type": "address"
        },
        {
          "internalType": "contract TrophyToken",
          "name": "_trophyToken",
          "type": "address"
        }
      ],
      "stateMutability": "nonpayable",
      "type": "constructor"
    },
    {
      "anonymous": false,
      "inputs": [
        {
          "indexed": true,
          "internalType": "bytes32",
          "name": "role",
          "type": "bytes32"
        },
        {
          "indexed": true,
          "internalType": "bytes32",
          "name": "previousAdminRole",
          "type": "bytes32"
        },
        {
          "indexed": true,
          "internalType": "bytes32",
          "name": "newAdminRole",
          "type": "bytes32"
        }
      ],
      "name": "RoleAdminChanged",
      "type": "event"
    },
    {
      "anonymous": false,
      "inputs": [
        {
          "indexed": true,
          "internalType": "bytes32",
          "name": "role",
          "type": "bytes32"
        },
        {
          "indexed": true,
          "internalType": "address",
          "name": "account",
          "type": "address"
        },
        {
          "indexed": true,
          "internalType": "address",
          "name": "sender",
          "type": "address"
        }
      ],
      "name": "RoleGranted",
      "type": "event"
    },
    {
      "anonymous": false,
      "inputs": [
        {
          "indexed": true,
          "internalType": "bytes32",
          "name": "role",
          "type": "bytes32"
        },
        {
          "indexed": true,
          "internalType": "address",
          "name": "account",
          "type": "address"
        },
        {
          "indexed": true,
          "internalType": "address",
          "name": "sender",
          "type": "address"
        }
      ],
      "name": "RoleRevoked",
      "type": "event"
    },
    {
      "inputs": [],
      "name": "DEFAULT_ADMIN_ROLE",
      "outputs": [
        {
          "internalType": "bytes32",
          "name": "",
          "type": "bytes32"
        }
      ],
      "stateMutability": "view",
      "type": "function",
      "constant": true
    },
    {
      "inputs": [
        {
          "internalType": "bytes32",
          "name": "role",
          "type": "bytes32"
        }
      ],
      "name": "getRoleAdmin",
      "outputs": [
        {
          "internalType": "bytes32",
          "name": "",
          "type": "bytes32"
        }
      ],
      "stateMutability": "view",
      "type": "function",
      "constant": true
    },
    {
      "inputs": [
        {
          "internalType": "bytes32",
          "name": "role",
          "type": "bytes32"
        },
        {
          "internalType": "uint256",
          "name": "index",
          "type": "uint256"
        }
      ],
      "name": "getRoleMember",
      "outputs": [
        {
          "internalType": "address",
          "name": "",
          "type": "address"
        }
      ],
      "stateMutability": "view",
      "type": "function",
      "constant": true
    },
    {
      "inputs": [
        {
          "internalType": "bytes32",
          "name": "role",
          "type": "bytes32"
        }
      ],
      "name": "getRoleMemberCount",
      "outputs": [
        {
          "internalType": "uint256",
          "name": "",
          "type": "uint256"
        }
      ],
      "stateMutability": "view",
      "type": "function",
      "constant": true
    },
    {
      "inputs": [],
      "name": "goldenAnanasRank",
      "outputs": [
        {
          "internalType": "contract GoldenAnanasRank",
          "name": "",
          "type": "address"
        }
      ],
      "stateMutability": "view",
      "type": "function",
      "constant": true
    },
    {
      "inputs": [],
      "name": "goldenAnanasScore",
      "outputs": [
        {
          "internalType": "contract GoldenAnanasScore",
          "name": "",
          "type": "address"
        }
      ],
      "stateMutability": "view",
      "type": "function",
      "constant": true
    },
    {
      "inputs": [
        {
          "internalType": "bytes32",
          "name": "role",
          "type": "bytes32"
        },
        {
          "internalType": "address",
          "name": "account",
          "type": "address"
        }
      ],
      "name": "grantRole",
      "outputs": [],
      "stateMutability": "nonpayable",
      "type": "function"
    },
    {
      "inputs": [
        {
          "internalType": "bytes32",
          "name": "role",
          "type": "bytes32"
        },
        {
          "internalType": "address",
          "name": "account",
          "type": "address"
        }
      ],
      "name": "hasRole",
      "outputs": [
        {
          "internalType": "bool",
          "name": "",
          "type": "bool"
        }
      ],
      "stateMutability": "view",
      "type": "function",
      "constant": true
    },
    {
      "inputs": [
        {
          "internalType": "bytes32",
          "name": "role",
          "type": "bytes32"
        },
        {
          "internalType": "address",
          "name": "account",
          "type": "address"
        }
      ],
      "name": "renounceRole",
      "outputs": [],
      "stateMutability": "nonpayable",
      "type": "function"
    },
    {
      "inputs": [
        {
          "internalType": "bytes32",
          "name": "role",
          "type": "bytes32"
        },
        {
          "internalType": "address",
          "name": "account",
          "type": "address"
        }
      ],
      "name": "revokeRole",
      "outputs": [],
      "stateMutability": "nonpayable",
      "type": "function"
    },
    {
      "inputs": [],
      "name": "trophyToken",
      "outputs": [
        {
          "internalType": "contract TrophyToken",
          "name": "",
          "type": "address"
        }
      ],
      "stateMutability": "view",
      "type": "function",
      "constant": true
    },
    {
      "stateMutability": "payable",
      "type": "receive",
      "payable": true
    },
    {
      "inputs": [],
      "name": "getScore",
      "outputs": [
        {
          "internalType": "uint256",
          "name": "",
          "type": "uint256"
        }
      ],
      "stateMutability": "view",
      "type": "function",
      "constant": true
    },
    {
      "inputs": [
        {
          "internalType": "uint256",
          "name": "_level",
          "type": "uint256"
        }
      ],
      "name": "getScoreByLevel",
      "outputs": [
        {
          "internalType": "uint256",
          "name": "",
          "type": "uint256"
        }
      ],
      "stateMutability": "view",
      "type": "function",
      "constant": true
    },
    {
      "inputs": [],
      "name": "getRanks",
      "outputs": [
        {
          "internalType": "address[]",
          "name": "",
          "type": "address[]"
        },
        {
          "internalType": "uint256[]",
          "name": "",
          "type": "uint256[]"
        }
      ],
      "stateMutability": "view",
      "type": "function",
      "constant": true
    },
    {
      "inputs": [
        {
          "internalType": "uint256",
          "name": "_level",
          "type": "uint256"
        }
      ],
      "name": "getRanksByLevel",
      "outputs": [
        {
          "internalType": "address[]",
          "name": "",
          "type": "address[]"
        },
        {
          "internalType": "uint256[]",
          "name": "",
          "type": "uint256[]"
        }
      ],
      "stateMutability": "view",
      "type": "function",
      "constant": true
    },
    {
      "inputs": [
        {
          "internalType": "uint256",
          "name": "_level",
          "type": "uint256"
        },
        {
          "internalType": "uint256",
          "name": "_scoreLevel",
          "type": "uint256"
        }
      ],
      "name": "setScore",
      "outputs": [],
      "stateMutability": "nonpayable",
      "type": "function"
    },
    {
      "inputs": [
        {
          "internalType": "uint256[]",
          "name": "_level",
          "type": "uint256[]"
        },
        {
          "internalType": "uint256[]",
          "name": "_scoreLevel",
          "type": "uint256[]"
        }
      ],
      "name": "batchSetScore",
      "outputs": [],
      "stateMutability": "nonpayable",
      "type": "function"
    },
    {
      "inputs": [
        {
          "internalType": "uint256",
          "name": "_level",
          "type": "uint256"
        },
        {
          "internalType": "uint256",
          "name": "_scoreLevel",
          "type": "uint256"
        },
        {
          "internalType": "address",
          "name": "_player",
          "type": "address"
        }
      ],
      "name": "setScoreFor",
      "outputs": [],
      "stateMutability": "nonpayable",
      "type": "function"
    },
    {
      "inputs": [
        {
          "internalType": "contract GoldenAnanasScore",
          "name": "_goldenAnanasScore",
          "type": "address"
        }
      ],
      "name": "setGoldenAnanasScore",
      "outputs": [],
      "stateMutability": "nonpayable",
      "type": "function"
    },
    {
      "inputs": [
        {
          "internalType": "contract GoldenAnanasRank",
          "name": "_goldenAnanasRank",
          "type": "address"
        }
      ],
      "name": "setGoldenAnanasRank",
      "outputs": [],
      "stateMutability": "nonpayable",
      "type": "function"
    },
    {
      "inputs": [
        {
          "internalType": "contract TrophyToken",
          "name": "_trophyToken",
          "type": "address"
        }
      ],
      "name": "setTrophyToken",
      "outputs": [],
      "stateMutability": "nonpayable",
      "type": "function"
    },
    {
      "inputs": [
        {
          "internalType": "contract IERC20",
          "name": "_token",
          "type": "address"
        },
        {
          "internalType": "uint256",
          "name": "_value",
          "type": "uint256"
        }
      ],
      "name": "withdrawToken",
      "outputs": [],
      "stateMutability": "nonpayable",
      "type": "function"
    }
  ],
  "bytecode": "0x60806040523480156200001157600080fd5b506040516200180e3803806200180e83398101604081905262000034916200019b565b600180546001600160a01b038086166001600160a01b0319928316179092556002805485841690831617905560038054928416929091169190911790556200007e60003362000087565b50505062000207565b62000093828262000097565b5050565b600082815260208181526040909120620000bc918390620009b862000110821b17901c565b156200009357620000cc62000130565b6001600160a01b0316816001600160a01b0316837f2f8788117e7eff1d82e926ec794901d17c78024a50270940304540a733656f0d60405160405180910390a45050565b600062000127836001600160a01b03841662000134565b90505b92915050565b3390565b600062000142838362000183565b6200017a575081546001818101845560008481526020808220909301849055845484825282860190935260409020919091556200012a565b5060006200012a565b60009081526001919091016020526040902054151590565b600080600060608486031215620001b0578283fd5b8351620001bd81620001ee565b6020850151909350620001d081620001ee565b6040850151909250620001e381620001ee565b809150509250925092565b6001600160a01b03811681146200020457600080fd5b50565b6115f780620002176000396000f3fe6080604052600436106101395760003560e01c80638c0ae547116100ab578063aafa5a071161006f578063aafa5a071461036d578063afd820671461038d578063b276fa0a146103a2578063ca15c873146103c2578063ce958ba2146103e2578063d547741f146104025761015f565b80638c0ae547146102d65780639010d07c146102eb57806391d148541461030b5780639e281a9814610338578063a217fddf146103585761015f565b806336568abe116100fd57806336568abe1461022157806348e4af0814610241578063598d632d146102615780636173fb381461027657806378eaaf18146102965780638662e8a1146102b65761015f565b806304867ecc14610164578063248a9ca314610190578063285450c8146101bd5780632e65e8b4146101df5780632f2ff15d146102015761015f565b3661015f5760405162461bcd60e51b815260040161015690611348565b60405180910390fd5b600080fd5b34801561017057600080fd5b50610179610422565b604051610187929190611264565b60405180910390f35b34801561019c57600080fd5b506101b06101ab3660046110ff565b6104b7565b60405161018791906112fd565b3480156101c957600080fd5b506101dd6101d8366004611167565b6104cc565b005b3480156101eb57600080fd5b506101f4610515565b6040516101879190611213565b34801561020d57600080fd5b506101dd61021c366004611117565b610524565b34801561022d57600080fd5b506101dd61023c366004611117565b61056c565b34801561024d57600080fd5b506101dd61025c3660046111c6565b6105ae565b34801561026d57600080fd5b506101f46105e5565b34801561028257600080fd5b506101796102913660046110ff565b6105f4565b3480156102a257600080fd5b506101dd6102b1366004611167565b610686565b3480156102c257600080fd5b506101dd6102d1366004611081565b6106cf565b3480156102e257600080fd5b506101f4610714565b3480156102f757600080fd5b506101f4610306366004611146565b610723565b34801561031757600080fd5b5061032b610326366004611117565b610744565b60405161018791906112f2565b34801561034457600080fd5b506101dd610353366004611183565b61075c565b34801561036457600080fd5b506101b0610805565b34801561037957600080fd5b506101dd610388366004611167565b61080a565b34801561039957600080fd5b506101b0610853565b3480156103ae57600080fd5b506101dd6103bd366004611146565b6108d9565b3480156103ce57600080fd5b506101b06103dd3660046110ff565b6108e4565b3480156103ee57600080fd5b506101b06103fd3660046110ff565b6108fb565b34801561040e57600080fd5b506101dd61041d366004611117565b61097e565b606080600260009054906101000a90046001600160a01b03166001600160a01b03166304867ecc6040518163ffffffff1660e01b815260040160006040518083038186803b15801561047357600080fd5b505afa158015610487573d6000803e3d6000fd5b505050506040513d6000823e601f3d908101601f191682016040526104af9190810190610fbf565b915091509091565b60009081526020819052604090206002015490565b6104d7600033610744565b6104f35760405162461bcd60e51b8152600401610156906113cc565b600280546001600160a01b0319166001600160a01b0392909216919091179055565b6002546001600160a01b031681565b600082815260208190526040902060020154610542906103266109cd565b61055e5760405162461bcd60e51b81526004016101569061137d565b61056882826109d1565b5050565b6105746109cd565b6001600160a01b0316816001600160a01b0316146105a45760405162461bcd60e51b8152600401610156906114dd565b6105688282610a3a565b6105b9600033610744565b6105d55760405162461bcd60e51b8152600401610156906113cc565b6105e0838383610aa3565b505050565b6003546001600160a01b031681565b600254604051630c2e7f6760e31b815260609182916001600160a01b0390911690636173fb38906106299086906004016112fd565b60006040518083038186803b15801561064157600080fd5b505afa158015610655573d6000803e3d6000fd5b505050506040513d6000823e601f3d908101601f1916820160405261067d9190810190610fbf565b91509150915091565b610691600033610744565b6106ad5760405162461bcd60e51b8152600401610156906113cc565b600380546001600160a01b0319166001600160a01b0392909216919091179055565b60005b82518110156105e05761070c8382815181106106ea57fe5b60200260200101518383815181106106fe57fe5b602002602001015133610aa3565b6001016106d2565b6001546001600160a01b031681565b600082815260208190526040812061073b9083610d36565b90505b92915050565b600082815260208190526040812061073b9083610d42565b610767600033610744565b6107835760405162461bcd60e51b8152600401610156906113cc565b6040516323b872dd60e01b81526001600160a01b038316906323b872dd906107b390309033908690600401611227565b602060405180830381600087803b1580156107cd57600080fd5b505af11580156107e1573d6000803e3d6000fd5b505050506040513d601f19601f820116820180604052508101906105e091906110d8565b600081565b610815600033610744565b6108315760405162461bcd60e51b8152600401610156906113cc565b600180546001600160a01b0319166001600160a01b0392909216919091179055565b600154604051630d47875d60e41b81526000916001600160a01b03169063d47875d090610884903390600401611213565b60206040518083038186803b15801561089c57600080fd5b505afa1580156108b0573d6000803e3d6000fd5b505050506040513d601f19601f820116820180604052508101906108d491906111ae565b905090565b610568828233610aa3565b600081815260208190526040812061073e90610d57565b600154604051639e49319960e01b81526000916001600160a01b031690639e4931999061092e908590339060040161152c565b60206040518083038186803b15801561094657600080fd5b505afa15801561095a573d6000803e3d6000fd5b505050506040513d601f19601f8201168201806040525081019061073e91906111ae565b60008281526020819052604090206002015461099c906103266109cd565b6105a45760405162461bcd60e51b81526004016101569061144c565b600061073b836001600160a01b038416610d62565b3390565b60008281526020819052604090206109e990826109b8565b15610568576109f66109cd565b6001600160a01b0316816001600160a01b0316837f2f8788117e7eff1d82e926ec794901d17c78024a50270940304540a733656f0d60405160405180910390a45050565b6000828152602081905260409020610a529082610dac565b1561056857610a5f6109cd565b6001600160a01b0316816001600160a01b0316837ff6391f5c32d9c69d2a47ea670b442974b53935d1edc7fd64eb21e047a839171b60405160405180910390a45050565b821580610b345750600154604051634fe39b4160e01b81526001600160a01b0390911690634fe39b4190610ae190600019870190859060040161152c565b60206040518083038186803b158015610af957600080fd5b505afa158015610b0d573d6000803e3d6000fd5b505050506040513d601f19601f82011682018060405250810190610b3191906111ae565b15155b610b505760405162461bcd60e51b81526004016101569061149c565b600154604051639e49319960e01b81526000916001600160a01b031690639e49319990610b83908790869060040161152c565b60206040518083038186803b158015610b9b57600080fd5b505afa158015610baf573d6000803e3d6000fd5b505050506040513d601f19601f82011682018060405250810190610bd391906111ae565b905080610c47576003546040516340c10f1960e01b81526001600160a01b03918216916340c10f1991610c1091869190821689019060040161124b565b600060405180830381600087803b158015610c2a57600080fd5b505af1158015610c3e573d6000803e3d6000fd5b50505050610c66565b828111610c665760405162461bcd60e51b815260040161015690611415565b60015460405163797752e360e01b81526001600160a01b039091169063797752e390610c9a90879087908790600401611543565b600060405180830381600087803b158015610cb457600080fd5b505af1158015610cc8573d6000803e3d6000fd5b5050600254604051637ce2bc4960e01b81526001600160a01b039091169250637ce2bc499150610cfe908790869060040161152c565b600060405180830381600087803b158015610d1857600080fd5b505af1158015610d2c573d6000803e3d6000fd5b5050505050505050565b600061073b8383610dc1565b600061073b836001600160a01b038416610e06565b600061073e82610e1e565b6000610d6e8383610e06565b610da45750815460018181018455600084815260208082209093018490558454848252828601909352604090209190915561073e565b50600061073e565b600061073b836001600160a01b038416610e22565b81546000908210610de45760405162461bcd60e51b815260040161015690611306565b826000018281548110610df357fe5b9060005260206000200154905092915050565b60009081526001919091016020526040902054151590565b5490565b60008181526001830160205260408120548015610ede5783546000198083019190810190600090879083908110610e5557fe5b9060005260206000200154905080876000018481548110610e7257fe5b600091825260208083209091019290925582815260018981019092526040902090840190558654879080610ea257fe5b6001900381819060005260206000200160009055905586600101600087815260200190815260200160002060009055600194505050505061073e565b600091505061073e565b805161073e816115a9565b600082601f830112610f03578081fd5b8135610f16610f1182611589565b611562565b818152915060208083019084810181840286018201871015610f3757600080fd5b60005b84811015610f5657813584529282019290820190600101610f3a565b505050505092915050565b600082601f830112610f71578081fd5b8151610f7f610f1182611589565b818152915060208083019084810181840286018201871015610fa057600080fd5b60005b84811015610f5657815184529282019290820190600101610fa3565b60008060408385031215610fd1578182fd5b825167ffffffffffffffff80821115610fe8578384fd5b818501915085601f830112610ffb578384fd5b8151611009610f1182611589565b80828252602080830192508086018a828387028901011115611029578889fd5b8896505b848710156110535761103f8b82610ee8565b84526001969096019592810192810161102d565b50880151909650935050508082111561106a578283fd5b5061107785828601610f61565b9150509250929050565b60008060408385031215611093578182fd5b823567ffffffffffffffff808211156110aa578384fd5b6110b686838701610ef3565b935060208501359150808211156110cb578283fd5b5061107785828601610ef3565b6000602082840312156110e9578081fd5b815180151581146110f8578182fd5b9392505050565b600060208284031215611110578081fd5b5035919050565b60008060408385031215611129578182fd5b82359150602083013561113b816115a9565b809150509250929050565b60008060408385031215611158578182fd5b50508035926020909101359150565b600060208284031215611178578081fd5b81356110f8816115a9565b60008060408385031215611195578182fd5b82356111a0816115a9565b946020939093013593505050565b6000602082840312156111bf578081fd5b5051919050565b6000806000606084860312156111da578081fd5b833592506020840135915060408401356111f3816115a9565b809150509250925092565b815260200190565b6001600160a01b03169052565b6001600160a01b0391909116815260200190565b6001600160a01b039384168152919092166020820152604081019190915260600190565b6001600160a01b03929092168252602082015260400190565b604080825283519082018190526000906020906060840190828701845b828110156112a457611294848351611206565b9284019290840190600101611281565b505050838103828501528085516112bb81846112fd565b91508387019250845b818110156112e5576112d78385516111fe565b9385019392506001016112c4565b5090979650505050505050565b901515815260200190565b90815260200190565b60208082526022908201527f456e756d657261626c655365743a20696e646578206f7574206f6620626f756e604082015261647360f01b606082015260800190565b6020808252818101527f476f6c64656e416e616e61733a206574686572206e6f74206163636570746564604082015260600190565b6020808252602f908201527f416363657373436f6e74726f6c3a2073656e646572206d75737420626520616e60408201526e0818591b5a5b881d1bc819dc985b9d608a1b606082015260800190565b60208082526029908201527f476f6c64656e416e616e61733a2053656e646572206d75737420686176652061604082015268646d696e20726f6c6560b81b606082015260800190565b60208082526019908201527f476f6c64656e416e616e61733a2073636f7265206c6f77657200000000000000604082015260600190565b60208082526030908201527f416363657373436f6e74726f6c3a2073656e646572206d75737420626520616e60408201526f2061646d696e20746f207265766f6b6560801b606082015260800190565b60208082526021908201527f476f6c64656e416e616e61733a20696e76616c696420706c61796572206461746040820152606160f81b606082015260800190565b6020808252602f908201527f416363657373436f6e74726f6c3a2063616e206f6e6c792072656e6f756e636560408201526e103937b632b9903337b91039b2b63360891b606082015260800190565b9182526001600160a01b0316602082015260400190565b92835260208301919091526001600160a01b0316604082015260600190565b60405181810167ffffffffffffffff8111828210171561158157600080fd5b604052919050565b600067ffffffffffffffff82111561159f578081fd5b5060209081020190565b6001600160a01b03811681146115be57600080fd5b5056fea264697066735822122003d7fddc4e001e0be9e5e26d545ff294e4d11ae46cb9551461ae637992b6079264736f6c634300060c0033",
  "immutableReferences": {},
  "source": "// SPDX-License-Identifier: MIT\npragma solidity ^0.6.12;\npragma experimental ABIEncoderV2;\n\nimport \"./openzeppelin/SafeMath.sol\";\nimport \"./openzeppelin/IERC20.sol\";\nimport \"./openzeppelin/AccessControl.sol\";\n\nimport \"./GoldenAnanasScore.sol\";\nimport \"./GoldenAnanasRank.sol\";\nimport \"./TrophyToken.sol\";\n\ncontract GoldenAnanas is AccessControl {\n\n  using SafeMath for uint;\n\n  GoldenAnanasScore public goldenAnanasScore;\n  GoldenAnanasRank public goldenAnanasRank;\n  TrophyToken public trophyToken;\n\n  constructor(\n    GoldenAnanasScore _goldenAnanasScore,\n    GoldenAnanasRank _goldenAnanasRank,\n    TrophyToken _trophyToken\n  ) public {\n\n    goldenAnanasScore = _goldenAnanasScore;\n    goldenAnanasRank = _goldenAnanasRank;\n    trophyToken = _trophyToken;\n    _setupRole(DEFAULT_ADMIN_ROLE, msg.sender);\n\n  }\n\n  // Public -- View\n\n  function getScore() public view returns (uint256){\n\n    return goldenAnanasScore.getScore(msg.sender);\n\n  }\n\n  function getScoreByLevel(uint256 _level) public view returns (uint256){\n\n    return goldenAnanasScore.getScoreByLevel(_level, msg.sender);\n\n  }\n\n  function getRanks() public view returns (address[] memory, uint256[] memory){\n\n    return goldenAnanasRank.getRanks();\n\n  }\n\n  function getRanksByLevel(uint256 _level) public view returns (address[] memory, uint256[] memory){\n\n    return goldenAnanasRank.getRanksByLevel(_level);\n\n  }\n\n  // Public -- Modifier\n\n  function setScore(uint256 _level, uint256 _scoreLevel) public {\n\n    _setScoreFor(_level, _scoreLevel, msg.sender);\n\n  }\n\n  function batchSetScore(uint256[] memory _level, uint256[] memory _scoreLevel) public {\n\n    for (uint i = 0; i < _level.length; i++) {\n\n      _setScoreFor(_level[i], _scoreLevel[i], msg.sender);\n\n    }\n\n  }\n\n  // Public - Admin\n\n  function setScoreFor(uint256 _level, uint256 _scoreLevel, address _player) public {\n\n    require(hasRole(DEFAULT_ADMIN_ROLE, msg.sender), \"GoldenAnanas: Sender must have admin role\");\n    _setScoreFor(_level, _scoreLevel, _player);\n\n  }\n\n  function setGoldenAnanasScore(GoldenAnanasScore _goldenAnanasScore) public {\n\n    require(hasRole(DEFAULT_ADMIN_ROLE, msg.sender), \"GoldenAnanas: Sender must have admin role\");\n    goldenAnanasScore = _goldenAnanasScore;\n\n  }\n\n  function setGoldenAnanasRank(GoldenAnanasRank _goldenAnanasRank) public {\n\n    require(hasRole(DEFAULT_ADMIN_ROLE, msg.sender), \"GoldenAnanas: Sender must have admin role\");\n    goldenAnanasRank = _goldenAnanasRank;\n\n  }\n\n  function setTrophyToken(TrophyToken _trophyToken) public {\n\n    require(hasRole(DEFAULT_ADMIN_ROLE, msg.sender), \"GoldenAnanas: Sender must have admin role\");\n    trophyToken = _trophyToken;\n\n  }\n\n  function withdrawToken(IERC20 _token, uint256 _value) public {\n\n    require(hasRole(DEFAULT_ADMIN_ROLE, msg.sender), \"GoldenAnanas: Sender must have admin role\");\n    _token.transferFrom(address(this), msg.sender, _value);\n\n  }\n\n  // Private\n  function _setScoreFor(uint256 _level, uint256 _scoreLevel, address _player) private {\n\n    require(_level == 0 || goldenAnanasScore.scoreByLevel(_level -1, _player) != 0, \"GoldenAnanas: invalid player data\");\n\n    uint256 prevScore = goldenAnanasScore.getScoreByLevel(_level, _player);\n\n    if(prevScore == 0){\n\n      trophyToken.mint(_player, uint256(_player) + _level);\n\n    } else {\n\n      require(prevScore > _scoreLevel, \"GoldenAnanas: score lower\");\n\n    }\n\n    goldenAnanasScore.setScore(_level, _scoreLevel, _player);\n    goldenAnanasRank.updateAllRanks(_level, _player);\n\n  }\n\n  receive() external payable {\n\n    revert(\"GoldenAnanas: ether not accepted\");\n\n  }\n\n}\n",
  "sourcePath": "/Users/jules/WebstormProjects/decentraland/goldananasContract/contracts/GoldenAnanas.sol",
  "compiler": {
    "name": "solc",
    "version": "0.6.12+commit.27d51765.Emscripten.clang"
  },
  "schemaVersion": "3.2.4",
  "updatedAt": "2020-09-06T11:14:59.479Z",
  "networkType": "ethereum",
  "devdoc": {
    "kind": "dev",
    "methods": {
      "getRoleAdmin(bytes32)": {
        "details": "Returns the admin role that controls `role`. See {grantRole} and {revokeRole}. To change a role's admin, use {_setRoleAdmin}."
      },
      "getRoleMember(bytes32,uint256)": {
        "details": "Returns one of the accounts that have `role`. `index` must be a value between 0 and {getRoleMemberCount}, non-inclusive. Role bearers are not sorted in any particular way, and their ordering may change at any point. WARNING: When using {getRoleMember} and {getRoleMemberCount}, make sure you perform all queries on the same block. See the following https://forum.openzeppelin.com/t/iterating-over-elements-on-enumerableset-in-openzeppelin-contracts/2296[forum post] for more information."
      },
      "getRoleMemberCount(bytes32)": {
        "details": "Returns the number of accounts that have `role`. Can be used together with {getRoleMember} to enumerate all bearers of a role."
      },
      "grantRole(bytes32,address)": {
        "details": "Grants `role` to `account`. If `account` had not been already granted `role`, emits a {RoleGranted} event. Requirements: - the caller must have ``role``'s admin role."
      },
      "hasRole(bytes32,address)": {
        "details": "Returns `true` if `account` has been granted `role`."
      },
      "renounceRole(bytes32,address)": {
        "details": "Revokes `role` from the calling account. Roles are often managed via {grantRole} and {revokeRole}: this function's purpose is to provide a mechanism for accounts to lose their privileges if they are compromised (such as when a trusted device is misplaced). If the calling account had been granted `role`, emits a {RoleRevoked} event. Requirements: - the caller must be `account`."
      },
      "revokeRole(bytes32,address)": {
        "details": "Revokes `role` from `account`. If `account` had been granted `role`, emits a {RoleRevoked} event. Requirements: - the caller must have ``role``'s admin role."
      }
    },
    "version": 1
  },
  "userdoc": {
    "kind": "user",
    "methods": {},
    "version": 1
  }
}