{
  "contractName": "GoldenAnanasRank",
  "abi": [
    {
      "inputs": [
        {
          "internalType": "contract GoldenAnanasScore",
          "name": "_goldenAnanasScore",
          "type": "address"
        },
        {
          "internalType": "uint256",
          "name": "_ranksSize",
          "type": "uint256"
        }
      ],
      "stateMutability": "nonpayable",
      "type": "constructor"
    },
    {
      "anonymous": false,
      "inputs": [
        {
          "indexed": true,
          "internalType": "bytes32",
          "name": "role",
          "type": "bytes32"
        },
        {
          "indexed": true,
          "internalType": "bytes32",
          "name": "previousAdminRole",
          "type": "bytes32"
        },
        {
          "indexed": true,
          "internalType": "bytes32",
          "name": "newAdminRole",
          "type": "bytes32"
        }
      ],
      "name": "RoleAdminChanged",
      "type": "event"
    },
    {
      "anonymous": false,
      "inputs": [
        {
          "indexed": true,
          "internalType": "bytes32",
          "name": "role",
          "type": "bytes32"
        },
        {
          "indexed": true,
          "internalType": "address",
          "name": "account",
          "type": "address"
        },
        {
          "indexed": true,
          "internalType": "address",
          "name": "sender",
          "type": "address"
        }
      ],
      "name": "RoleGranted",
      "type": "event"
    },
    {
      "anonymous": false,
      "inputs": [
        {
          "indexed": true,
          "internalType": "bytes32",
          "name": "role",
          "type": "bytes32"
        },
        {
          "indexed": true,
          "internalType": "address",
          "name": "account",
          "type": "address"
        },
        {
          "indexed": true,
          "internalType": "address",
          "name": "sender",
          "type": "address"
        }
      ],
      "name": "RoleRevoked",
      "type": "event"
    },
    {
      "inputs": [],
      "name": "DEFAULT_ADMIN_ROLE",
      "outputs": [
        {
          "internalType": "bytes32",
          "name": "",
          "type": "bytes32"
        }
      ],
      "stateMutability": "view",
      "type": "function",
      "constant": true
    },
    {
      "inputs": [],
      "name": "EXECUTOR_ROLE",
      "outputs": [
        {
          "internalType": "bytes32",
          "name": "",
          "type": "bytes32"
        }
      ],
      "stateMutability": "view",
      "type": "function",
      "constant": true
    },
    {
      "inputs": [
        {
          "internalType": "bytes32",
          "name": "role",
          "type": "bytes32"
        }
      ],
      "name": "getRoleAdmin",
      "outputs": [
        {
          "internalType": "bytes32",
          "name": "",
          "type": "bytes32"
        }
      ],
      "stateMutability": "view",
      "type": "function",
      "constant": true
    },
    {
      "inputs": [
        {
          "internalType": "bytes32",
          "name": "role",
          "type": "bytes32"
        },
        {
          "internalType": "uint256",
          "name": "index",
          "type": "uint256"
        }
      ],
      "name": "getRoleMember",
      "outputs": [
        {
          "internalType": "address",
          "name": "",
          "type": "address"
        }
      ],
      "stateMutability": "view",
      "type": "function",
      "constant": true
    },
    {
      "inputs": [
        {
          "internalType": "bytes32",
          "name": "role",
          "type": "bytes32"
        }
      ],
      "name": "getRoleMemberCount",
      "outputs": [
        {
          "internalType": "uint256",
          "name": "",
          "type": "uint256"
        }
      ],
      "stateMutability": "view",
      "type": "function",
      "constant": true
    },
    {
      "inputs": [],
      "name": "goldenAnanasScore",
      "outputs": [
        {
          "internalType": "contract GoldenAnanasScore",
          "name": "",
          "type": "address"
        }
      ],
      "stateMutability": "view",
      "type": "function",
      "constant": true
    },
    {
      "inputs": [
        {
          "internalType": "bytes32",
          "name": "role",
          "type": "bytes32"
        },
        {
          "internalType": "address",
          "name": "account",
          "type": "address"
        }
      ],
      "name": "grantRole",
      "outputs": [],
      "stateMutability": "nonpayable",
      "type": "function"
    },
    {
      "inputs": [
        {
          "internalType": "bytes32",
          "name": "role",
          "type": "bytes32"
        },
        {
          "internalType": "address",
          "name": "account",
          "type": "address"
        }
      ],
      "name": "hasRole",
      "outputs": [
        {
          "internalType": "bool",
          "name": "",
          "type": "bool"
        }
      ],
      "stateMutability": "view",
      "type": "function",
      "constant": true
    },
    {
      "inputs": [
        {
          "internalType": "uint256",
          "name": "",
          "type": "uint256"
        }
      ],
      "name": "ranks",
      "outputs": [
        {
          "internalType": "address",
          "name": "",
          "type": "address"
        }
      ],
      "stateMutability": "view",
      "type": "function",
      "constant": true
    },
    {
      "inputs": [
        {
          "internalType": "uint256",
          "name": "",
          "type": "uint256"
        },
        {
          "internalType": "uint256",
          "name": "",
          "type": "uint256"
        }
      ],
      "name": "ranksByLevel",
      "outputs": [
        {
          "internalType": "address",
          "name": "",
          "type": "address"
        }
      ],
      "stateMutability": "view",
      "type": "function",
      "constant": true
    },
    {
      "inputs": [],
      "name": "ranksSize",
      "outputs": [
        {
          "internalType": "uint256",
          "name": "",
          "type": "uint256"
        }
      ],
      "stateMutability": "view",
      "type": "function",
      "constant": true
    },
    {
      "inputs": [
        {
          "internalType": "bytes32",
          "name": "role",
          "type": "bytes32"
        },
        {
          "internalType": "address",
          "name": "account",
          "type": "address"
        }
      ],
      "name": "renounceRole",
      "outputs": [],
      "stateMutability": "nonpayable",
      "type": "function"
    },
    {
      "inputs": [
        {
          "internalType": "bytes32",
          "name": "role",
          "type": "bytes32"
        },
        {
          "internalType": "address",
          "name": "account",
          "type": "address"
        }
      ],
      "name": "revokeRole",
      "outputs": [],
      "stateMutability": "nonpayable",
      "type": "function"
    },
    {
      "inputs": [
        {
          "internalType": "contract GoldenAnanasScore",
          "name": "_goldenAnanasScore",
          "type": "address"
        }
      ],
      "name": "setGoldenAnanasScore",
      "outputs": [],
      "stateMutability": "nonpayable",
      "type": "function"
    },
    {
      "inputs": [
        {
          "internalType": "uint256",
          "name": "_level",
          "type": "uint256"
        },
        {
          "internalType": "address",
          "name": "_player",
          "type": "address"
        }
      ],
      "name": "updateAllRanks",
      "outputs": [],
      "stateMutability": "nonpayable",
      "type": "function"
    },
    {
      "inputs": [
        {
          "internalType": "uint256",
          "name": "_level",
          "type": "uint256"
        },
        {
          "internalType": "address",
          "name": "_player",
          "type": "address"
        }
      ],
      "name": "updateRanksByLevel",
      "outputs": [
        {
          "internalType": "bool",
          "name": "",
          "type": "bool"
        }
      ],
      "stateMutability": "nonpayable",
      "type": "function"
    },
    {
      "inputs": [
        {
          "internalType": "address",
          "name": "_player",
          "type": "address"
        }
      ],
      "name": "updateRanks",
      "outputs": [
        {
          "internalType": "bool",
          "name": "",
          "type": "bool"
        }
      ],
      "stateMutability": "nonpayable",
      "type": "function"
    },
    {
      "inputs": [],
      "name": "getRanks",
      "outputs": [
        {
          "internalType": "address[]",
          "name": "",
          "type": "address[]"
        },
        {
          "internalType": "uint256[]",
          "name": "",
          "type": "uint256[]"
        }
      ],
      "stateMutability": "view",
      "type": "function",
      "constant": true
    },
    {
      "inputs": [
        {
          "internalType": "uint256",
          "name": "_level",
          "type": "uint256"
        }
      ],
      "name": "getRanksByLevel",
      "outputs": [
        {
          "internalType": "address[]",
          "name": "",
          "type": "address[]"
        },
        {
          "internalType": "uint256[]",
          "name": "",
          "type": "uint256[]"
        }
      ],
      "stateMutability": "view",
      "type": "function",
      "constant": true
    }
  ],
  "bytecode": "0x60806040523480156200001157600080fd5b5060405162001aaa38038062001aaa8339810160408190526200003491620001a9565b600180546001600160a01b0319166001600160a01b03841617905560048190556200006160003362000095565b6200008d7fd8aa0f3194971a2a116679f7c2090f6939c8d4e01a2a8d7e41d55e5351469e633362000095565b5050620001e3565b620000a18282620000a5565b5050565b600082815260208181526040909120620000ca918390620012326200011e821b17901c565b15620000a157620000da6200013e565b6001600160a01b0316816001600160a01b0316837f2f8788117e7eff1d82e926ec794901d17c78024a50270940304540a733656f0d60405160405180910390a45050565b600062000135836001600160a01b03841662000142565b90505b92915050565b3390565b600062000150838362000191565b620001885750815460018181018455600084815260208082209093018490558454848252828601909352604090209190915562000138565b50600062000138565b60009081526001919091016020526040902054151590565b60008060408385031215620001bc578182fd5b82516001600160a01b0381168114620001d3578283fd5b6020939093015192949293505050565b6118b780620001f36000396000f3fe608060405234801561001057600080fd5b50600436106101215760003560e01c80638c0ae547116100ad578063aafa5a0711610071578063aafa5a0714610244578063be0d8a5214610257578063ca15c8731461025f578063d547741f14610272578063df927bbe1461028557610121565b80638c0ae547146101fb5780639010d07c1461020357806391d14854146102165780639a0ae6e214610229578063a217fddf1461023c57610121565b80632f2ff15d116100f45780632f2ff15d1461018d57806336568abe146101a25780636173fb38146101b55780637263548b146101c85780637ce2bc49146101e857610121565b806304867ecc14610126578063050db7381461014557806307bd026514610165578063248a9ca31461017a575b600080fd5b61012e610298565b60405161013c9291906115c3565b60405180910390f35b6101586101533660046114e5565b61044c565b60405161013c9190611651565b61016d6108ee565b60405161013c919061165c565b61016d610188366004611508565b610900565b6101a061019b366004611520565b610915565b005b6101a06101b0366004611520565b61095d565b61012e6101c3366004611508565b61099f565b6101db6101d636600461154f565b610b70565b60405161013c91906115af565b6101a06101f6366004611588565b610ba5565b6101db610bf2565b6101db61021136600461154f565b610c01565b610158610224366004611520565b610c22565b610158610237366004611588565b610c3a565b61016d611166565b6101a06102523660046114e5565b61116b565b61016d6111b4565b61016d61026d366004611508565b6111ba565b6101a0610280366004611520565b6111d1565b6101db610293366004611508565b61120b565b60608060006102ae600454600280549050611247565b905060608167ffffffffffffffff811180156102c957600080fd5b506040519080825280602002602001820160405280156102f3578160200160208202803683370190505b50905060608267ffffffffffffffff8111801561030f57600080fd5b50604051908082528060200260200182016040528015610339578160200160208202803683370190505b50905060005b83811015610441576002818154811061035457fe5b9060005260206000200160009054906101000a90046001600160a01b031683828151811061037e57fe5b6001600160a01b039283166020918202929092010152600154845191169063d47875d0908590849081106103ae57fe5b60200260200101516040518263ffffffff1660e01b81526004016103d291906115af565b60206040518083038186803b1580156103ea57600080fd5b505afa1580156103fe573d6000803e3d6000fd5b505050506040513d601f19601f820116820180604052508101906104229190611570565b82828151811061042e57fe5b602090810291909101015260010161033f565b509093509150509091565b600061046660008051602061186283398151915233610c22565b61048b5760405162461bcd60e51b815260040161048290611793565b60405180910390fd5b600154604051630d47875d60e41b81526000916001600160a01b03169063d47875d0906104bc9086906004016115af565b60206040518083038186803b1580156104d457600080fd5b505afa1580156104e8573d6000803e3d6000fd5b505050506040513d601f19601f8201168201806040525081019061050c9190611570565b6002549091508061056c57505060028054600180820183556000929092527f405787fa12a823e0f2b7631cc41b3ba8828b3321ca811111fa75cd3aa3bb5ace0180546001600160a01b0319166001600160a01b03851617905590506108e9565b60025460011480156105a85750836001600160a01b0316600260008154811061059157fe5b6000918252602090912001546001600160a01b0316145b156105b8576001925050506108e9565b60005b818110156106b957846001600160a01b0316600282815481106105da57fe5b6000918252602090912001546001600160a01b031614156106b15760025460001901811461067b57805b60025460001901811015610679576002816001018154811061062257fe5b600091825260209091200154600280546001600160a01b03909216918390811061064857fe5b600091825260209091200180546001600160a01b0319166001600160a01b0392909216919091179055600101610604565b505b600280548061068657fe5b600082815260209020810160001990810180546001600160a01b031916905590810190915591909101905b6001016105bb565b5060005b8181101561088a576001546002805485926001600160a01b03169163d47875d091859081106106e857fe5b6000918252602090912001546040516001600160e01b031960e084901b16815261071e916001600160a01b0316906004016115af565b60206040518083038186803b15801561073657600080fd5b505afa15801561074a573d6000803e3d6000fd5b505050506040513d601f19601f8201168201806040525081019061076e9190611570565b10156108825760045460025410156107c157600280546001810182556000919091527f405787fa12a823e0f2b7631cc41b3ba8828b3321ca811111fa75cd3aa3bb5ace0180546001600160a01b03191690555b600254600019015b8181111561083957600260018203815481106107e157fe5b600091825260209091200154600280546001600160a01b03909216918390811061080757fe5b600091825260209091200180546001600160a01b0319166001600160a01b0392909216919091179055600019016107c9565b50846002828154811061084857fe5b9060005260206000200160006101000a8154816001600160a01b0302191690836001600160a01b03160217905550600193505050506108e9565b6001016106bd565b50600454600254116108e257600280546001810182556000919091527f405787fa12a823e0f2b7631cc41b3ba8828b3321ca811111fa75cd3aa3bb5ace0180546001600160a01b0319166001600160a01b0386161790555b6001925050505b919050565b60008051602061186283398151915281565b60009081526020819052604090206002015490565b6000828152602081905260409020600201546109339061022461125d565b61094f5760405162461bcd60e51b8152600401610482906116a7565b6109598282611261565b5050565b61096561125d565b6001600160a01b0316816001600160a01b0316146109955760405162461bcd60e51b8152600401610482906117e3565b61095982826112ca565b6004546000828152600360205260408120546060928392916109c19190611247565b905060608167ffffffffffffffff811180156109dc57600080fd5b50604051908082528060200260200182016040528015610a06578160200160208202803683370190505b50905060608267ffffffffffffffff81118015610a2257600080fd5b50604051908082528060200260200182016040528015610a4c578160200160208202803683370190505b50905060005b83811015610b64576000878152600360205260409020805482908110610a7457fe5b9060005260206000200160009054906101000a90046001600160a01b0316838281518110610a9e57fe5b6001600160a01b0392831660209182029290920101526001548451911690639e493199908990869085908110610ad057fe5b60200260200101516040518363ffffffff1660e01b8152600401610af5929190611832565b60206040518083038186803b158015610b0d57600080fd5b505afa158015610b21573d6000803e3d6000fd5b505050506040513d601f19601f82011682018060405250810190610b459190611570565b828281518110610b5157fe5b6020908102919091010152600101610a52565b50909350915050915091565b60036020528160005260406000208181548110610b8957fe5b6000918252602090912001546001600160a01b03169150829050565b610bbd60008051602061186283398151915233610c22565b610bd95760405162461bcd60e51b815260040161048290611793565b610be38282610c3a565b50610bed8161044c565b505050565b6001546001600160a01b031681565b6000828152602081905260408120610c199083611333565b90505b92915050565b6000828152602081905260408120610c19908361133f565b6000610c5460008051602061186283398151915233610c22565b610c705760405162461bcd60e51b815260040161048290611793565b600154604051639e49319960e01b81526000916001600160a01b031690639e49319990610ca39087908790600401611832565b60206040518083038186803b158015610cbb57600080fd5b505afa158015610ccf573d6000803e3d6000fd5b505050506040513d601f19601f82011682018060405250810190610cf39190611570565b60008581526003602052604090205490915080610d4c5750505060008281526003602090815260408220805460018082018355918452919092200180546001600160a01b0319166001600160a01b038416179055610c1c565b6000858152600360205260409020546001148015610d9e5750600085815260036020526040812080546001600160a01b0387169290610d8757fe5b6000918252602090912001546001600160a01b0316145b15610dae57600192505050610c1c565b60005b81811015610efc57600086815260036020526040902080546001600160a01b038716919083908110610ddf57fe5b6000918252602090912001546001600160a01b03161415610ef457600086815260036020526040902054600019018114610eb257805b60008781526003602052604090205460001901811015610eb0576000878152600360205260409020805460018301908110610e4c57fe5b60009182526020808320909101548983526003909152604090912080546001600160a01b039092169183908110610e7f57fe5b600091825260209091200180546001600160a01b0319166001600160a01b0392909216919091179055600101610e15565b505b6000868152600360205260409020805480610ec957fe5b600082815260209020810160001990810180546001600160a01b031916905590810190915591909101905b600101610db1565b5060005b8181101561110b576001546000878152600360205260409020805485926001600160a01b031691639e493199918a919086908110610f3a57fe5b6000918252602090912001546040516001600160e01b031960e085901b168152610f7192916001600160a01b031690600401611832565b60206040518083038186803b158015610f8957600080fd5b505afa158015610f9d573d6000803e3d6000fd5b505050506040513d601f19601f82011682018060405250810190610fc19190611570565b111561110357600454600087815260036020526040902054101561100c5760008681526003602090815260408220805460018101825590835291200180546001600160a01b03191690555b600086815260036020526040902054600019015b818111156110ab5760008781526003602052604090208054600019830190811061104657fe5b60009182526020808320909101548983526003909152604090912080546001600160a01b03909216918390811061107957fe5b600091825260209091200180546001600160a01b0319166001600160a01b039290921691909117905560001901611020565b5060008681526003602052604090208054869190839081106110c957fe5b9060005260206000200160006101000a8154816001600160a01b0302191690836001600160a01b0316021790555060019350505050610c1c565b600101610f00565b506004546000868152600360205260409020541161115b5760008581526003602090815260408220805460018101825590835291200180546001600160a01b0319166001600160a01b0386161790555b506001949350505050565b600081565b611176600033610c22565b6111925760405162461bcd60e51b815260040161048290611746565b600180546001600160a01b0319166001600160a01b0392909216919091179055565b60045481565b6000818152602081905260408120610c1c90611354565b6000828152602081905260409020600201546111ef9061022461125d565b6109955760405162461bcd60e51b8152600401610482906116f6565b6002818154811061121857fe5b6000918252602090912001546001600160a01b0316905081565b6000610c19836001600160a01b03841661135f565b60008183106112565781610c19565b5090919050565b3390565b60008281526020819052604090206112799082611232565b156109595761128661125d565b6001600160a01b0316816001600160a01b0316837f2f8788117e7eff1d82e926ec794901d17c78024a50270940304540a733656f0d60405160405180910390a45050565b60008281526020819052604090206112e290826113a9565b15610959576112ef61125d565b6001600160a01b0316816001600160a01b0316837ff6391f5c32d9c69d2a47ea670b442974b53935d1edc7fd64eb21e047a839171b60405160405180910390a45050565b6000610c1983836113be565b6000610c19836001600160a01b038416611403565b6000610c1c8261141b565b600061136b8383611403565b6113a157508154600181810184556000848152602080822090930184905584548482528286019093526040902091909155610c1c565b506000610c1c565b6000610c19836001600160a01b03841661141f565b815460009082106113e15760405162461bcd60e51b815260040161048290611665565b8260000182815481106113f057fe5b9060005260206000200154905092915050565b60009081526001919091016020526040902054151590565b5490565b600081815260018301602052604081205480156114db578354600019808301919081019060009087908390811061145257fe5b906000526020600020015490508087600001848154811061146f57fe5b60009182526020808320909101929092558281526001898101909252604090209084019055865487908061149f57fe5b60019003818190600052602060002001600090559055866001016000878152602001908152602001600020600090556001945050505050610c1c565b6000915050610c1c565b6000602082840312156114f6578081fd5b813561150181611849565b9392505050565b600060208284031215611519578081fd5b5035919050565b60008060408385031215611532578081fd5b82359150602083013561154481611849565b809150509250929050565b60008060408385031215611561578182fd5b50508035926020909101359150565b600060208284031215611581578081fd5b5051919050565b60008060408385031215611532578182fd5b815260200190565b6001600160a01b03169052565b6001600160a01b0391909116815260200190565b604080825283519082018190526000906020906060840190828701845b82811015611603576115f38483516115a2565b92840192908401906001016115e0565b5050508381038285015280855161161a818461165c565b91508387019250845b818110156116445761163683855161159a565b938501939250600101611623565b5090979650505050505050565b901515815260200190565b90815260200190565b60208082526022908201527f456e756d657261626c655365743a20696e646578206f7574206f6620626f756e604082015261647360f01b606082015260800190565b6020808252602f908201527f416363657373436f6e74726f6c3a2073656e646572206d75737420626520616e60408201526e0818591b5a5b881d1bc819dc985b9d608a1b606082015260800190565b60208082526030908201527f416363657373436f6e74726f6c3a2073656e646572206d75737420626520616e60408201526f2061646d696e20746f207265766f6b6560801b606082015260800190565b6020808252602d908201527f476f6c64656e416e616e617352616e6b3a2053656e646572206d75737420686160408201526c76652061646d696e20726f6c6560981b606082015260800190565b60208082526030908201527f476f6c64656e416e616e617352616e6b3a2053656e646572206d75737420686160408201526f7665206578656375746f7220726f6c6560801b606082015260800190565b6020808252602f908201527f416363657373436f6e74726f6c3a2063616e206f6e6c792072656e6f756e636560408201526e103937b632b9903337b91039b2b63360891b606082015260800190565b9182526001600160a01b0316602082015260400190565b6001600160a01b038116811461185e57600080fd5b5056fed8aa0f3194971a2a116679f7c2090f6939c8d4e01a2a8d7e41d55e5351469e63a26469706673582212202b9ff5e121ce456c7fe67c531d577b5e339fafb762f03c0b334100f6890f52bf64736f6c634300060c0033",
  "immutableReferences": {},
  "source": "// SPDX-License-Identifier: MIT\npragma solidity ^0.6.12;\npragma experimental ABIEncoderV2;\n\nimport \"./openzeppelin/SafeMath.sol\";\nimport \"./openzeppelin/IERC20.sol\";\n\nimport \"./GoldenAnanasScore.sol\";\n\ncontract GoldenAnanasRank is AccessControl {\n\n  using SafeMath for uint;\n  bytes32 public constant EXECUTOR_ROLE = keccak256(\"EXECUTOR_ROLE\");\n\n  GoldenAnanasScore public goldenAnanasScore;\n  address[] public ranks;\n  mapping(uint256 => address[]) public ranksByLevel;\n  uint256 public ranksSize;\n\n  constructor(\n    GoldenAnanasScore _goldenAnanasScore,\n    uint256 _ranksSize\n  ) public {\n\n    goldenAnanasScore = _goldenAnanasScore;\n    ranksSize = _ranksSize;\n    _setupRole(DEFAULT_ADMIN_ROLE, msg.sender);\n    _setupRole(EXECUTOR_ROLE, msg.sender);\n\n  }\n\n  function setGoldenAnanasScore(GoldenAnanasScore _goldenAnanasScore) public {\n\n    require(hasRole(DEFAULT_ADMIN_ROLE, msg.sender), \"GoldenAnanasRank: Sender must have admin role\");\n    goldenAnanasScore = _goldenAnanasScore;\n\n  }\n\n  function updateAllRanks(uint256 _level, address _player) public {\n\n    require(hasRole(EXECUTOR_ROLE, msg.sender), \"GoldenAnanasRank: Sender must have executor role\");\n    updateRanksByLevel(_level, _player);\n    updateRanks(_player);\n\n  }\n\n  function updateRanksByLevel(uint256 _level, address _player) public returns(bool) {\n\n    require(hasRole(EXECUTOR_ROLE, msg.sender), \"GoldenAnanasRank: Sender must have executor role\");\n\n    uint256 scoreLevel = goldenAnanasScore.getScoreByLevel(_level, _player);\n    uint256 size = ranksByLevel[_level].length;\n\n    if(ranksByLevel[_level].length == 0){\n\n      ranksByLevel[_level].push(_player);\n\n      return true;\n\n    }\n\n    if(ranksByLevel[_level].length == 1 && ranksByLevel[_level][0] == _player){\n\n      return true;\n\n    }\n\n    for (uint i = 0; i < size; i++) {\n\n      if(ranksByLevel[_level][i] == _player){\n\n        if(i != ranksByLevel[_level].length -1){\n\n          for (uint j = i; j < ranksByLevel[_level].length - 1; j++){\n\n            ranksByLevel[_level][j] = ranksByLevel[_level][j + 1];\n\n          }\n\n        }\n\n        ranksByLevel[_level].pop();\n        size--;\n\n      }\n\n    }\n\n    for (uint i = 0; i < size; i++) {\n\n      if(goldenAnanasScore.getScoreByLevel(_level, ranksByLevel[_level][i]) > scoreLevel){\n\n        if(ranksByLevel[_level].length < ranksSize){\n\n          ranksByLevel[_level].push(address(0) );\n\n        }\n\n        for(uint j = ranksByLevel[_level].length -1; j > i; j--){\n\n          ranksByLevel[_level][j] = ranksByLevel[_level][j -1];\n\n        }\n\n        ranksByLevel[_level][i] = _player;\n        return true;\n\n      }\n\n    }\n\n    if(ranksByLevel[_level].length <= ranksSize){\n\n      ranksByLevel[_level].push(_player);\n\n    }\n\n    return true;\n\n  }\n\n  function updateRanks(address _player) public returns(bool) {\n\n    require(hasRole(EXECUTOR_ROLE, msg.sender), \"GoldenAnanasRank: Sender must have executor role\");\n    uint256 score = goldenAnanasScore.getScore(_player);\n    uint256 size = ranks.length;\n\n    if(ranks.length == 0){\n\n      ranks.push(_player);\n\n      return true;\n\n    }\n\n    if(ranks.length == 1 && ranks[0] == _player){\n\n      return true;\n\n    }\n\n    for (uint i = 0; i < size; i++) {\n\n      if(ranks[i] == _player){\n\n        if(i != ranks.length -1){\n\n          for (uint j = i; j < ranks.length -1; j++){\n\n            ranks[j] = ranks[j + 1];\n\n          }\n\n        }\n\n        ranks.pop();\n        size--;\n\n      }\n\n    }\n\n    for (uint i = 0; i < size; i++) {\n\n      if(goldenAnanasScore.getScore(ranks[i]) < score){\n\n        if(ranks.length < ranksSize){\n\n          ranks.push(address(0) );\n\n        }\n\n        for(uint j = ranks.length -1; j > i; j--){\n\n          ranks[j] = ranks[j -1];\n\n        }\n\n        ranks[i] = _player;\n        return true;\n\n      }\n\n    }\n\n    if(ranks.length <= ranksSize){\n\n      ranks.push(_player);\n\n    }\n\n    return true;\n\n  }\n\n  function getRanks() public view returns (address[] memory, uint256[] memory){\n\n    uint256 size = min(ranksSize, ranks.length);\n    address[] memory players = new address[](size);\n    uint256[] memory scores = new uint256[](size);\n\n    for (uint i = 0; i < size; i++) {\n\n      players[i] = ranks[i];\n      scores[i] = goldenAnanasScore.getScore(players[i]);\n\n    }\n\n    return (players, scores);\n\n  }\n\n  function getRanksByLevel(uint256 _level) public view returns (address[] memory, uint256[] memory){\n\n    uint256 size = min(ranksSize, ranksByLevel[_level].length);\n    address[] memory players = new address[](size);\n    uint256[] memory scores = new uint256[](size);\n\n    for (uint i = 0; i < size; i++) {\n\n      players[i] = ranksByLevel[_level][i];\n      scores[i] = goldenAnanasScore.getScoreByLevel(_level, players[i]);\n\n    }\n\n    return (players, scores);\n\n  }\n\n  function min(uint256 a, uint256 b) internal pure returns (uint256) {\n    return a < b ? a : b;\n  }\n\n}\n",
  "sourcePath": "/Users/jules/WebstormProjects/decentraland/golden-ananas-contract/contracts/GoldenAnanasRank.sol",
  "compiler": {
    "name": "solc",
    "version": "0.6.12+commit.27d51765.Emscripten.clang"
  },
  "schemaVersion": "3.2.4",
  "updatedAt": "2020-09-08T14:53:18.665Z",
  "networkType": "ethereum",
  "devdoc": {
    "kind": "dev",
    "methods": {
      "getRoleAdmin(bytes32)": {
        "details": "Returns the admin role that controls `role`. See {grantRole} and {revokeRole}. To change a role's admin, use {_setRoleAdmin}."
      },
      "getRoleMember(bytes32,uint256)": {
        "details": "Returns one of the accounts that have `role`. `index` must be a value between 0 and {getRoleMemberCount}, non-inclusive. Role bearers are not sorted in any particular way, and their ordering may change at any point. WARNING: When using {getRoleMember} and {getRoleMemberCount}, make sure you perform all queries on the same block. See the following https://forum.openzeppelin.com/t/iterating-over-elements-on-enumerableset-in-openzeppelin-contracts/2296[forum post] for more information."
      },
      "getRoleMemberCount(bytes32)": {
        "details": "Returns the number of accounts that have `role`. Can be used together with {getRoleMember} to enumerate all bearers of a role."
      },
      "grantRole(bytes32,address)": {
        "details": "Grants `role` to `account`. If `account` had not been already granted `role`, emits a {RoleGranted} event. Requirements: - the caller must have ``role``'s admin role."
      },
      "hasRole(bytes32,address)": {
        "details": "Returns `true` if `account` has been granted `role`."
      },
      "renounceRole(bytes32,address)": {
        "details": "Revokes `role` from the calling account. Roles are often managed via {grantRole} and {revokeRole}: this function's purpose is to provide a mechanism for accounts to lose their privileges if they are compromised (such as when a trusted device is misplaced). If the calling account had been granted `role`, emits a {RoleRevoked} event. Requirements: - the caller must be `account`."
      },
      "revokeRole(bytes32,address)": {
        "details": "Revokes `role` from `account`. If `account` had been granted `role`, emits a {RoleRevoked} event. Requirements: - the caller must have ``role``'s admin role."
      }
    },
    "version": 1
  },
  "userdoc": {
    "kind": "user",
    "methods": {},
    "version": 1
  }
}