{
  "contractName": "GoldenAnanasRank",
  "abi": [
    {
      "inputs": [
        {
          "internalType": "contract GoldenAnanasScore",
          "name": "_goldenAnanasScore",
          "type": "address"
        },
        {
          "internalType": "uint256",
          "name": "_ranksSize",
          "type": "uint256"
        }
      ],
      "stateMutability": "nonpayable",
      "type": "constructor"
    },
    {
      "anonymous": false,
      "inputs": [
        {
          "indexed": true,
          "internalType": "address",
          "name": "account",
          "type": "address"
        }
      ],
      "name": "AdminAdded",
      "type": "event"
    },
    {
      "anonymous": false,
      "inputs": [
        {
          "indexed": true,
          "internalType": "address",
          "name": "account",
          "type": "address"
        }
      ],
      "name": "AdminRemoved",
      "type": "event"
    },
    {
      "anonymous": false,
      "inputs": [
        {
          "indexed": true,
          "internalType": "address",
          "name": "account",
          "type": "address"
        }
      ],
      "name": "ExecutorAdded",
      "type": "event"
    },
    {
      "anonymous": false,
      "inputs": [
        {
          "indexed": true,
          "internalType": "address",
          "name": "account",
          "type": "address"
        }
      ],
      "name": "ExecutorRemoved",
      "type": "event"
    },
    {
      "inputs": [
        {
          "internalType": "address",
          "name": "account",
          "type": "address"
        }
      ],
      "name": "addAdmin",
      "outputs": [],
      "stateMutability": "nonpayable",
      "type": "function"
    },
    {
      "inputs": [
        {
          "internalType": "address",
          "name": "account",
          "type": "address"
        }
      ],
      "name": "addExecutor",
      "outputs": [],
      "stateMutability": "nonpayable",
      "type": "function"
    },
    {
      "inputs": [],
      "name": "goldenAnanasScore",
      "outputs": [
        {
          "internalType": "contract GoldenAnanasScore",
          "name": "",
          "type": "address"
        }
      ],
      "stateMutability": "view",
      "type": "function",
      "constant": true
    },
    {
      "inputs": [
        {
          "internalType": "address",
          "name": "account",
          "type": "address"
        }
      ],
      "name": "isAdmin",
      "outputs": [
        {
          "internalType": "bool",
          "name": "",
          "type": "bool"
        }
      ],
      "stateMutability": "view",
      "type": "function",
      "constant": true
    },
    {
      "inputs": [
        {
          "internalType": "address",
          "name": "account",
          "type": "address"
        }
      ],
      "name": "isExecutor",
      "outputs": [
        {
          "internalType": "bool",
          "name": "",
          "type": "bool"
        }
      ],
      "stateMutability": "view",
      "type": "function",
      "constant": true
    },
    {
      "inputs": [
        {
          "internalType": "uint256",
          "name": "",
          "type": "uint256"
        }
      ],
      "name": "ranks",
      "outputs": [
        {
          "internalType": "address",
          "name": "",
          "type": "address"
        }
      ],
      "stateMutability": "view",
      "type": "function",
      "constant": true
    },
    {
      "inputs": [
        {
          "internalType": "uint256",
          "name": "",
          "type": "uint256"
        },
        {
          "internalType": "uint256",
          "name": "",
          "type": "uint256"
        }
      ],
      "name": "ranksByLevel",
      "outputs": [
        {
          "internalType": "address",
          "name": "",
          "type": "address"
        }
      ],
      "stateMutability": "view",
      "type": "function",
      "constant": true
    },
    {
      "inputs": [],
      "name": "ranksSize",
      "outputs": [
        {
          "internalType": "uint256",
          "name": "",
          "type": "uint256"
        }
      ],
      "stateMutability": "view",
      "type": "function",
      "constant": true
    },
    {
      "inputs": [],
      "name": "renounceAdmin",
      "outputs": [],
      "stateMutability": "nonpayable",
      "type": "function"
    },
    {
      "inputs": [],
      "name": "renounceExecutor",
      "outputs": [],
      "stateMutability": "nonpayable",
      "type": "function"
    },
    {
      "inputs": [
        {
          "internalType": "contract GoldenAnanasScore",
          "name": "_goldenAnanasScore",
          "type": "address"
        }
      ],
      "name": "setGoldenAnanasScore",
      "outputs": [],
      "stateMutability": "nonpayable",
      "type": "function"
    },
    {
      "inputs": [
        {
          "internalType": "uint256",
          "name": "_level",
          "type": "uint256"
        },
        {
          "internalType": "address",
          "name": "_player",
          "type": "address"
        }
      ],
      "name": "updateAllRanks",
      "outputs": [],
      "stateMutability": "nonpayable",
      "type": "function"
    },
    {
      "inputs": [
        {
          "internalType": "uint256",
          "name": "_level",
          "type": "uint256"
        },
        {
          "internalType": "address",
          "name": "_player",
          "type": "address"
        }
      ],
      "name": "updateRanksByLevel",
      "outputs": [
        {
          "internalType": "bool",
          "name": "",
          "type": "bool"
        }
      ],
      "stateMutability": "nonpayable",
      "type": "function"
    },
    {
      "inputs": [
        {
          "internalType": "address",
          "name": "_player",
          "type": "address"
        }
      ],
      "name": "updateRanks",
      "outputs": [
        {
          "internalType": "bool",
          "name": "",
          "type": "bool"
        }
      ],
      "stateMutability": "nonpayable",
      "type": "function"
    },
    {
      "inputs": [],
      "name": "getRanks",
      "outputs": [
        {
          "internalType": "address[]",
          "name": "",
          "type": "address[]"
        },
        {
          "internalType": "uint256[]",
          "name": "",
          "type": "uint256[]"
        }
      ],
      "stateMutability": "view",
      "type": "function",
      "constant": true
    },
    {
      "inputs": [
        {
          "internalType": "uint256",
          "name": "_level",
          "type": "uint256"
        }
      ],
      "name": "getRanksByLevel",
      "outputs": [
        {
          "internalType": "address[]",
          "name": "",
          "type": "address[]"
        },
        {
          "internalType": "uint256[]",
          "name": "",
          "type": "uint256[]"
        }
      ],
      "stateMutability": "view",
      "type": "function",
      "constant": true
    }
  ],
  "bytecode": "0x60806040523480156200001157600080fd5b506040516200189c3803806200189c8339810160408190526200003491620001bd565b6200003f3362000074565b6200004a33620000c6565b600280546001600160a01b0319166001600160a01b03939093169290921790915560055562000270565b6200008f8160006200011860201b620010fb1790919060201c565b6040516001600160a01b038216907fae5b7c3b000f575c241001dc9bcb3d8778376889353b07121115574eceff78c590600090a250565b620000e18160016200011860201b620010fb1790919060201c565b6040516001600160a01b038216907f44d6d25963f097ad14f29f06854a01f575648a1ef82f30e562ccd3889717e33990600090a250565b62000124828262000172565b156200014d5760405162461bcd60e51b81526004016200014490620001f7565b60405180910390fd5b6001600160a01b0316600090815260209190915260409020805460ff19166001179055565b60006001600160a01b0382166200019d5760405162461bcd60e51b815260040162000144906200022e565b506001600160a01b03166000908152602091909152604090205460ff1690565b60008060408385031215620001d0578182fd5b82516001600160a01b0381168114620001e7578283fd5b6020939093015192949293505050565b6020808252601f908201527f526f6c65733a206163636f756e7420616c72656164792068617320726f6c6500604082015260600190565b60208082526022908201527f526f6c65733a206163636f756e7420697320746865207a65726f206164647265604082015261737360f01b606082015260800190565b61161c80620002806000396000f3fe608060405234801561001057600080fd5b50600436106101005760003560e01c80637ce2bc4911610097578063aafa5a0711610066578063aafa5a07146101f0578063be0d8a5214610203578063debfda3014610218578063df927bbe1461022b57610100565b80637ce2bc49146101ba5780638bad0c0a146101cd5780638c0ae547146101d55780639a0ae6e2146101dd57610100565b80636173fb38116100d35780636173fb381461016c5780636cc9aad01461017f57806370480275146101875780637263548b1461019a57610100565b806304867ecc14610105578063050db738146101245780631f5a0bbe1461014457806324d7806c14610159575b600080fd5b61010d61023e565b60405161011b9291906113bc565b60405180910390f35b6101376101323660046112f7565b6103f2565b60405161011b919061144a565b6101576101523660046112f7565b610885565b005b6101376101673660046112f7565b6108b6565b61010d61017a366004611313565b6108c9565b610157610a9a565b6101576101953660046112f7565b610aa5565b6101ad6101a8366004611372565b610ad3565b60405161011b91906113a8565b6101576101c8366004611343565b610b08565b610157610b46565b6101ad610b4f565b6101376101eb366004611343565b610b5e565b6101576101fe3660046112f7565b61107b565b61020b6110c2565b60405161011b91906115b1565b6101376102263660046112f7565b6110c8565b6101ad610239366004611313565b6110d4565b6060806000610254600554600380549050611147565b905060608167ffffffffffffffff8111801561026f57600080fd5b50604051908082528060200260200182016040528015610299578160200160208202803683370190505b50905060608267ffffffffffffffff811180156102b557600080fd5b506040519080825280602002602001820160405280156102df578160200160208202803683370190505b50905060005b838110156103e757600381815481106102fa57fe5b9060005260206000200160009054906101000a90046001600160a01b031683828151811061032457fe5b6001600160a01b039283166020918202929092010152600254845191169063d47875d09085908490811061035457fe5b60200260200101516040518263ffffffff1660e01b815260040161037891906113a8565b60206040518083038186803b15801561039057600080fd5b505afa1580156103a4573d6000803e3d6000fd5b505050506040513d601f19601f820116820180604052508101906103c8919061132b565b8282815181106103d457fe5b60209081029190910101526001016102e5565b509093509150509091565b60006103fd336110c8565b6104225760405162461bcd60e51b8152600401610419906114cd565b60405180910390fd5b600254604051630d47875d60e41b81526000916001600160a01b03169063d47875d0906104539086906004016113a8565b60206040518083038186803b15801561046b57600080fd5b505afa15801561047f573d6000803e3d6000fd5b505050506040513d601f19601f820116820180604052508101906104a3919061132b565b6003549091508061050357505060038054600180820183556000929092527fc2575a0e9e593c00f959f8c92f12db2869c3395a3b0502d05e2516446f71f85b0180546001600160a01b0319166001600160a01b0385161790559050610880565b600354600114801561053f5750836001600160a01b0316600360008154811061052857fe5b6000918252602090912001546001600160a01b0316145b1561054f57600192505050610880565b60005b8181101561065057846001600160a01b03166003828154811061057157fe5b6000918252602090912001546001600160a01b031614156106485760035460001901811461061257805b6003546000190181101561061057600381600101815481106105b957fe5b600091825260209091200154600380546001600160a01b0390921691839081106105df57fe5b600091825260209091200180546001600160a01b0319166001600160a01b039290921691909117905560010161059b565b505b600380548061061d57fe5b600082815260209020810160001990810180546001600160a01b031916905590810190915591909101905b600101610552565b5060005b81811015610821576002546003805485926001600160a01b03169163d47875d0918590811061067f57fe5b6000918252602090912001546040516001600160e01b031960e084901b1681526106b5916001600160a01b0316906004016113a8565b60206040518083038186803b1580156106cd57600080fd5b505afa1580156106e1573d6000803e3d6000fd5b505050506040513d601f19601f82011682018060405250810190610705919061132b565b101561081957600554600354101561075857600380546001810182556000919091527fc2575a0e9e593c00f959f8c92f12db2869c3395a3b0502d05e2516446f71f85b0180546001600160a01b03191690555b600354600019015b818111156107d0576003600182038154811061077857fe5b600091825260209091200154600380546001600160a01b03909216918390811061079e57fe5b600091825260209091200180546001600160a01b0319166001600160a01b039290921691909117905560001901610760565b5084600382815481106107df57fe5b9060005260206000200160006101000a8154816001600160a01b0302191690836001600160a01b0316021790555060019350505050610880565b600101610654565b506005546003541161087957600380546001810182556000919091527fc2575a0e9e593c00f959f8c92f12db2869c3395a3b0502d05e2516446f71f85b0180546001600160a01b0319166001600160a01b0386161790555b6001925050505b919050565b61088e336110c8565b6108aa5760405162461bcd60e51b8152600401610419906114cd565b6108b38161115f565b50565b60006108c36001836111a1565b92915050565b6005546000828152600460205260408120546060928392916108eb9190611147565b905060608167ffffffffffffffff8111801561090657600080fd5b50604051908082528060200260200182016040528015610930578160200160208202803683370190505b50905060608267ffffffffffffffff8111801561094c57600080fd5b50604051908082528060200260200182016040528015610976578160200160208202803683370190505b50905060005b83811015610a8e57600087815260046020526040902080548290811061099e57fe5b9060005260206000200160009054906101000a90046001600160a01b03168382815181106109c857fe5b6001600160a01b0392831660209182029290920101526002548451911690639e4931999089908690859081106109fa57fe5b60200260200101516040518363ffffffff1660e01b8152600401610a1f9291906115ba565b60206040518083038186803b158015610a3757600080fd5b505afa158015610a4b573d6000803e3d6000fd5b505050506040513d601f19601f82011682018060405250810190610a6f919061132b565b828281518110610a7b57fe5b602090810291909101015260010161097c565b50909350915050915091565b610aa3336111e9565b565b610aae336108b6565b610aca5760405162461bcd60e51b815260040161041990611563565b6108b38161122b565b60046020528160005260406000208181548110610aec57fe5b6000918252602090912001546001600160a01b03169150829050565b610b11336110c8565b610b2d5760405162461bcd60e51b8152600401610419906114cd565b610b378282610b5e565b50610b41816103f2565b505050565b610aa33361126d565b6002546001600160a01b031681565b6000610b69336110c8565b610b855760405162461bcd60e51b8152600401610419906114cd565b600254604051639e49319960e01b81526000916001600160a01b031690639e49319990610bb890879087906004016115ba565b60206040518083038186803b158015610bd057600080fd5b505afa158015610be4573d6000803e3d6000fd5b505050506040513d601f19601f82011682018060405250810190610c08919061132b565b60008581526004602052604090205490915080610c615750505060008281526004602090815260408220805460018082018355918452919092200180546001600160a01b0319166001600160a01b0384161790556108c3565b6000858152600460205260409020546001148015610cb35750600085815260046020526040812080546001600160a01b0387169290610c9c57fe5b6000918252602090912001546001600160a01b0316145b15610cc3576001925050506108c3565b60005b81811015610e1157600086815260046020526040902080546001600160a01b038716919083908110610cf457fe5b6000918252602090912001546001600160a01b03161415610e0957600086815260046020526040902054600019018114610dc757805b60008781526004602052604090205460001901811015610dc5576000878152600460205260409020805460018301908110610d6157fe5b60009182526020808320909101548983526004909152604090912080546001600160a01b039092169183908110610d9457fe5b600091825260209091200180546001600160a01b0319166001600160a01b0392909216919091179055600101610d2a565b505b6000868152600460205260409020805480610dde57fe5b600082815260209020810160001990810180546001600160a01b031916905590810190915591909101905b600101610cc6565b5060005b81811015611020576002546000878152600460205260409020805485926001600160a01b031691639e493199918a919086908110610e4f57fe5b6000918252602090912001546040516001600160e01b031960e085901b168152610e8692916001600160a01b0316906004016115ba565b60206040518083038186803b158015610e9e57600080fd5b505afa158015610eb2573d6000803e3d6000fd5b505050506040513d601f19601f82011682018060405250810190610ed6919061132b565b1115611018576005546000878152600460205260409020541015610f215760008681526004602090815260408220805460018101825590835291200180546001600160a01b03191690555b600086815260046020526040902054600019015b81811115610fc057600087815260046020526040902080546000198301908110610f5b57fe5b60009182526020808320909101548983526004909152604090912080546001600160a01b039092169183908110610f8e57fe5b600091825260209091200180546001600160a01b0319166001600160a01b039290921691909117905560001901610f35565b506000868152600460205260409020805486919083908110610fde57fe5b9060005260206000200160006101000a8154816001600160a01b0302191690836001600160a01b03160217905550600193505050506108c3565b600101610e15565b50600554600086815260046020526040902054116110705760008581526004602090815260408220805460018101825590835291200180546001600160a01b0319166001600160a01b0386161790555b506001949350505050565b611084336108b6565b6110a05760405162461bcd60e51b815260040161041990611563565b600280546001600160a01b0319166001600160a01b0392909216919091179055565b60055481565b60006108c381836111a1565b600381815481106110e157fe5b6000918252602090912001546001600160a01b0316905081565b61110582826111a1565b156111225760405162461bcd60e51b815260040161041990611455565b6001600160a01b0316600090815260209190915260409020805460ff19166001179055565b60008183106111565781611158565b825b9392505050565b61116a6000826110fb565b6040516001600160a01b038216907fae5b7c3b000f575c241001dc9bcb3d8778376889353b07121115574eceff78c590600090a250565b60006001600160a01b0382166111c95760405162461bcd60e51b815260040161041990611521565b506001600160a01b03166000908152602091909152604090205460ff1690565b6111f46000826112af565b6040516001600160a01b038216907f4a2cf608bfb427f53279ec7f0eadf48913b9346ccefc3af138dbdec14ea0907d90600090a250565b6112366001826110fb565b6040516001600160a01b038216907f44d6d25963f097ad14f29f06854a01f575648a1ef82f30e562ccd3889717e33990600090a250565b6112786001826112af565b6040516001600160a01b038216907fa3b62bc36326052d97ea62d63c3d60308ed4c3ea8ac079dd8499f1e9c4f80c0f90600090a250565b6112b982826111a1565b6112d55760405162461bcd60e51b81526004016104199061148c565b6001600160a01b0316600090815260209190915260409020805460ff19169055565b600060208284031215611308578081fd5b8135611158816115d1565b600060208284031215611324578081fd5b5035919050565b60006020828403121561133c578081fd5b5051919050565b60008060408385031215611355578081fd5b823591506020830135611367816115d1565b809150509250929050565b60008060408385031215611384578182fd5b50508035926020909101359150565b815260200190565b6001600160a01b03169052565b6001600160a01b0391909116815260200190565b604080825283519082018190526000906020906060840190828701845b828110156113fc576113ec84835161139b565b92840192908401906001016113d9565b5050508381038285015280855161141381846115b1565b91508387019250845b8181101561143d5761142f838551611393565b93850193925060010161141c565b5090979650505050505050565b901515815260200190565b6020808252601f908201527f526f6c65733a206163636f756e7420616c72656164792068617320726f6c6500604082015260600190565b60208082526021908201527f526f6c65733a206163636f756e7420646f6573206e6f74206861766520726f6c6040820152606560f81b606082015260800190565b60208082526034908201527f4578656375746f72526f6c653a2063616c6c657220646f6573206e6f74206861604082015273766520746865204578656375746f7220726f6c6560601b606082015260800190565b60208082526022908201527f526f6c65733a206163636f756e7420697320746865207a65726f206164647265604082015261737360f01b606082015260800190565b6020808252602e908201527f41646d696e526f6c653a2063616c6c657220646f6573206e6f7420686176652060408201526d7468652041646d696e20726f6c6560901b606082015260800190565b90815260200190565b9182526001600160a01b0316602082015260400190565b6001600160a01b03811681146108b357600080fdfea26469706673582212207cd53cf56d368ed8208a2dd3534fb4964ec1f200556e4e5d7e5deff61a74eef564736f6c634300060c0033",
  "immutableReferences": {},
  "source": "// SPDX-License-Identifier: UNLICENSED\npragma solidity ^0.6.12;\npragma experimental ABIEncoderV2;\n\nimport \"./openzeppelin/SafeMath.sol\";\nimport \"./openzeppelin/IERC20.sol\";\n\nimport \"./AdminRole.sol\";\nimport \"./Executor.sol\";\nimport \"./GoldenAnanasScore.sol\";\n\ncontract GoldenAnanasRank is ExecutorRole, AdminRole {\n\n  using SafeMath for uint;\n\n  GoldenAnanasScore public goldenAnanasScore;\n  address[] public ranks;\n  mapping(uint256 => address[]) public ranksByLevel;\n  uint256 public ranksSize;\n\n  constructor(\n    GoldenAnanasScore _goldenAnanasScore,\n    uint256 _ranksSize\n  ) public {\n\n    goldenAnanasScore = _goldenAnanasScore;\n    ranksSize = _ranksSize;\n\n  }\n\n  function setGoldenAnanasScore(GoldenAnanasScore _goldenAnanasScore) public onlyAdmin {\n\n    goldenAnanasScore = _goldenAnanasScore;\n\n  }\n\n  function updateAllRanks(uint256 _level, address _player) public onlyExecutor {\n\n    updateRanksByLevel(_level, _player);\n    updateRanks(_player);\n\n  }\n\n  function updateRanksByLevel(uint256 _level, address _player) public onlyExecutor returns(bool) {\n\n    uint256 scoreLevel = goldenAnanasScore.getScoreByLevel(_level, _player);\n    uint256 size = ranksByLevel[_level].length;\n\n    if(ranksByLevel[_level].length == 0){\n\n      ranksByLevel[_level].push(_player);\n\n      return true;\n\n    }\n\n    if(ranksByLevel[_level].length == 1 && ranksByLevel[_level][0] == _player){\n\n      return true;\n\n    }\n\n    for (uint i = 0; i < size; i++) {\n\n      if(ranksByLevel[_level][i] == _player){\n\n        if(i != ranksByLevel[_level].length -1){\n\n          for (uint j = i; j < ranksByLevel[_level].length - 1; j++){\n\n            ranksByLevel[_level][j] = ranksByLevel[_level][j + 1];\n\n          }\n\n        }\n\n        ranksByLevel[_level].pop();\n        size--;\n\n      }\n\n    }\n\n    for (uint i = 0; i < size; i++) {\n\n      if(goldenAnanasScore.getScoreByLevel(_level, ranksByLevel[_level][i]) > scoreLevel){\n\n        if(ranksByLevel[_level].length < ranksSize){\n\n          ranksByLevel[_level].push(address(0) );\n\n        }\n\n        for(uint j = ranksByLevel[_level].length -1; j > i; j--){\n\n          ranksByLevel[_level][j] = ranksByLevel[_level][j -1];\n\n        }\n\n        ranksByLevel[_level][i] = _player;\n        return true;\n\n      }\n\n    }\n\n    if(ranksByLevel[_level].length <= ranksSize){\n\n      ranksByLevel[_level].push(_player);\n\n    }\n\n    return true;\n\n  }\n\n  function updateRanks(address _player) public onlyExecutor returns(bool) {\n\n    uint256 score = goldenAnanasScore.getScore(_player);\n    uint256 size = ranks.length;\n\n    if(ranks.length == 0){\n\n      ranks.push(_player);\n\n      return true;\n\n    }\n\n    if(ranks.length == 1 && ranks[0] == _player){\n\n      return true;\n\n    }\n\n    for (uint i = 0; i < size; i++) {\n\n      if(ranks[i] == _player){\n\n        if(i != ranks.length -1){\n\n          for (uint j = i; j < ranks.length -1; j++){\n\n            ranks[j] = ranks[j + 1];\n\n          }\n\n        }\n\n        ranks.pop();\n        size--;\n\n      }\n\n    }\n\n    for (uint i = 0; i < size; i++) {\n\n      if(goldenAnanasScore.getScore(ranks[i]) < score){\n\n        if(ranks.length < ranksSize){\n\n          ranks.push(address(0) );\n\n        }\n\n        for(uint j = ranks.length -1; j > i; j--){\n\n          ranks[j] = ranks[j -1];\n\n        }\n\n        ranks[i] = _player;\n        return true;\n\n      }\n\n    }\n\n    if(ranks.length <= ranksSize){\n\n      ranks.push(_player);\n\n    }\n\n    return true;\n\n  }\n\n  function getRanks() public view returns (address[] memory, uint256[] memory){\n\n    uint256 size = min(ranksSize, ranks.length);\n    address[] memory players = new address[](size);\n    uint256[] memory scores = new uint256[](size);\n\n    for (uint i = 0; i < size; i++) {\n\n      players[i] = ranks[i];\n      scores[i] = goldenAnanasScore.getScore(players[i]);\n\n    }\n\n    return (players, scores);\n\n  }\n\n  function getRanksByLevel(uint256 _level) public view returns (address[] memory, uint256[] memory){\n\n    uint256 size = min(ranksSize, ranksByLevel[_level].length);\n    address[] memory players = new address[](size);\n    uint256[] memory scores = new uint256[](size);\n\n    for (uint i = 0; i < size; i++) {\n\n      players[i] = ranksByLevel[_level][i];\n      scores[i] = goldenAnanasScore.getScoreByLevel(_level, players[i]);\n\n    }\n\n    return (players, scores);\n\n  }\n\n\n  function min(uint256 a, uint256 b) internal pure returns (uint256) {\n    return a < b ? a : b;\n  }\n\n}\n",
  "sourcePath": "/Users/jules/WebstormProjects/decentraland/goldananasContract/contracts/GoldenAnanasRank.sol",
  "compiler": {
    "name": "solc",
    "version": "0.6.12+commit.27d51765.Emscripten.clang"
  },
  "schemaVersion": "3.2.4",
  "updatedAt": "2020-09-03T16:09:06.421Z",
  "networkType": "ethereum",
  "devdoc": {
    "kind": "dev",
    "methods": {},
    "version": 1
  },
  "userdoc": {
    "kind": "user",
    "methods": {},
    "version": 1
  }
}