{
  "contractName": "TrophyToken",
  "abi": [
    {
      "inputs": [
        {
          "internalType": "string",
          "name": "_name",
          "type": "string"
        },
        {
          "internalType": "string",
          "name": "_symbol",
          "type": "string"
        }
      ],
      "stateMutability": "nonpayable",
      "type": "constructor"
    },
    {
      "anonymous": false,
      "inputs": [
        {
          "indexed": true,
          "internalType": "address",
          "name": "owner",
          "type": "address"
        },
        {
          "indexed": true,
          "internalType": "address",
          "name": "approved",
          "type": "address"
        },
        {
          "indexed": true,
          "internalType": "uint256",
          "name": "tokenId",
          "type": "uint256"
        }
      ],
      "name": "Approval",
      "type": "event"
    },
    {
      "anonymous": false,
      "inputs": [
        {
          "indexed": true,
          "internalType": "address",
          "name": "owner",
          "type": "address"
        },
        {
          "indexed": true,
          "internalType": "address",
          "name": "operator",
          "type": "address"
        },
        {
          "indexed": false,
          "internalType": "bool",
          "name": "approved",
          "type": "bool"
        }
      ],
      "name": "ApprovalForAll",
      "type": "event"
    },
    {
      "anonymous": false,
      "inputs": [
        {
          "indexed": true,
          "internalType": "bytes32",
          "name": "role",
          "type": "bytes32"
        },
        {
          "indexed": true,
          "internalType": "bytes32",
          "name": "previousAdminRole",
          "type": "bytes32"
        },
        {
          "indexed": true,
          "internalType": "bytes32",
          "name": "newAdminRole",
          "type": "bytes32"
        }
      ],
      "name": "RoleAdminChanged",
      "type": "event"
    },
    {
      "anonymous": false,
      "inputs": [
        {
          "indexed": true,
          "internalType": "bytes32",
          "name": "role",
          "type": "bytes32"
        },
        {
          "indexed": true,
          "internalType": "address",
          "name": "account",
          "type": "address"
        },
        {
          "indexed": true,
          "internalType": "address",
          "name": "sender",
          "type": "address"
        }
      ],
      "name": "RoleGranted",
      "type": "event"
    },
    {
      "anonymous": false,
      "inputs": [
        {
          "indexed": true,
          "internalType": "bytes32",
          "name": "role",
          "type": "bytes32"
        },
        {
          "indexed": true,
          "internalType": "address",
          "name": "account",
          "type": "address"
        },
        {
          "indexed": true,
          "internalType": "address",
          "name": "sender",
          "type": "address"
        }
      ],
      "name": "RoleRevoked",
      "type": "event"
    },
    {
      "anonymous": false,
      "inputs": [
        {
          "indexed": true,
          "internalType": "address",
          "name": "from",
          "type": "address"
        },
        {
          "indexed": true,
          "internalType": "address",
          "name": "to",
          "type": "address"
        },
        {
          "indexed": true,
          "internalType": "uint256",
          "name": "tokenId",
          "type": "uint256"
        }
      ],
      "name": "Transfer",
      "type": "event"
    },
    {
      "inputs": [],
      "name": "DEFAULT_ADMIN_ROLE",
      "outputs": [
        {
          "internalType": "bytes32",
          "name": "",
          "type": "bytes32"
        }
      ],
      "stateMutability": "view",
      "type": "function"
    },
    {
      "inputs": [
        {
          "internalType": "address",
          "name": "to",
          "type": "address"
        },
        {
          "internalType": "uint256",
          "name": "tokenId",
          "type": "uint256"
        }
      ],
      "name": "approve",
      "outputs": [],
      "stateMutability": "nonpayable",
      "type": "function"
    },
    {
      "inputs": [
        {
          "internalType": "address",
          "name": "owner",
          "type": "address"
        }
      ],
      "name": "balanceOf",
      "outputs": [
        {
          "internalType": "uint256",
          "name": "",
          "type": "uint256"
        }
      ],
      "stateMutability": "view",
      "type": "function"
    },
    {
      "inputs": [],
      "name": "baseURI",
      "outputs": [
        {
          "internalType": "string",
          "name": "",
          "type": "string"
        }
      ],
      "stateMutability": "view",
      "type": "function"
    },
    {
      "inputs": [
        {
          "internalType": "uint256",
          "name": "tokenId",
          "type": "uint256"
        }
      ],
      "name": "getApproved",
      "outputs": [
        {
          "internalType": "address",
          "name": "",
          "type": "address"
        }
      ],
      "stateMutability": "view",
      "type": "function"
    },
    {
      "inputs": [
        {
          "internalType": "bytes32",
          "name": "role",
          "type": "bytes32"
        }
      ],
      "name": "getRoleAdmin",
      "outputs": [
        {
          "internalType": "bytes32",
          "name": "",
          "type": "bytes32"
        }
      ],
      "stateMutability": "view",
      "type": "function"
    },
    {
      "inputs": [
        {
          "internalType": "bytes32",
          "name": "role",
          "type": "bytes32"
        },
        {
          "internalType": "uint256",
          "name": "index",
          "type": "uint256"
        }
      ],
      "name": "getRoleMember",
      "outputs": [
        {
          "internalType": "address",
          "name": "",
          "type": "address"
        }
      ],
      "stateMutability": "view",
      "type": "function"
    },
    {
      "inputs": [
        {
          "internalType": "bytes32",
          "name": "role",
          "type": "bytes32"
        }
      ],
      "name": "getRoleMemberCount",
      "outputs": [
        {
          "internalType": "uint256",
          "name": "",
          "type": "uint256"
        }
      ],
      "stateMutability": "view",
      "type": "function"
    },
    {
      "inputs": [
        {
          "internalType": "bytes32",
          "name": "role",
          "type": "bytes32"
        },
        {
          "internalType": "address",
          "name": "account",
          "type": "address"
        }
      ],
      "name": "grantRole",
      "outputs": [],
      "stateMutability": "nonpayable",
      "type": "function"
    },
    {
      "inputs": [
        {
          "internalType": "bytes32",
          "name": "role",
          "type": "bytes32"
        },
        {
          "internalType": "address",
          "name": "account",
          "type": "address"
        }
      ],
      "name": "hasRole",
      "outputs": [
        {
          "internalType": "bool",
          "name": "",
          "type": "bool"
        }
      ],
      "stateMutability": "view",
      "type": "function"
    },
    {
      "inputs": [
        {
          "internalType": "address",
          "name": "owner",
          "type": "address"
        },
        {
          "internalType": "address",
          "name": "operator",
          "type": "address"
        }
      ],
      "name": "isApprovedForAll",
      "outputs": [
        {
          "internalType": "bool",
          "name": "",
          "type": "bool"
        }
      ],
      "stateMutability": "view",
      "type": "function"
    },
    {
      "inputs": [],
      "name": "name",
      "outputs": [
        {
          "internalType": "string",
          "name": "",
          "type": "string"
        }
      ],
      "stateMutability": "view",
      "type": "function"
    },
    {
      "inputs": [
        {
          "internalType": "uint256",
          "name": "tokenId",
          "type": "uint256"
        }
      ],
      "name": "ownerOf",
      "outputs": [
        {
          "internalType": "address",
          "name": "",
          "type": "address"
        }
      ],
      "stateMutability": "view",
      "type": "function"
    },
    {
      "inputs": [
        {
          "internalType": "bytes32",
          "name": "role",
          "type": "bytes32"
        },
        {
          "internalType": "address",
          "name": "account",
          "type": "address"
        }
      ],
      "name": "renounceRole",
      "outputs": [],
      "stateMutability": "nonpayable",
      "type": "function"
    },
    {
      "inputs": [
        {
          "internalType": "bytes32",
          "name": "role",
          "type": "bytes32"
        },
        {
          "internalType": "address",
          "name": "account",
          "type": "address"
        }
      ],
      "name": "revokeRole",
      "outputs": [],
      "stateMutability": "nonpayable",
      "type": "function"
    },
    {
      "inputs": [
        {
          "internalType": "address",
          "name": "from",
          "type": "address"
        },
        {
          "internalType": "address",
          "name": "to",
          "type": "address"
        },
        {
          "internalType": "uint256",
          "name": "tokenId",
          "type": "uint256"
        }
      ],
      "name": "safeTransferFrom",
      "outputs": [],
      "stateMutability": "nonpayable",
      "type": "function"
    },
    {
      "inputs": [
        {
          "internalType": "address",
          "name": "from",
          "type": "address"
        },
        {
          "internalType": "address",
          "name": "to",
          "type": "address"
        },
        {
          "internalType": "uint256",
          "name": "tokenId",
          "type": "uint256"
        },
        {
          "internalType": "bytes",
          "name": "_data",
          "type": "bytes"
        }
      ],
      "name": "safeTransferFrom",
      "outputs": [],
      "stateMutability": "nonpayable",
      "type": "function"
    },
    {
      "inputs": [
        {
          "internalType": "address",
          "name": "operator",
          "type": "address"
        },
        {
          "internalType": "bool",
          "name": "approved",
          "type": "bool"
        }
      ],
      "name": "setApprovalForAll",
      "outputs": [],
      "stateMutability": "nonpayable",
      "type": "function"
    },
    {
      "inputs": [
        {
          "internalType": "bytes4",
          "name": "interfaceId",
          "type": "bytes4"
        }
      ],
      "name": "supportsInterface",
      "outputs": [
        {
          "internalType": "bool",
          "name": "",
          "type": "bool"
        }
      ],
      "stateMutability": "view",
      "type": "function"
    },
    {
      "inputs": [],
      "name": "symbol",
      "outputs": [
        {
          "internalType": "string",
          "name": "",
          "type": "string"
        }
      ],
      "stateMutability": "view",
      "type": "function"
    },
    {
      "inputs": [
        {
          "internalType": "uint256",
          "name": "index",
          "type": "uint256"
        }
      ],
      "name": "tokenByIndex",
      "outputs": [
        {
          "internalType": "uint256",
          "name": "",
          "type": "uint256"
        }
      ],
      "stateMutability": "view",
      "type": "function"
    },
    {
      "inputs": [
        {
          "internalType": "address",
          "name": "owner",
          "type": "address"
        },
        {
          "internalType": "uint256",
          "name": "index",
          "type": "uint256"
        }
      ],
      "name": "tokenOfOwnerByIndex",
      "outputs": [
        {
          "internalType": "uint256",
          "name": "",
          "type": "uint256"
        }
      ],
      "stateMutability": "view",
      "type": "function"
    },
    {
      "inputs": [
        {
          "internalType": "uint256",
          "name": "tokenId",
          "type": "uint256"
        }
      ],
      "name": "tokenURI",
      "outputs": [
        {
          "internalType": "string",
          "name": "",
          "type": "string"
        }
      ],
      "stateMutability": "view",
      "type": "function"
    },
    {
      "inputs": [],
      "name": "totalSupply",
      "outputs": [
        {
          "internalType": "uint256",
          "name": "",
          "type": "uint256"
        }
      ],
      "stateMutability": "view",
      "type": "function"
    },
    {
      "inputs": [
        {
          "internalType": "address",
          "name": "from",
          "type": "address"
        },
        {
          "internalType": "address",
          "name": "to",
          "type": "address"
        },
        {
          "internalType": "uint256",
          "name": "tokenId",
          "type": "uint256"
        }
      ],
      "name": "transferFrom",
      "outputs": [],
      "stateMutability": "nonpayable",
      "type": "function"
    },
    {
      "inputs": [
        {
          "internalType": "address",
          "name": "to",
          "type": "address"
        },
        {
          "internalType": "uint256",
          "name": "tokenId",
          "type": "uint256"
        }
      ],
      "name": "mint",
      "outputs": [],
      "stateMutability": "nonpayable",
      "type": "function"
    }
  ],
  "bytecode": "0x60806040523480156200001157600080fd5b506040516200250a3803806200250a833981810160405260408110156200003757600080fd5b81019080805160405193929190846401000000008211156200005857600080fd5b9083019060208201858111156200006e57600080fd5b82516401000000008111828201881017156200008957600080fd5b82525081516020918201929091019080838360005b83811015620000b85781810151838201526020016200009e565b50505050905090810190601f168015620000e65780820380516001836020036101000a031916815260200191505b50604052602001805160405193929190846401000000008211156200010a57600080fd5b9083019060208201858111156200012057600080fd5b82516401000000008111828201881017156200013b57600080fd5b82525081516020918201929091019080838360005b838110156200016a57818101518382015260200162000150565b50505050905090810190601f168015620001985780820380516001836020036101000a031916815260200191505b5060405250839150829050620001b56301ffc9a760e01b6200022f565b8151620001ca906006906020850190620003ca565b508051620001e0906007906020840190620003ca565b50620001f36380ac58cd60e01b6200022f565b62000205635b5e139f60e01b6200022f565b6200021763780e9d6360e01b6200022f565b50620002279050600033620002b4565b505062000466565b6001600160e01b031980821614156200028f576040805162461bcd60e51b815260206004820152601c60248201527f4552433136353a20696e76616c696420696e7465726661636520696400000000604482015290519081900360640190fd5b6001600160e01b0319166000908152602081905260409020805460ff19166001179055565b620002c08282620002c4565b5050565b6000828152600a60209081526040909120620002eb9183906200107f6200033f821b17901c565b15620002c057620002fb6200035f565b6001600160a01b0316816001600160a01b0316837f2f8788117e7eff1d82e926ec794901d17c78024a50270940304540a733656f0d60405160405180910390a45050565b600062000356836001600160a01b03841662000363565b90505b92915050565b3390565b6000620003718383620003b2565b620003a95750815460018181018455600084815260208082209093018490558454848252828601909352604090209190915562000359565b50600062000359565b60009081526001919091016020526040902054151590565b828054600181600116156101000203166002900490600052602060002090601f016020900481019282601f106200040d57805160ff19168380011785556200043d565b828001600101855582156200043d579182015b828111156200043d57825182559160200191906001019062000420565b506200044b9291506200044f565b5090565b5b808211156200044b576000815560010162000450565b61209480620004766000396000f3fe608060405234801561001057600080fd5b506004361061018e5760003560e01c80636352211e116100de578063a217fddf11610097578063c87b56dd11610071578063c87b56dd146105c0578063ca15c873146105dd578063d547741f146105fa578063e985e9c5146106265761018e565b8063a217fddf146104c4578063a22cb465146104cc578063b88d4fde146104fa5761018e565b80636352211e146104225780636c0360eb1461043f57806370a08231146104475780639010d07c1461046d57806391d148541461049057806395d89b41146104bc5761018e565b8063248a9ca31161014b57806336568abe1161012557806336568abe1461037757806340c10f19146103a357806342842e0e146103cf5780634f6ccce7146104055761018e565b8063248a9ca3146103025780632f2ff15d1461031f5780632f745c591461034b5761018e565b806301ffc9a71461019357806306fdde03146101ce578063081812fc1461024b578063095ea7b31461028457806318160ddd146102b257806323b872dd146102cc575b600080fd5b6101ba600480360360208110156101a957600080fd5b50356001600160e01b031916610654565b604080519115158252519081900360200190f35b6101d6610677565b6040805160208082528351818301528351919283929083019185019080838360005b838110156102105781810151838201526020016101f8565b50505050905090810190601f16801561023d5780820380516001836020036101000a031916815260200191505b509250505060405180910390f35b6102686004803603602081101561026157600080fd5b503561070d565b604080516001600160a01b039092168252519081900360200190f35b6102b06004803603604081101561029a57600080fd5b506001600160a01b03813516906020013561076f565b005b6102ba61084a565b60408051918252519081900360200190f35b6102b0600480360360608110156102e257600080fd5b506001600160a01b0381358116916020810135909116906040013561085b565b6102ba6004803603602081101561031857600080fd5b50356108b2565b6102b06004803603604081101561033557600080fd5b50803590602001356001600160a01b03166108c7565b6102ba6004803603604081101561036157600080fd5b506001600160a01b038135169060200135610933565b6102b06004803603604081101561038d57600080fd5b50803590602001356001600160a01b031661095e565b6102b0600480360360408110156103b957600080fd5b506001600160a01b0381351690602001356109bf565b6102b0600480360360608110156103e557600080fd5b506001600160a01b03813581169160208101359091169060400135610a1f565b6102ba6004803603602081101561041b57600080fd5b5035610a3a565b6102686004803603602081101561043857600080fd5b5035610a50565b6101d6610a78565b6102ba6004803603602081101561045d57600080fd5b50356001600160a01b0316610ad9565b6102686004803603604081101561048357600080fd5b5080359060200135610b41565b6101ba600480360360408110156104a657600080fd5b50803590602001356001600160a01b0316610b59565b6101d6610b71565b6102ba610bd2565b6102b0600480360360408110156104e257600080fd5b506001600160a01b0381351690602001351515610bd7565b6102b06004803603608081101561051057600080fd5b6001600160a01b0382358116926020810135909116916040820135919081019060808101606082013564010000000081111561054b57600080fd5b82018360208201111561055d57600080fd5b8035906020019184600183028401116401000000008311171561057f57600080fd5b91908080601f016020809104026020016040519081016040528093929190818152602001838380828437600092019190915250929550610cdc945050505050565b6101d6600480360360208110156105d657600080fd5b5035610d3a565b6102ba600480360360208110156105f357600080fd5b5035610fe1565b6102b06004803603604081101561061057600080fd5b50803590602001356001600160a01b0316610ff8565b6101ba6004803603604081101561063c57600080fd5b506001600160a01b0381358116916020013516611051565b6001600160e01b0319811660009081526020819052604090205460ff165b919050565b60068054604080516020601f60026000196101006001881615020190951694909404938401819004810282018101909252828152606093909290918301828280156107035780601f106106d857610100808354040283529160200191610703565b820191906000526020600020905b8154815290600101906020018083116106e657829003601f168201915b5050505050905090565b600061071882611094565b6107535760405162461bcd60e51b815260040180806020018281038252602c815260200180611f5a602c913960400191505060405180910390fd5b506000908152600460205260409020546001600160a01b031690565b600061077a82610a50565b9050806001600160a01b0316836001600160a01b031614156107cd5760405162461bcd60e51b8152600401808060200182810382526021815260200180611fde6021913960400191505060405180910390fd5b806001600160a01b03166107df6110a1565b6001600160a01b031614806108005750610800816107fb6110a1565b611051565b61083b5760405162461bcd60e51b8152600401808060200182810382526038815260200180611ead6038913960400191505060405180910390fd5b61084583836110a5565b505050565b60006108566002611113565b905090565b61086c6108666110a1565b8261111e565b6108a75760405162461bcd60e51b8152600401808060200182810382526031815260200180611fff6031913960400191505060405180910390fd5b6108458383836111c2565b6000908152600a602052604090206002015490565b6000828152600a60205260409020600201546108ea906108e56110a1565b610b59565b6109255760405162461bcd60e51b815260040180806020018281038252602f815260200180611da4602f913960400191505060405180910390fd5b61092f828261130e565b5050565b6001600160a01b03821660009081526001602052604081206109559083611377565b90505b92915050565b6109666110a1565b6001600160a01b0316816001600160a01b0316146109b55760405162461bcd60e51b815260040180806020018281038252602f815260200180612030602f913960400191505060405180910390fd5b61092f8282611383565b6109ca600033610b59565b610a055760405162461bcd60e51b8152600401808060200182810382526028815260200180611e056028913960400191505060405180910390fd5b61092f8282604051806020016040528060008152506113ec565b61084583838360405180602001604052806000815250610cdc565b600080610a4860028461143e565b509392505050565b600061095882604051806060016040528060298152602001611f0f602991396002919061145a565b60098054604080516020601f60026000196101006001881615020190951694909404938401819004810282018101909252828152606093909290918301828280156107035780601f106106d857610100808354040283529160200191610703565b60006001600160a01b038216610b205760405162461bcd60e51b815260040180806020018281038252602a815260200180611ee5602a913960400191505060405180910390fd5b6001600160a01b038216600090815260016020526040902061095890611113565b6000828152600a602052604081206109559083611377565b6000828152600a602052604081206109559083611471565b60078054604080516020601f60026000196101006001881615020190951694909404938401819004810282018101909252828152606093909290918301828280156107035780601f106106d857610100808354040283529160200191610703565b600081565b610bdf6110a1565b6001600160a01b0316826001600160a01b03161415610c45576040805162461bcd60e51b815260206004820152601960248201527f4552433732313a20617070726f766520746f2063616c6c657200000000000000604482015290519081900360640190fd5b8060056000610c526110a1565b6001600160a01b03908116825260208083019390935260409182016000908120918716808252919093529120805460ff191692151592909217909155610c966110a1565b6001600160a01b03167f17307eab39ab6107e8899845ad3d59bd9653f200f220920489ca2b5937696c318360405180821515815260200191505060405180910390a35050565b610ced610ce76110a1565b8361111e565b610d285760405162461bcd60e51b8152600401808060200182810382526031815260200180611fff6031913960400191505060405180910390fd5b610d3484848484611486565b50505050565b6060610d4582611094565b610d805760405162461bcd60e51b815260040180806020018281038252602f815260200180611faf602f913960400191505060405180910390fd5b60008281526008602090815260409182902080548351601f6002600019610100600186161502019093169290920491820184900484028101840190945280845260609392830182828015610e155780601f10610dea57610100808354040283529160200191610e15565b820191906000526020600020905b815481529060010190602001808311610df857829003601f168201915b505060095493945050505060026000196101006001841615020190911604610e3e579050610672565b805115610f0f576009816040516020018083805460018160011615610100020316600290048015610ea65780601f10610e84576101008083540402835291820191610ea6565b820191906000526020600020905b815481529060010190602001808311610e92575b5050825160208401908083835b60208310610ed25780518252601f199092019160209182019101610eb3565b6001836020036101000a03801982511681845116808217855250505050505090500192505050604051602081830303815290604052915050610672565b6009610f1a846114d8565b6040516020018083805460018160011615610100020316600290048015610f785780601f10610f56576101008083540402835291820191610f78565b820191906000526020600020905b815481529060010190602001808311610f64575b5050825160208401908083835b60208310610fa45780518252601f199092019160209182019101610f85565b6001836020036101000a03801982511681845116808217855250505050505090500192505050604051602081830303815290604052915050919050565b6000818152600a6020526040812061095890611113565b6000828152600a6020526040902060020154611016906108e56110a1565b6109b55760405162461bcd60e51b8152600401808060200182810382526030815260200180611e7d6030913960400191505060405180910390fd5b6001600160a01b03918216600090815260056020908152604080832093909416825291909152205460ff1690565b6000610955836001600160a01b0384166115b3565b60006109586002836115fd565b3390565b600081815260046020526040902080546001600160a01b0319166001600160a01b03841690811790915581906110da82610a50565b6001600160a01b03167f8c5be1e5ebec7d5bd14f71427d1e84f3dd0314c0f7b2291e5b200ac8c7c3b92560405160405180910390a45050565b600061095882611609565b600061112982611094565b6111645760405162461bcd60e51b815260040180806020018281038252602c815260200180611e51602c913960400191505060405180910390fd5b600061116f83610a50565b9050806001600160a01b0316846001600160a01b031614806111aa5750836001600160a01b031661119f8461070d565b6001600160a01b0316145b806111ba57506111ba8185611051565b949350505050565b826001600160a01b03166111d582610a50565b6001600160a01b03161461121a5760405162461bcd60e51b8152600401808060200182810382526029815260200180611f866029913960400191505060405180910390fd5b6001600160a01b03821661125f5760405162461bcd60e51b8152600401808060200182810382526024815260200180611e2d6024913960400191505060405180910390fd5b61126a838383610845565b6112756000826110a5565b6001600160a01b0383166000908152600160205260409020611297908261160d565b506001600160a01b03821660009081526001602052604090206112ba9082611619565b506112c760028284611625565b5080826001600160a01b0316846001600160a01b03167fddf252ad1be2c89b69c2b068fc378daa952ba7f163c4a11628f55a4df523b3ef60405160405180910390a4505050565b6000828152600a60205260409020611326908261107f565b1561092f576113336110a1565b6001600160a01b0316816001600160a01b0316837f2f8788117e7eff1d82e926ec794901d17c78024a50270940304540a733656f0d60405160405180910390a45050565b6000610955838361163b565b6000828152600a6020526040902061139b908261169f565b1561092f576113a86110a1565b6001600160a01b0316816001600160a01b0316837ff6391f5c32d9c69d2a47ea670b442974b53935d1edc7fd64eb21e047a839171b60405160405180910390a45050565b6113f683836116b4565b61140360008484846117e2565b6108455760405162461bcd60e51b8152600401808060200182810382526032815260200180611dd36032913960400191505060405180910390fd5b600080808061144d868661194a565b9097909650945050505050565b60006114678484846119c5565b90505b9392505050565b6000610955836001600160a01b038416611a8f565b6114918484846111c2565b61149d848484846117e2565b610d345760405162461bcd60e51b8152600401808060200182810382526032815260200180611dd36032913960400191505060405180910390fd5b6060816114fd57506040805180820190915260018152600360fc1b6020820152610672565b8160005b811561151557600101600a82049150611501565b60608167ffffffffffffffff8111801561152e57600080fd5b506040519080825280601f01601f191660200182016040528015611559576020820181803683370190505b50859350905060001982015b83156115aa57600a840660300160f81b8282806001900393508151811061158857fe5b60200101906001600160f81b031916908160001a905350600a84049350611565565b50949350505050565b60006115bf8383611a8f565b6115f557508154600181810184556000848152602080822090930184905584548482528286019093526040902091909155610958565b506000610958565b60006109558383611a8f565b5490565b60006109558383611aa7565b600061095583836115b3565b600061146784846001600160a01b038516611b6d565b8154600090821061167d5760405162461bcd60e51b8152600401808060200182810382526022815260200180611d826022913960400191505060405180910390fd5b82600001828154811061168c57fe5b9060005260206000200154905092915050565b6000610955836001600160a01b038416611aa7565b6001600160a01b03821661170f576040805162461bcd60e51b815260206004820181905260248201527f4552433732313a206d696e7420746f20746865207a65726f2061646472657373604482015290519081900360640190fd5b61171881611094565b1561176a576040805162461bcd60e51b815260206004820152601c60248201527f4552433732313a20746f6b656e20616c7265616479206d696e74656400000000604482015290519081900360640190fd5b61177660008383610845565b6001600160a01b03821660009081526001602052604090206117989082611619565b506117a560028284611625565b5060405181906001600160a01b038416906000907fddf252ad1be2c89b69c2b068fc378daa952ba7f163c4a11628f55a4df523b3ef908290a45050565b60006117f6846001600160a01b0316611c04565b611802575060016111ba565b6060611910630a85bd0160e11b6118176110a1565b88878760405160240180856001600160a01b03168152602001846001600160a01b0316815260200183815260200180602001828103825283818151815260200191508051906020019080838360005b8381101561187e578181015183820152602001611866565b50505050905090810190601f1680156118ab5780820380516001836020036101000a031916815260200191505b5095505050505050604051602081830303815290604052906001600160e01b0319166020820180516001600160e01b038381831617835250505050604051806060016040528060328152602001611dd3603291396001600160a01b0388169190611c0a565b9050600081806020019051602081101561192957600080fd5b50516001600160e01b031916630a85bd0160e11b1492505050949350505050565b81546000908190831061198e5760405162461bcd60e51b8152600401808060200182810382526022815260200180611f386022913960400191505060405180910390fd5b600084600001848154811061199f57fe5b906000526020600020906002020190508060000154816001015492509250509250929050565b60008281526001840160205260408120548281611a605760405162461bcd60e51b81526004018080602001828103825283818151815260200191508051906020019080838360005b83811015611a25578181015183820152602001611a0d565b50505050905090810190601f168015611a525780820380516001836020036101000a031916815260200191505b509250505060405180910390fd5b50846000016001820381548110611a7357fe5b9060005260206000209060020201600101549150509392505050565b60009081526001919091016020526040902054151590565b60008181526001830160205260408120548015611b635783546000198083019190810190600090879083908110611ada57fe5b9060005260206000200154905080876000018481548110611af757fe5b600091825260208083209091019290925582815260018981019092526040902090840190558654879080611b2757fe5b60019003818190600052602060002001600090559055866001016000878152602001908152602001600020600090556001945050505050610958565b6000915050610958565b600082815260018401602052604081205480611bd257505060408051808201825283815260208082018481528654600181810189556000898152848120955160029093029095019182559151908201558654868452818801909252929091205561146a565b82856000016001830381548110611be557fe5b906000526020600020906002020160010181905550600091505061146a565b3b151590565b606061146784846000856060611c1f85611c04565b611c70576040805162461bcd60e51b815260206004820152601d60248201527f416464726573733a2063616c6c20746f206e6f6e2d636f6e7472616374000000604482015290519081900360640190fd5b60006060866001600160a01b031685876040518082805190602001908083835b60208310611caf5780518252601f199092019160209182019101611c90565b6001836020036101000a03801982511681845116808217855250505050505090500191505060006040518083038185875af1925050503d8060008114611d11576040519150601f19603f3d011682016040523d82523d6000602084013e611d16565b606091505b50915091508115611d2a5791506111ba9050565b805115611d3a5780518082602001fd5b60405162461bcd60e51b8152602060048201818152865160248401528651879391928392604401919085019080838360008315611a25578181015183820152602001611a0d56fe456e756d657261626c655365743a20696e646578206f7574206f6620626f756e6473416363657373436f6e74726f6c3a2073656e646572206d75737420626520616e2061646d696e20746f206772616e744552433732313a207472616e7366657220746f206e6f6e20455243373231526563656976657220696d706c656d656e74657254726f706879546f6b656e3a2053656e646572206d75737420686176652061646d696e20726f6c654552433732313a207472616e7366657220746f20746865207a65726f20616464726573734552433732313a206f70657261746f7220717565727920666f72206e6f6e6578697374656e7420746f6b656e416363657373436f6e74726f6c3a2073656e646572206d75737420626520616e2061646d696e20746f207265766f6b654552433732313a20617070726f76652063616c6c6572206973206e6f74206f776e6572206e6f7220617070726f76656420666f7220616c6c4552433732313a2062616c616e636520717565727920666f7220746865207a65726f20616464726573734552433732313a206f776e657220717565727920666f72206e6f6e6578697374656e7420746f6b656e456e756d657261626c654d61703a20696e646578206f7574206f6620626f756e64734552433732313a20617070726f76656420717565727920666f72206e6f6e6578697374656e7420746f6b656e4552433732313a207472616e73666572206f6620746f6b656e2074686174206973206e6f74206f776e4552433732314d657461646174613a2055524920717565727920666f72206e6f6e6578697374656e7420746f6b656e4552433732313a20617070726f76616c20746f2063757272656e74206f776e65724552433732313a207472616e736665722063616c6c6572206973206e6f74206f776e6572206e6f7220617070726f766564416363657373436f6e74726f6c3a2063616e206f6e6c792072656e6f756e636520726f6c657320666f722073656c66a2646970667358221220692d0123016413875955b939bfd96a93b2876487d51339c32f271d22f63a702564736f6c634300060c0033",
  "immutableReferences": {},
  "source": "// SPDX-License-Identifier: MIT\n\npragma solidity ^0.6.12;\n\nimport \"./openzeppelin/ERC721.sol\";\nimport \"./openzeppelin/AccessControl.sol\";\n\n\ncontract TrophyToken is ERC721, AccessControl {\n\n  constructor (string memory _name, string memory _symbol) ERC721(_name, _symbol) public {\n    _setupRole(DEFAULT_ADMIN_ROLE, msg.sender);\n  }\n\n  function mint(address to, uint256 tokenId) public {\n    require(hasRole(DEFAULT_ADMIN_ROLE, msg.sender), \"TrophyToken: Sender must have admin role\");\n    _safeMint(to, tokenId, \"\");\n  }\n\n}\n",
  "sourcePath": "/Users/jules/WebstormProjects/decentraland/goldananasContract/contracts/TrophyToken.sol",
  "compiler": {
    "name": "solc",
    "version": "0.6.12+commit.27d51765.Emscripten.clang"
  },
  "schemaVersion": "3.2.4",
  "updatedAt": "2020-09-05T14:33:56.753Z",
  "devdoc": {
    "kind": "dev",
    "methods": {
      "approve(address,uint256)": {
        "details": "See {IERC721-approve}."
      },
      "balanceOf(address)": {
        "details": "See {IERC721-balanceOf}."
      },
      "baseURI()": {
        "details": "Returns the base URI set via {_setBaseURI}. This will be automatically added as a prefix in {tokenURI} to each token's URI, or to the token ID if no specific URI is set for that token ID."
      },
      "getApproved(uint256)": {
        "details": "See {IERC721-getApproved}."
      },
      "getRoleAdmin(bytes32)": {
        "details": "Returns the admin role that controls `role`. See {grantRole} and {revokeRole}. To change a role's admin, use {_setRoleAdmin}."
      },
      "getRoleMember(bytes32,uint256)": {
        "details": "Returns one of the accounts that have `role`. `index` must be a value between 0 and {getRoleMemberCount}, non-inclusive. Role bearers are not sorted in any particular way, and their ordering may change at any point. WARNING: When using {getRoleMember} and {getRoleMemberCount}, make sure you perform all queries on the same block. See the following https://forum.openzeppelin.com/t/iterating-over-elements-on-enumerableset-in-openzeppelin-contracts/2296[forum post] for more information."
      },
      "getRoleMemberCount(bytes32)": {
        "details": "Returns the number of accounts that have `role`. Can be used together with {getRoleMember} to enumerate all bearers of a role."
      },
      "grantRole(bytes32,address)": {
        "details": "Grants `role` to `account`. If `account` had not been already granted `role`, emits a {RoleGranted} event. Requirements: - the caller must have ``role``'s admin role."
      },
      "hasRole(bytes32,address)": {
        "details": "Returns `true` if `account` has been granted `role`."
      },
      "isApprovedForAll(address,address)": {
        "details": "See {IERC721-isApprovedForAll}."
      },
      "name()": {
        "details": "See {IERC721Metadata-name}."
      },
      "ownerOf(uint256)": {
        "details": "See {IERC721-ownerOf}."
      },
      "renounceRole(bytes32,address)": {
        "details": "Revokes `role` from the calling account. Roles are often managed via {grantRole} and {revokeRole}: this function's purpose is to provide a mechanism for accounts to lose their privileges if they are compromised (such as when a trusted device is misplaced). If the calling account had been granted `role`, emits a {RoleRevoked} event. Requirements: - the caller must be `account`."
      },
      "revokeRole(bytes32,address)": {
        "details": "Revokes `role` from `account`. If `account` had been granted `role`, emits a {RoleRevoked} event. Requirements: - the caller must have ``role``'s admin role."
      },
      "safeTransferFrom(address,address,uint256)": {
        "details": "See {IERC721-safeTransferFrom}."
      },
      "safeTransferFrom(address,address,uint256,bytes)": {
        "details": "See {IERC721-safeTransferFrom}."
      },
      "setApprovalForAll(address,bool)": {
        "details": "See {IERC721-setApprovalForAll}."
      },
      "supportsInterface(bytes4)": {
        "details": "See {IERC165-supportsInterface}. Time complexity O(1), guaranteed to always use less than 30 000 gas."
      },
      "symbol()": {
        "details": "See {IERC721Metadata-symbol}."
      },
      "tokenByIndex(uint256)": {
        "details": "See {IERC721Enumerable-tokenByIndex}."
      },
      "tokenOfOwnerByIndex(address,uint256)": {
        "details": "See {IERC721Enumerable-tokenOfOwnerByIndex}."
      },
      "tokenURI(uint256)": {
        "details": "See {IERC721Metadata-tokenURI}."
      },
      "totalSupply()": {
        "details": "See {IERC721Enumerable-totalSupply}."
      },
      "transferFrom(address,address,uint256)": {
        "details": "See {IERC721-transferFrom}."
      }
    },
    "version": 1
  },
  "userdoc": {
    "kind": "user",
    "methods": {},
    "version": 1
  }
}